:020000040000FA
:040FF80000200700CE
:020000040000FA
:040FFC0000E007000A
:020000040007F3
:10200000A89D0020DD230700E5230700E723070044
:10201000E9230700EB230700ED2307000000000081
:10202000000000000000000000000000C9230700BD
:10203000F123070000000000F3230700F523070049
:10204000F7230700F7230700F7230700F72307000C
:10205000F7230700F7230700F7230700F7230700FC
:10206000F7230700F7230700F7230700F7230700EC
:10207000F7230700F7230700F7230700F7230700DC
:1020800025380700F7230700F7230700F723070089
:10209000F7230700F72307009D370700F723070002
:1020A000F7230700F7230700F7230700F7230700AC
:1020B000F7230700F72307000000000000000000DE
:1020C000F7230700F7230700F7230700F72307008C
:1020D00029370700F7230700F72307000000000057
:1020E00000000000000000000000000000000000F0
:1020F00000000000000000000000000000000000E0
:1021000000000000000000000000000000000000CF
:1021100000000000000000000000000000000000BF
:1021200000000000000000000000000000000000AF
:10213000000000000000000000000000000000009F
:10214000000000000000000000000000000000008F
:10215000000000000000000000000000000000007F
:10216000000000000000000000000000000000006F
:10217000000000000000000000000000000000005F
:10218000000000000000000000000000000000004F
:10219000000000000000000000000000000000003F
:1021A000000000000000000000000000000000002F
:1021B000000000000000000000000000000000001F
:1021C000000000000000000000000000000000000F
:1021D00000000000000000000000000000000000FF
:1021E00000000000000000000000000000000000EF
:1021F00000000000000000000000000000000000DF
:10220000DFF80CD000F03CF9004800477D4907009A
:10221000A89D002080F308888E46104730B450E80F
:10222000012F93B2C48923448489A34228BF1B1B76
:102230000489A34202BFBFF32F8F002007E0C3EA47
:10224000020340E80134002CE9D14FF001000A609C
:1022500030BC704750E8012FC2EA024240E8012139
:102260000029F7D1704730B450E8022F1FFAA2F3CB
:10227000C488A34202BFBFF32F8F00200DE0C489A2
:1022800023448489A34228BF1B1BC2EA034340E8BE
:102290000234002CE8D14FF001000A6030BC7047D6
:1022A00050E8022FC2EA224240E802210029F7D179
:1022B0007047034653E8022FD988B2EB324F4FF0F4
:1022C000000017BF92B241EA014142EA014104E035
:1022D0005A68B2EB324F08BF012043E80212002ACD
:1022E000E8D1704730B4044654E8000F0D4644E886
:1022F0000053002BF8D1156030BC704730B4044651
:1023000054E8000F40EA010544E80053002BF7D1E0
:10231000156030BC704730B4044654E8000F00EA42
:10232000010544E80053002BF7D1156030BC70471D
:1023300030B4044654E8000F80EA010544E8005335
:10234000002BF7D1156030BC704730B4044654E818
:10235000000F00EB010544E80053002BF7D1156096
:1023600030BC704730B4044654E8000FA0EB0105C0
:1023700044E80053002BF7D1156030BC704770B4AF
:1023800004464FF0000054E8006F0D68AE4207BFEE
:1023900044E80023012044E800630E60002B1CBFCA
:1023A0000020F0E770BC704730B4044654E8000FDA
:1023B00088422CBF451A054644E80053002BF5D14E
:1023C000156030BC704700001EF0040F0CBFEFF327
:1023D0000880EFF3098004F0A1B8000006488047A8
:1023E00006480047FEE7FEE7FEE7FEE7FEE7FEE7FA
:1023F000FEE7FEE7FEE7FEE7A13707000122070040
:10240000202A04DB203A00FA02F1002070479140B4
:10241000C2F1200320FA03F319439040704740EAC9
:1024200001039B0703D009E008C9121F08C0042A52
:10243000FAD203E011F8013B00F8013B521EF9D239
:102440007047D2B201E000F8012B491EFBD2704761
:102450000022F6E710B513460A4604461946FFF770
:10246000F0FF204610BD30B504460020034600E0D2
:102470005B1C934203D2E05CCD5C401BF8D030BDC6
:10248000064C074D06E0E06840F0010394E80700C1
:1024900098471034AC42F6D3FFF7B6FE64870700C6
:1024A000848707002DE9F0438BB01446129D15F97F
:1024B000046B00961F46804689462B4602462146FD
:1024C00002A800F0BBFC02A9129A084600F0A6FC84
:1024D000129B02AA4146404600F090FC129B02AAC1
:1024E0002146204600F08AFC2B464A4639463846AB
:1024F000009600F0A3FC129A394602A800F08EFC68
:1025000002A92B4642460846009600F097FC02A915
:102510002B4622460846009600F090FC2B46424689
:1025200021462046009600F089FC129B224649462F
:10253000484600F063FC2B4602AA4146204600961E
:1025400000F07CFC129B22463946384600F056FCCF
:102550002B464A4639463846009600F06FFC324614
:1025600002A9204600F030FE0BB0BDE8F083F0B5C4
:10257000154689B01C4607460E461A462946684647
:1025800000F04CFC23466A463946384600F036FCDB
:1025900023462A466946684600F030FC23466A46D0
:1025A0003146304600F02AFC09B0F0BD8B180244D9
:1025B0008B4204D013F8010D02F8010DF8E77047C3
:1025C0002DE9F047B3F9025089460824E91D1F356B
:1025D00091FBF4F42021944295FBF1F54FFA85F834
:1025E00028BF14461F464146064600F06FFA2246B1
:1025F0004946FFF7DBFFB7F90230E4009C4220D9DF
:10260000E41A06EB85010023C4F120008E4208D2B3
:1026100051F8042D22FA04F52B430B6002FA00F363
:10262000F4E7243742463146384600F05BFA012889
:1026300007D043463A4631463046BDE8F04700F001
:1026400017BFBDE8F0872DE9F04793F9006092B01D
:1026500004468946104631461546984600F06AFA07
:10266000002840F098804246494602A800F0D6FB78
:10267000434602AA21460AA800F0C0FB02A9084668
:10268000424600F0CBFB43462A464946484600F006
:10269000B5FB08F1040742462946284600F0BEFB78
:1026A0003B462A4621462046009600F0F5FA3B4676
:1026B0002A4629462846009600F0EEFA3B462A466E
:1026C00021462846009600F0B9FB43462A4621469B
:1026D000204600F093FB3B462246214628460096C2
:1026E00000F0DAFA3B4600962A462146204600F0E2
:1026F000D3FA2368DB0714D533463A4621462046F1
:1027000000F0B6F931468246204600F050FD06F151
:102710008043013B54F8230040EACA7044F8230088
:1027200003E03146204600F042FD4246214628465D
:1027300000F074FB3B460AAA29462846009600F0A2
:102740007DFB3B460AAA29462846009600F076FB08
:102750000AA908463B462A46009600F06FFB43460E
:102760000AAA2146204600F049FB02AA3B46104631
:102770002146009600F062FB32462946204600F0D2
:1027800023FD32464946284600F01EFD324602A986
:10279000484600F019FD12B0BDE8F08700487047C8
:1027A000B48607002DE9F04FEDB01F46DDF8D88163
:1027B0000590B8F9026098F9005020231F3696FB67
:1027C000F3F676B206F1FF3924AB002443F8294032
:1027D0006CAB03EB89034CA88A469346394698F9BB
:1027E000012043F8804C43F8604CFFF7DFFE98F976
:1027F000012054A8B918FFF7D9FE29464CA800F0CB
:1028000099F90746002840F02781294654A800F08E
:1028100091F90390002840F0218108F12403324609
:102820004CA91846029300F05DF9012840F0188188
:10283000324654A9029800F055F90128069040F05C
:102840000F811CAC0CAF3346029A54A9204600F00D
:102850003CFA039B47F829305A46514638464346CE
:10286000FFF7AEFE39463846029B0096224600F03E
:10287000B3FA0DF5B879029B009622464CA914A82C
:1028800000F0AAFA48462A46059900F09DFCAB00E4
:1028900009EB030A0793059BA900591808F1440B9B
:1028A00050462A4600F090FC59462A4634A800F0CB
:1028B0008BFCAB000BEB03012A463CA800F084FC28
:1028C00008F10403494634AA20460095049300F019
:1028D000B5FA53464A463CA934A8CDF80080FFF724
:1028E000E1FD2B46049A2146204600F0EEF92246EF
:1028F000514648464346FFF73AFE039B089331464C
:10290000059B0A933846CDF824B0CDF82C9000F002
:1029100030FC3146814614A800F02BFC4845B8BF76
:1029200048461FFA80F909F1FF3B0FFA8BFB594625
:10293000384600F0CDFD5946071C14A818BF0127E2
:1029400000F0C6FD002814BF022300231F430DF131
:10295000200A2A465AF8277024A8394600F034FC89
:102960000DF1B00BAB00F9182A46584600F02CFCCC
:102970002946204600F0AAF8A9F10209069B236027
:102980000FFA89F90DF1900AB9F1000F45DB4346C2
:102990002246D8F8A47059465046B84749460CA874
:1029A00000F096FD4946071C14A818BF012700F047
:1029B0008FFD002814BF022300231F4308AB53F8E8
:1029C00027702FB32A46394634A800F0FDFB079B39
:1029D0002A46F9183CA800F0F7FB434622463CA9DA
:1029E00034A8FFF7C4FD049B009534AA514644A8BF
:1029F00000F024FA5B4652463CA934A8CDF800808A
:102A0000FFF750FD434644AA2146204600F0F6F960
:102A100009F1FF390FFA89F9B6E72B46049A2146E6
:102A2000204600F052F94346224659465046FFF7E9
:102A30009EFD32465146029800F054F8012805D018
:102A40003346029A5146504600F012FD2A464CA9E0
:102A5000504600F05BF804E0204602E0384600E013
:102A600003986DB0BDE8F08F00000000000000008A
:102A7000C3F10803DB0070B50133002403A500BFD8
:102A80005B1920C940CAAD1920C0184720C940CAE7
:102A9000754120C020C940CA754120C020C940CA24
:102AA000754120C020C940CA754120C020C940CA14
:102AB000754120C020C940CA754120C020C940CA04
:102AC000754120C06441204670BD00BF002210B592
:102AD000144653B28B4204DA1BB2013240F8234051
:102AE000F7E710BD10B5013A52B2002A0ADB13B263
:102AF00050F8234051F823309C4205D8F3D24FF0D0
:102B0000FF3010BD002010BD012010BD70B5013A8E
:102B100052B20023002A09DB15B2013A50F82560B1
:102B200051F825407440234352B2F3E7B3FA83F0DF
:102B3000400970BD10B500231A465CB28C4204DA1D
:102B400050F8244001332243F7E7B2FA82F04009FB
:102B500010BD00002DE9F04FA5B01C46039114AB49
:102B60002146804610461746029300F002FB494B6F
:102B7000C0EB841005B22B40002BBEBF03F1FF3326
:102B800063F01F030133202695FBF6F676B20FFAA9
:102B900083F904A83146FFF799FFB9F1000F30B26D
:102BA00014DD04AB002203EB8000C9F120061346BC
:102BB000A34212D257F8231001FA09FE4EEA02028C
:102BC00040F8232021FA06F20133F1E704AB224654
:102BD000394603EB800000F0F7FA27B27B0001933F
:102BE00004AB03EB870704F1FF3924AB012603EBA9
:102BF0008909002D42DB24AB0022C6F10100964674
:102C000003EB860A03EB8000019B51B299421BDA69
:102C10000FFA81FC5AF8883C53F82CB024AB03EB34
:102C2000810151F8803CC3EB0B03CEEB03039B45C2
:102C300004D034BF4FF0010E4FF0000E50F8881C46
:102C4000013241F82C30DFE7CEEB06035E4221462D
:102C500004A85E4100F0ABFA24AB03EB84032146E9
:102C600053F8802C59F8803C384643EAC273013D42
:102C700049F8803C2DB200F09AFABAE724AB03EB96
:102C80008606224656F8881C404600F09DFA25B07C
:102C9000BDE8F08F1F00008070B59DF910401E4602
:102CA00023460546FFF7E4FE30B922462946304662
:102CB000FFF718FF012807D0234632462946284649
:102CC000BDE8704000F0D4BB70BDF0B50F46A1B0B8
:102CD00006461946384615461C46FFF72BFF20B11D
:102CE00021463046FFF7F2FE74E022463946684638
:102CF00000F06AFA2246294608A800F065FA214643
:102D000010A8FFF7E3FE0123214618A81093FFF750
:102D1000DDFE224608A96846FFF7E4FE002854D0ED
:102D2000009BDA0704D42146684600F040FA26E00A
:102D3000089BDB0704D4214608A800F038FA3EE0DF
:102D4000002823461FDD08AA6946684600F090FB6C
:102D50002146684600F02BFA224618A910A8FFF772
:102D6000C1FE002805DA10A923462A460846FFF7C7
:102D70007FFE10A9234618AA084600F079FB2246D8
:102D8000294610A81EE008A96A46084600F070FB14
:102D9000214608A800F00BFA224610A918A8FFF750
:102DA000A1FE002805DA18A923462A460846FFF79F
:102DB0005FFE18A9234610AA084600F059FB2246D8
:102DC000294618A800F066FCA3E7224610A9304661
:102DD00000F0FAF921B0F0BD70B590B005469DF94C
:102DE00050401E466846234600F03AF823463246D5
:102DF00069462846FFF7AEFE10B070BD30B51C46E0
:102E000091B0054693F90030684600F029F8D4F8EF
:102E1000AC3069462846984711B030BD30B51446ED
:102E200091B0054692F90020684600F0DAF9D4F82E
:102E3000AC3069462846984711B030BD70B59DF951
:102E400010401E462346054600F012FB38B12346CB
:102E5000324629462846BDE87040FFF709BE70BDDE
:102E60002DE9F04F08B4F8CA04B451F8042BA3FBC1
:102E7000028940F8048B4FF0000AE4FB629A4FF09D
:102E8000000BE5FB62AB4FF0000CE6FB62BC4FF0C1
:102E9000000EE7FB62CE51F8042B4FF00008E3FB75
:102EA000628940F8048BE4FB629AE5FB62ABE6FBC7
:102EB00062BCE7FB62CE51F8042B4FF00008E3FB45
:102EC000628940F8048BE4FB629AE5FB62ABE6FBA7
:102ED00062BCE7FB62CE51F8042B4FF00008E3FB25
:102EE000628940F8048BE4FB629AE5FB62ABE6FB87
:102EF00062BCE7FB62CE51F8042B4FF00008E3FB05
:102F0000628940F8048BE4FB629AE5FB62ABE6FB66
:102F100062BCE7FB62CE40F8049B40F804AB40F88B
:102F200004BB40F804CB40F804EB0CBC052B00F0CC
:102F30001E810C68A0F11400A1F11401A2F1140289
:102F400052F804EB4FF0000550F8046BE4FB6E56AA
:102F500052F804EB50F8047BE4FB6E6752F804EB84
:102F600050F8048BE4FB6E7852F804EB50F8049BA5
:102F7000E4FB6E8952F804EB50F804ABE4FB6E9A64
:102F8000A0F1140052F8044B51F804EB4FF0000C80
:102F9000E4FB6EC540F804CB51F804EBE4FB6E563D
:102FA00040F8045B51F804EBE4FB6E6740F8046BF7
:102FB00051F804EBE4FB6E7840F8047B51F804EB25
:102FC000E4FB6E8940F8048B51F804EBE4FB6E9A45
:102FD000A0E80006062B00F0CA800C68A0F11800DB
:102FE000A1F11801A2F1180252F804EB4FF000050C
:102FF00050F8046BE4FB6E5652F804EB50F8047B77
:10300000E4FB6E6752F804EB50F8048BE4FB6E7837
:1030100052F804EB50F8049BE4FB6E8952F804EB81
:1030200050F804ABE4FB6E9A52F804EB50F804BB82
:10303000E4FB6EABA0F1180052F8044B51F804EB1E
:103040004FF0000CE4FB6EC540F804CB51F804EBE4
:10305000E4FB6E5640F8045B51F804EBE4FB6E674A
:1030600040F8046B51F804EBE4FB6E7840F8047B05
:1030700051F804EBE4FB6E8940F8048B51F804EB43
:10308000E4FB6E9A40F8049B51F804EBE4FB6EAB52
:10309000A0E8000C072B6AD008B40C68A0F11C0053
:1030A000A1F11C01A2F11C0252F804EB4FF0000543
:1030B00050F8046BE4FB6E5652F804EB50F8047BB6
:1030C000E4FB6E6752F804EB50F8048BE4FB6E7877
:1030D00052F804EB50F8049BE4FB6E8952F804EBC1
:1030E00050F804ABE4FB6E9A52F804EB50F804BBC2
:1030F000E4FB6EAB52F804EB50F804CBE4FB6EBC7F
:10310000A0F11C0052F8044B51F804EB4FF00003FF
:10311000E4FB6E3540F8043B51F804EBE4FB6E56DB
:1031200040F8045B51F804EBE4FB6E6740F8046B75
:1031300051F804EBE4FB6E7840F8047B51F804EBA3
:10314000E4FB6E8940F8048B51F804EBE4FB6E9AC3
:1031500040F8049B51F804EBE4FB6EAB40F804AB81
:1031600051F804EBE4FB6EBCA0E8001808BCBDE815
:10317000F08F013949B2002909DA013149B2A1B110
:1031800001F18043013B50F82330002004E050F867
:103190002130002BEDD0F0E713B15B080130FBE7E5
:1031A000013900EB411108B270470846704700EB47
:1031B00081010023884206D251F8042D43EA5203CC
:1031C0000B60D307F6E7704730B5002463B2934233
:1031D00006DA1BB2013451F8235040F82350F5E7CA
:1031E00030BD2DE9F04FB1E8005E06B4AAFB09122C
:1031F0004FF00003EBFB69234FF00004ECFB693454
:103200004FF00005EEFB69454FF00006EBFB6A63EB
:10321000ECFB6A344918524176415B41A9FB0978BD
:103220004FF0000949F1000918EB0108A0E88001FE
:10323000AAFB0A78574158EB0608A0E88001EEFB8C
:103240006A454FF0000A4AF1000A4FF00001ECFB1A
:103250006B14EEFB6B454FF00002EEFB6C255FEA52
:1032600059094941644152416D4149F10009EBFB63
:103270006B3A1AEB010AA0E80804ACFB0C6A664141
:103280005AEB020AA0E84004AEFB0E6A6E415AEB0C
:10329000090AA0E8400406BC052A00F0E680A0F177
:1032A0001400A1F11401B1E8E043A5FB0E344FF086
:1032B0000005E6FB6E454FF00006E7FB6E564FF04B
:1032C0000007E8FB6E674FF00008E9FB6E784FF0EF
:1032D0000009DB1864416D4176417F4158EB0808D5
:1032E00059F1000950F804CB13EB0C0350F804CB50
:1032F00054EB0C0450F804CB55EB0C0550F804CB00
:1033000056EB0C0650F804CB57EB0C0758F10008AD
:1033100059F10009A0F11400EEFB0E89A0E8F803B2
:10332000062A00F0A280A0F11800A1F11801B1E86E
:10333000E047A5FB0E344FF00005E6FB6E454FF06D
:103340000006E7FB6E564FF00007E8FB6E674FF094
:103350000008E9FB6E784FF00009EAFB6E894FF038
:10336000000ADB1864416D4176417F4158EB080843
:1033700059EB09095AF1000A50F804CB13EB0C037E
:1033800050F804CB54EB0C0450F804CB55EB0C056F
:1033900050F804CB56EB0C0650F804CB57EB0C0757
:1033A00050F804CB58EB0C0859F100095AF1000A07
:1033B000A0F11800EEFB0E9AA0E8F807072A54D0F7
:1033C000A0F11C00A1F11C01B1E8E04FA5FB0E34F7
:1033D0004FF00005E6FB6E454FF00006E7FB6E562A
:1033E0004FF00007E8FB6E674FF00008E9FB6E78CE
:1033F0004FF00009EAFB6E894FF0000AEBFB6E9A72
:103400004FF0000BDB1864416D4176417F4158EB72
:10341000080859EB09095AEB0A0A5BF1000B50F84E
:1034200004CB13EB0C0350F804CB54EB0C0450F812
:1034300004CB55EB0C0550F804CB56EB0C0650F8BA
:1034400004CB57EB0C0750F804CB58EB0C0850F8A2
:1034500004CB59EB0C095AF1000A5BF1000BA0F107
:103460001C00EEFB0EABA0E8F80FBDE8F08F0000EB
:10347000C3F10803DB0070B50133002403A500BFCE
:103480005B1920C940CAAD1B20C0184720C940CADB
:10349000B54120C020C940CAB54120C020C940CA9A
:1034A000B54120C020C940CAB54120C020C940CA8A
:1034B000B54120C020C940CAB54120C020C940CA7A
:1034C000B54120C06441B4FA84F0400970BD00BF2A
:1034D0004A11012350F8220001F01F0103FA01F103
:1034E00008407047F0B5082289B00C460646FFF741
:1034F0006BFECB6A03930B6B04934B6B05938B6B47
:103500000693CB6B0793002708236A4669466846F3
:10351000029701970097FFF7ABFA082305466A4622
:1035200031463046FFF7A4FA236B0393636B049391
:10353000A36B0593E36B0693054408236A4669462B
:1035400068460797FFF794FA082305446A46314610
:103550003046FFF78DFA236A0093636A0193A36AEA
:103560000293A36B0693E36B0793054408236A4613
:1035700031463046059704970397FFF779FA636A57
:103580000093A36A0193E36AA26B0293636B0393B4
:1035900004920693E26B236A0592054407936A46F8
:1035A000082331463046FFF763FAE36A0093236B42
:1035B0000193636B0293236A0693A36A07930544FE
:1035C00008236A4631463046059704970397FFF76C
:1035D0004FFF236B0093636B0193A36B0293E36B29
:1035E0000393636A0693E36A07932D1A08236A46D6
:1035F0003146304605970497FFF73AFF636B009317
:10360000A36B0193E36B0293236A0393636A0493AE
:10361000A36A0593236B07932D1A08236A46314644
:1036200030460697FFF724FFA36B0093E36B0193EB
:10363000636A0393A36A0493E36A0593636B079336
:103640002D1A08236A463146304602970697FFF73F
:103650000FFF2D1A16D508230D4A31463046FFF7C5
:1036600007FA2D18F7D410E0082231460848FFF772
:1036700039FA012809D00823054A31463046FFF7B8
:10368000F7FE2D1A002DEFD0F5E709B0F0BD00BF11
:10369000B886070070B5036813F0010506461446A6
:1036A00005D013460A460146FFF7E2F905462146D2
:1036B0003046FFF77CFD45B104F18042013A56F8EF
:1036C000223043F0004346F8223070BD2DE9F0412E
:1036D00015468AB0044688462022002102A8FEF73B
:1036E000B9FE2E1D95F9007003232A464146204657
:1036F0000293FFF793FB334602AA21462046009728
:10370000FFF79CFB2B46424621462046FFF776FBFF
:103710000097334605F1840221462046FFF7BCFAA4
:103720000AB0BDE8F08100002DE9F041194E4FF4D8
:103730008271D6F8040130B11748C268521CC260C9
:10374000304602F00BFD00254FF4A07707EB850112
:103750008AB23046B258BAB189B202F0FFFC0E48C4
:10376000103000EB0514204604F070FA616819B1BE
:10377000204604F0DBF907E0A16811B1204604F00F
:10378000D5F9206800B180476D1C022DDED3BDE85D
:10379000F081000000400240C057002002F0E2BD6E
:1037A0001B4800B5016841F470010160BFF34F8F01
:1037B000BFF36F8F4FF01022D2F80002002803DB16
:1037C000D2F8040200281FDA012002F0F5FE1521CC
:1037D000C2F800120F480368002BFCD0C2F8041294
:1037E00001680029FCD0002002F0E6FEBFF34F8FF5
:1037F00007487C380168084A01F4E0611143016020
:10380000BFF34F8F00BFFDE705490448086000BDC6
:1038100088ED00E000E401400400FA050090D003C8
:1038200058580020034808B5002101600068009046
:1038300008BD00000001014002E008C8121F08C1D5
:10384000002AFAD170477047002001E001C1121F21
:10385000002AFBD1704700000121202803DA8140B3
:103860000548014003E0402802DA2038814009B1D0
:103870000120704700207047FC06FFBD800701D083
:10388000002070470120704740680068401E0842D1
:1038900001D10120704700207047C3688B4206D8D1
:1038A00011440069491E814201D80120704700205F
:1038B0007047000030B585B00D46164C1621ADF8A6
:1038C00000101ECC0DF1040C8CE81E00124C0221DD
:1038D000012221706270A0700320E07021715920D4
:1038E0006071FE20A071694604F109007DDF0028A7
:1038F0000ED1BDF800002A46411CE1710921217258
:10390000BDF808100844ADF8080001A9034872DFAB
:1039100005B030BD70800700905C0020F857002093
:1039200010B586B00624182208496846FEF777FDD0
:1039300069462046FFF7BEFF002805D1044C2078D9
:1039400074DF0121207873DF06B010BD808007008E
:10395000F857002070B5104CA66C656A01F0D6FCD3
:10396000216B08446A1A3144814200D100220823A5
:1039700000F01CFF06000DD101F0C8FC0022294612
:1039800000F032FCA16A814203D10121A561C4E9A2
:103990000701304670BD00002874002002F046FF89
:1039A00002F044FF2DE9F84F254C8146924660888D
:1039B0000E46814241D800274FF6FF788DF80070FF
:1039C000684600F075F822786078A188884201DAAC
:1039D000401C00E00020C0B2904204D19DF80000DD
:1039E00000F0B2F827E065786078884201DA401C80
:1039F00000E0002060709DF8000000F0A5F845454B
:103A000019D0A068B9F1000F40F835A00DD066B10B
:103A10006188E068324605FB01004946FEF7FFFC7D
:103A2000A06800EBC500868002E000EBC50087803F
:103A30000020BDE8F88F0420FBE70920F9E700002B
:103A40003858002010B50E4C03E0401C00E0002068
:103A5000207020786178814210D022786188E068F7
:103A6000A36802FB010003EBC20153F832208988EE
:103A700090472078A1888842E9DAE6E710BD000087
:103A80003858002030B5CB0008339DB293074FF073
:103A9000000401D0072030BD044B9A602A44DA604C
:103AA0005C701C7058809980002030BD3858002010
:103AB00070B5044603F026FC012803D010A1432072
:103AC00000F086F8EFF3108172B61D4A936801206A
:103AD00083B990604FF0E020D0F88051194B1D4021
:103AE0001560C0F88031D0F8843153604217C0F8B7
:103AF000842100202070002900D162B670BD000032
:103B00002E2E5C2E2E5C2E2E5C2E2E5C2E2E5C63BA
:103B10006F6D706F6E656E74735C6C6962726172EA
:103B20006965735C7574696C5C6170705F757469EC
:103B30006C5F706C6174666F726D2E6300000000C4
:103B40009C7B0020FC06FFBD10B5044603F0DAFBA9
:103B5000012803D00DA1512000F03AF81B498868D4
:103B6000002811D0002C0FD1EFF3108072B60B6833
:103B70004FF0E022C2F800314B68C2F80431002255
:103B80008A60002800D162B610BD00002E2E5C2E87
:103B90002E5C2E2E5C2E2E5C2E2E5C636F6D706F55
:103BA0006E656E74735C6C69627261726965735C78
:103BB0007574696C5C6170705F7574696C5F706C52
:103BC0006174666F726D2E63000000009C7B0020A4
:103BD0001CB56A46ADF800000191002144F20200D4
:103BE000FFF7DCFE1CBD000070B5164E154856F8F8
:103BF000245F846CB168AC2901D024B111E0406B22
:103C000004442D1A05E001F095FB0446B068AC2889
:103C100007D12A46A4F580410B48FEF724FC002872
:103C20000ED02A4621460848FEF71DFC002807D082
:103C300001F08AF929462046BDE8704001F0EEBC4B
:103C400070BD0000287400200020070030B595B03A
:103C5000040004D12E494FF48A60FFF7B9FF2D49C3
:103C60004FF6FF702246488001208DF812004FF673
:103C70005960ADF8100004A90120A8DF002844D144
:103C8000254B0FCB8DE80F00A11C684662DF002892
:103C90003BD121491C2260390BA8FEF7C0FB1F4D08
:103CA000142205F1C401A8681290A0788DF84A008A
:103CB0002868139006A8FEF7B2FB12A8069013A876
:103CC00007902088231D06AA0BA9AADF00281CD173
:103CD0001C2205F1D8010BA8FEF7A1FBE8681290A1
:103CE000A0788DF84A0068681390142205F1F40159
:103CF00006A8FEF794FB12A8069013A80790208848
:103D000004F10C0306AA0BA9AADF15B030BD000010
:103D100058840700F85700204881070040800700BA
:103D2000F0B585B00D46040004D1314940F287104A
:103D3000FFF74EFF25B92E494FF4C470FFF748FF37
:103D400014216846FEF784FB2078032308280BD152
:103D50002848C188491E89B2C1808288002A3ED085
:103D600000293CD1C28023702178607860228DF8D0
:103D700000208DF801108DF80200607803210128E1
:103D80000AD00B2828D100F081FC8DF80300002018
:103D900000F084FC04211FE0207809281CD2DFE811
:103DA00000F01B1B1B201B1B051B2000D4E902700D
:103DB0006D46E91C666803F053FF04462919304636
:103DC000C91C03F04DFF044429193846C91C03F0EF
:103DD00047FF2044C01CC1B2684603F05BFB05B03E
:103DE000F0BDD4E90112684603F043FBF2E700009E
:103DF00058840700F85700202DE9F0411349034685
:103E000000208A68D4071ED0114CA3421BD04888DA
:103E1000A0F57F43FF3B10D042F004028A601321DB
:103E200076DF00280FD10B4EC8254FF47A47741C5B
:103E30003846A0476D1EFAD101E0087874DFBDE86E
:103E4000F04102F02BBABDE8F0810000F8570020E5
:103E5000848707005080070038B5214C0021227A62
:103E6000D20701D0084638BDE0601E4800F0AAFE27
:103E70000020009001F0DEFB88B91B4813DF70B909
:103E800002F036FA58B9684602F06EF938B9694658
:103E9000012002F073F910B9684602F0BFF900285A
:103EA000E1D101F0BFFC30B1104801F0AFFCA068D7
:103EB00040F00200A06000F03DFC0028D3D10B4888
:103EC0001C30FFF7C3FE0028CDD1FFF729FD0028E5
:103ED000C9D1A06840F00100A060002038BD0000FA
:103EE000F85700208C87070000200700B05C0020F6
:103EF00070B50446011D008800226F4D86B0212850
:103F00007ED025DC13287CD018DC01287AD010283C
:103F10005BD011284AD14FF6FF706880287A40079D
:103F200004D4FFF7FDFC08B1FFF73AFDE96800296A
:103F30003CD006B00220BDE870400847142878D075
:103F40001A2877D01F2831D16888091D75DF62E0F3
:103F5000512870D02CDC222828D0232862D0242895
:103F600024D0502822D1554D34F8060FA988884214
:103F70001CD1534800F078FD060017D0628904F187
:103F80000C01FEF74CFA18224E496846FEF747FA34
:103F9000049601956089ADF81400684601F07EFB37
:103FA000002803D03146464800F0C4FD06B070BD7D
:103FB00052287BD0552813D05628F7D1A079002855
:103FC000F4D11321688876DF25E008886880E968E5
:103FD00009B1012088473B4968887A3975DFE5E7F0
:103FE000E188F72914D28807B0F1404F11D0C91FDA
:103FF00089B2481EC21700EB927222F0030202E05F
:1040000033E01CE036E0801A081A801D81B200E01F
:10401000F7216888B5DF0028C8D006B0BDE8704039
:10402000FFF7BEBC00920192A0880022694690DF93
:1040300018E034E03AE021E0FFF7B2FCB6E72148AF
:104040006A46903842F60521806A009002A80190E5
:104050006888ADDF08B1FFF7A3FC00231A4685216D
:1040600068887FDF0028E7D1A0E7009208886946CA
:104070008FDFF7E70021688866DFCCE7A0790028AA
:1040800094D021460D4802F0EFFB00288ED006B0F8
:1040900004F10801BDE87040084802F0CBBA0024E2
:1040A000088822462346214686DFB4E70023088895
:1040B0001A461946B1DFAEE7F8570020CC5C002065
:1040C0008C870700D0800700007800F0010070475F
:1040D00013B90378012B01D001F0B0BC0120704767
:1040E0000022C32100F5187000F07EB82DE9F043DE
:1040F000A1B00446DDE9289520200F46209098467F
:104100001646782102A8FEF7A3F941212046FEF7C2
:104110009FF9B7F8940006EB061107EB8101B04256
:1041200001D991F8965025701DB3012D04D0022DB0
:104130000AD0032D13D116E000224946404600F074
:1041400053F8C4F8010014E020A9601CCDE9000177
:104150004B4642460A4902A800F0AAFF48B1002097
:1041600021B0BDE8F083B1F89820601C9A31FEF7C9
:1041700056F94A464146204601F060FCF0E700004F
:10418000687E070010B500284FF0000006D00449F3
:104190000870BDE81040034801F070BB00F0CEF994
:1041A000B85700203D45070010B543689C1844608F
:1041B00021B905E013F8010B01F8010B521EF9D2E9
:1041C000012010BD10B5040003D10549F020FFF710
:1041D000FFFC0448C16B6160006CA06010BD000072
:1041E000A084070028740020F0B54FF0FF3622B1FC
:1041F0001268D24300230A4D0DE03246FAE7C45C50
:1042000062400824D70700D037462F4087EA520281
:10421000641EF7D15B1C8B42F1D3D043F0BD00008C
:104220002083B8ED10B504460068401C07D0204636
:1042300003F028FA2168814201D1012010BD00203D
:1042400010BD000010B5104C90B06078002818D157
:1042500000F092FF18B10D49DB20FFF7B9FC2022D6
:104260000B49684600F0A8FF40236A4609490A48FE
:1042700000F0D8FE18B10549E520FFF7A9FC0120A0
:10428000607010B010BD000028580020788507002D
:10429000F87D0700D47A0020807E0700F0B514690D
:1042A00006468DB020681546271DE0B1022920D0B2
:1042B0000A2000906B4609AA304603F0A9F80028AE
:1042C0000FD009A901A8009A02F06EFE01AE96E88F
:1042D0000F0005AE86E80F00236869683A4605A816
:1042E00098470DB0F0BD0DB03046BDE8F04002F08B
:1042F000CFBE6946304602F061FE0028F1D0236847
:1043000069683A46684698470028EAD0029800282B
:10431000F5D1019870600120E3E753689B7813F0B2
:10432000C00303D0402B03D00020704700F002B838
:10433000FFF7B4BF2DE9FF410B465168064614460E
:104340008878334D00F00F0210F0300055F82250FD
:1043500006D0102806D0202808D0302856D13EE0BC
:1043600022694DE061690120087047E0022B28D1E5
:10437000042A26D84FF0010869463046676902F0E2
:104380001DFE00281AD009E00B89226903FB0022D8
:104390006846A84770B13888401C3880029820B120
:1043A000616838884A899042EED30198706002981B
:1043B00060BB02E04FF00008F7E7404604B0BDE8FC
:1043C000F081D4E904300F890288498907FB023360
:1043D0008A421BD2521C02801A46616810E008888B
:1043E0006169072A088009D1606801892069FEF7A0
:1043F0002FF860682169C06802F0FBFD22696168DE
:1044000004B03046AC46BDE8F04160470020D5E737
:104410009883070070B51C4801240168C90301D5C1
:1044200081130CE0194801681522C9B2B2EBD10F13
:1044300007D10168C90704D0016801F05601016085
:104440000024134D286A01281CD14FF44050114913
:104450004068884208D123464FF4805105F5187012
:104460006A6BFFF735FE68B100F050FF0146234646
:104470000948AA69FFF72CFE20B101F069FE10F08F
:10448000B10000D0012070BD0004004020050040B4
:1044900028740020DBE5B151C9760020416900296C
:1044A00001D0C068084770477047000010B5044647
:1044B000032806D0042C04D0062C08D0072C09D1E0
:1044C00005E009494FF4701000F02CFC02E00120D7
:1044D000FFF758FE05484168002903D02046BDE893
:1044E0001040084710BD000081480700B857002061
:1044F00010B50446062802D1002001F067FA0448EE
:104500000168002903D02046BDE81040084710BDCF
:10451000F457002010B5FF224FF400710648FDF754
:1045200090FF054820212438FDF792FF0249002022
:104530005C39086310BD000084740020BFF34F8F06
:1045400005480168054A01F4E06111430160BFF3C9
:104550004F8F00BFFDE700000CED00E00400FA05FE
:104560002DE9FC4180461F4615460E4600240D48A5
:1045700000F06CFA38B11120BDE8FC8106EB043084
:1045800001F0ACFD641CAC42F8D1064800F05BFAC7
:10459000CDE90057334600220221404600F02AF8B8
:1045A0000020E9E7485800202DE9F843104D0F4658
:1045B00080461E4691466946286800F018FA0400B5
:1045C00014D01C21FDF744FF01202071C4F8149081
:1045D000380BC4F80080C4E902606946286800F01E
:1045E00027FA02F0F5FE0020BDE8F8830420FBE77F
:1045F000C48107002DE9F04387B00446DDE90E8948
:1046000080681D4616460F4600280BD018216846C4
:10461000FDF71EFF02A88DF8007080E86003A16816
:104620006846884707B0BDE8F08330B504460068A7
:1046300087B00D46806800281FD018216846FDF716
:1046400007FF0195A0680590207910B1012810D1CD
:1046500007E001208DF8000020690290E0680390D7
:1046600005E002208DF80000E06800030290606918
:104670000490206881686846884707B030BD0B28E1
:1046800003D30B38C0B200F009B8704702490022CA
:1046900008780A707047000010580020014908701F
:1046A0000B20704710580020014901200870704706
:1046B000B85700200149012008707047F0570020CA
:1046C00070B515460E46040004D107494FF42E700C
:1046D000FFF77EFA2A46314604F17200BDE87040C9
:1046E000012301F0D9B900007885070010B5040056
:1046F00003D10E49DB20FFF76BFA207818B90B497C
:10470000DC20FFF765FA94F85500094938B1012813
:1047100005D06068C968884205D9012010BD60686D
:1047200089688842F9D24FF0000010BDC0850700AB
:10473000287400200EB59DF8080020F00F00401CE2
:1047400020F0F00010308DF8080068466DDF00287A
:1047500019D19DF80100401C8DF8010068466CDFFE
:10476000002810D10848007A800703D50748011DAA
:10477000806901E006A1162082B202A87CDF002831
:1047800001D109487ADF0EBDF8570020B05C002047
:1047900071636F6D5F736B75345F6D617374657298
:1047A0004E6F726964630000568007002DE9F04780
:1047B0000646984615468946B14203D14FF000009F
:1047C000BDE8F08704D22C494FF04F00FFF700FA04
:1047D000B8F1000F03D128495020FFF7F9F930054F
:1047E00003D025495120FFF7F3F9A9EB0600040B8C
:1047F00003D121495420FFF7EBF905F6FF704FF084
:10480000000A070B00F0B4FB4046A0452FD2044637
:104810002DE0A74202D8BA46A84602E0A2464FEAD7
:10482000043800225146304600F0BEFE0028C7D1B1
:10483000A8F1010000F00301A8EB010200234946A2
:104840003046D21C00F0C6FE0028B9D10B49A7EBB8
:104850000A07A5EB08050A6B464402EB080008634B
:10486000C144002001F09EF85FEA000AA8D1002DA3
:10487000CFD15046A4E70000088407002874002028
:104880000120FFF77FBC0000014941600020704714
:104890009881070010B50B4941600B4800F0D6F82D
:1048A00068B901F077FD08491C234FF4EE720874D3
:1048B0000448A1F5EE71001F006800F085F80020A3
:1048C00010BD0000C8810700947D002002480068E8
:1048D000002800D001207047485800200248007A84
:1048E000002800D001207047947D002010B54FF4BF
:1048F0004051144B4C6800F500509C4204D0426873
:104900009A4201D1012200E000229C4218D1446861
:104910009C4215D10A78142A01D9496900E0002186
:10492000094A0378B1FBF2F1142B01D9406900E088
:104930000020B0FBF2F0814201D0012200E0002211
:10494000104610BDDBE5B15140420F0070B5054681
:1049500008680C464A6886682846314602F06AFABA
:104960006068286104F10C006861B0780221B1EB45
:10497000901F01D1241D2C6170BD000010B50022D4
:104980004FF48051104600F0E1F950B90848002278
:10499000C0F5FC2100F0DAF918B9064800F04CFA2D
:1049A00008B101F043FF00F065F9002010BD0000E0
:1049B00000200700A944070010B5FDF77AFC08B1F4
:1049C000002010BD112010BD10B531B1B2FBF3F4C1
:1049D00003FB14241CB1092010BD0E2010BD016082
:1049E0000021416081608281C381084610BD70B59D
:1049F0000C460546FDF712FC002802D021882868E5
:104A0000084470BD10B50A8849888A4203D1FDF771
:104A100047FC012010BD002010BD70B50C460546B6
:104A2000FDF721FC002802D061882868084470BD89
:104A300010B50A8849888A4203D1FDF70BFC012092
:104A400010BD002010BD002100F003B8012100F0CE
:104A500006B808B56A46FDF75EFC009808BD08B5C3
:104A60006A46FDF74BFC08BD38B5040004D115A11A
:104A70004FF49270FFF7ACF800258DF800506846AF
:104A8000FFF716F8206862680168914214D9491E40
:104A900001600D781CB919A1E820FFF799F8208A68
:104AA000E16805FB00152068217A0278891A0279ED
:104AB000C9B28A4200D201719DF80000FFF744F8A4
:104AC000284638BD2E2E5C2E2E5C2E2E5C2E2E5CA3
:104AD0002E2E5C636F6D706F6E656E74735C6C69A7
:104AE000627261726965735C62616C6C6F635C6E4B
:104AF00072665F62616C6C6F632E63002E2E5C2E9B
:104B00002E5C2E2E5C2E2E5C2E2E5C636F6D706FD5
:104B10006E656E74735C6C69627261726965735CF8
:104B200062616C6C6F635C6E72665F62616C6C6F0D
:104B3000632E630038B50C46050004D112A140F283
:104B40004710FFF745F824B90FA14FF4A470FFF701
:104B50003FF800208DF800006846FEF7A9FF1DB958
:104B60001749F520FFF734F8E8682A68211A288ADF
:104B7000B1FBF0F11068431C136001709DF8000058
:104B8000FEF7E2FF38BD00002E2E5C2E2E5C2E2E8E
:104B90005C2E2E5C2E2E5C636F6D706F6E656E7476
:104BA000735C6C69627261726965735C62616C6C82
:104BB0006F635C6E72665F62616C6C6F632E630024
:104BC000FC4A070010B5040002D0206830B901E0AB
:104BD0000E2010BD19A1FF20FEF7FAFF606820B972
:104BE00016A14FF48070FEF7F3FFA06820B913A15F
:104BF00040F20110FEF7ECFFE06820B90FA14FF47E
:104C00008170FEF7E5FF208A20B90CA140F2031065
:104C1000FEF7DEFF207A61682268401AC0B2116098
:104C200004E0226811684B1C13600870401EC0B27B
:104C3000F7D221680020087110BD00002E2E5C2ED6
:104C40002E5C2E2E5C2E2E5C2E2E5C636F6D706F94
:104C50006E656E74735C6C69627261726965735CB7
:104C600062616C6C6F635C6E72665F62616C6C6FCC
:104C7000632E630010B54FF0E0224FF0FF314FF488
:104C80008054C2F88011C2F8801200F0DFFC204688
:104C9000BDE81040AFF3008070B505461E4888B0EF
:104CA000C0F5FE21002200F051F800F02FFB1B4957
:104CB000002289690144104600F048F8EFF30580AE
:104CC000D5E90045C005C00D4FF0FF364FF000019B
:104CD00081F3148881F3108881F3118881F313889C
:104CE00012D020220E496846FDF799FB203C202275
:104CF000694620460695FDF792FBB21F31462046D5
:104D0000FDF788FA08B070BD08B02A463146204643
:104D1000BDE87040FDF77EBA00200700287400202F
:104D2000387E070070B5084D04460E46686802F0EC
:104D30008DFF002C06D0324621466868BDE87040E1
:104D400002F076BF70BD0000C0570020F0B50A0524
:104D500002D1B0F5FE2F01D90720F0BD134D000B95
:104D6000491E124F01222E1D103700EB113407F19E
:104D7000040C17E04309C3F1000100EB411E02FAE5
:104D80000EF106D0012B06D0022B06D0032B08D142
:104D900005E0296005E0316003E0396001E0CCF80E
:104DA0000010401CA042E5D90020F0BD00060040E4
:104DB00070B51D4D0024E86A2435012807D0A528C8
:104DC00008D0AA2809D0AC280AD0002070BDFEF770
:104DD000C1FD0BE002F07CFB07E0FEF705FF05E0FC
:104DE00002F076FB08B9FEF7FFFE0124284600F02A
:104DF000B1FA0E4E002030700D4800F0D3FD05468C
:104E0000307820B90B494FF4D170FEF7E1FE0DB1B7
:104E1000032070BD0120002CFBD00349096A012941
:104E2000F7D1022070BD000028740020F057002048
:104E3000B54607000884070070B52D4D6860002056
:104E400000F022FD80BBFFF7B3FF20B1012828D07E
:104E500002283CD105E04FF47014FFF7DBFA10B9DB
:104E600032E04FF4A02400F083F8224A20211820D9
:104E7000FEF708FE08B1FEF793FD01F069F916216F
:104E8000B1EBD00F09D101F063F9C00705D001F0F3
:104E90005FF9194920F0B100086000F0BDFB18B9B6
:104EA00003E00120FFF76EF911E014492046FFF7F7
:104EB00039FF134800F09AFB48B900BF00F044F8EE
:104EC000FEF7C0FD41DFF9E700F086FC08B10320E2
:104ED00070BD002028700B4800F0D0FC287820B965
:104EE00009A140F2FD10FEF773FEFFF7C3FEEEE7E7
:104EF000B8570020705800201C050040814807006A
:104F0000AD440700A94607002E2E5C2E2E5C2E2EE7
:104F10005C2E2E5C2E2E5C636F6D706F6E656E74F2
:104F2000735C6C69627261726965735C626F6F74E5
:104F30006C6F616465725C6E72665F626F6F746CD9
:104F40006F616465722E630010B501F02DFB0028BF
:104F500003D0BDE8104002F0E1BE10BD034A9368E3
:104F60000A4601469860184602F062BEC05700200B
:104F700070B50E4D2878002817D101F015FB0126D9
:104F800090B10B480468A4F54864962C00DA962486
:104F900002F0C4FE07492046FFF7E0FF4FF0E02192
:104FA0004FF48030C1F800012E7070BDF157002021
:104FB00004050140597D070040688068004710B52E
:104FC00042680830527900F0F7F8002010BD2DE952
:104FD000F04399B01C4690460D460846DDF8809097
:104FE000FFF7EAFF6E6807467079A04200D80446D2
:104FF0002246414611A800F01BF97279494601A8E2
:1050000000F0DAF801AB224611A905F1080000977B
:10501000FDF7C8FB18B1002019B0BDE8F08348F2D5
:105020004250F9E770B516460C46054600F0E8F820
:1050300000280ED1AA791946304600F0EEF8002873
:1050400007D131462046FFF7BAFF002801D10149B8
:10505000216070BD7052464D2DE9F84F6C460D46EB
:10506000D4E90A688246994617461049284600F056
:10507000BBF80028A54613D1686841464079420034
:10508000304600F0CAF80028A54609D157B182B0D1
:105090004B463A46294650460096FFF798FFA546EC
:1050A000BDE8F88F48F21050A546F9E77052464D1A
:1050B0002DE9F0411D46DDE906871646044600F05D
:1050C0002DF800280DD12A463146204600F03CF844
:1050D000002806D13A4641462046BDE8F04100F09E
:1050E00002B8BDE8F08170B515460E46044602F0E0
:1050F00005FE002807D13EB160682968C268914268
:1051000005D248F2145070BD48F2135070BD836848
:105110002A4631462046BDE87040184710B550B1C8
:1051200061B14160096804468847002802D10548FA
:105130002060002010BD48F2015010BD48F2105010
:1051400010BD00006E52464870B515460E46044626
:1051500002F0D4FD00280BD146B155B160682A4653
:10516000314643682046BDE87040184748F2105069
:1051700070BD002070BD00002DE9F0410B480C4DC2
:105180000C4F401BC60801203870002406E000BF09
:1051900055F834008047002805D1641CB442F7D389
:1051A000022038700020BDE8F081000000000000FF
:1051B00000000000F257002070B514460D46064668
:1051C00000F036F8291930192246BDE8704000F089
:1051D0002FB870B50C46054600F064F82819214632
:1051E000BDE8704000F05EB828B10068884205D084
:1051F00048F24050704748F2105070470020704706
:1052000028B139B10022C1E900201046704748F2A8
:105210001050704748F21350704720B1914205D0AA
:1052200048F21150704748F2105070470020704704
:1052300070B516460C46050003D10AA14520FEF7BD
:10524000C7FC1CB907A14620FEF7C2FCA919491EDC
:1052500004E000BF14F8010B01F80109A942F9D2DA
:1052600070BD00002E2E5C2E2E5C2E2E5C2E2E5C31
:105270002E2E5C636F6D706F6E656E74735C6C69FF
:10528000627261726965735C63727970746F5C6E6F
:1052900072665F63727970746F5F73686172656460
:1052A0002E63000070B50D46040003D107A1332022
:1052B000FEF78EFC6019401E05E02178027804F8A4
:1052C000012B00F80119A042F7D270BD2E2E5C2EE2
:1052D0002E5C2E2E5C2E2E5C2E2E5C636F6D706FFE
:1052E0006E656E74735C6C69627261726965735C21
:1052F00063727970746F5C6E72665F6372797074DA
:105300006F5F7368617265642E6300004FF44050F4
:10531000074A4168914207D18068411EC1F30B01E1
:10532000401A00F6FF7070474FF48050704700003D
:10533000DBE5B15100B5FFF7E9FF054989690A18B6
:10534000401E0844C0F30B00101A00F6FF7000BDA9
:1053500028740020002101604160816001480163E0
:1053600070470000287400202DE9FF5FDFF8A88057
:105370009346894682460024A8F540570126B4B1D9
:10538000012C1FD0022C2CD02449AC20FEF720FC8D
:105390000025BD4203D92149B120FEF719FCA8EB35
:1053A0000500A0F5405050451ED201211DE0FFF739
:1053B000C1FF0546BBF1000F11D01948006A012852
:1053C0000BD00CE0FFF7A2FF0546039828B94FF475
:1053D000405014494068884201D00126D9E7002690
:1053E000D7E74FF48055D4E7002141EA0900B043E4
:1053F00005D0022C03D2641CE4B2022CBED919B130
:10540000042004B0BDE8F09F1CB105481830FFF738
:10541000A1FF0020F5E70000002007003485070009
:1054200028740020DBE5B15170B50C46050004D1AD
:105430002F494FF4AC70FEF7CBFB24B92C4940F256
:105440005910FEF7C5FB287809284AD2DFE800F09A
:105450004905491B234941491D0025B924494FF4F9
:105460008270FEF7B5FB24B9214940F20510FEF722
:10547000AFFB20490320C9688847686900F074FBC6
:10548000FFF7FDF823E0204627E021462846BDE847
:10549000704001F09DB825B915494FF49670FEF79C
:1054A00097FB24B9124940F22D10FEF791FB1149E8
:1054B0000831081F00F072FBFFF7E1F86070012867
:1054C00006D1002000F06EFA002801D00A2060709A
:1054D00070BD4FF400712046E160BDE87040FEF7FA
:1054E00071BEBDE8704002494FF4BC70FEF770BB5E
:1054F000A08407001458002070B50C46060004D1A3
:10550000264940F27520FEF763FB24B9234940F297
:105510007620FEF75DFB30780125214A092835D237
:10552000DFE800F03405340F14342C340A0021462F
:10553000304601F0B7F82EE02146304601F028F958
:1055400029E0906CA060106D606024E0D2E9141333
:10555000556CCB1A30469D4203D00820607001255F
:1055600019E000255564936CD3645165294601F018
:10557000D3F80C490420C96888470CE0906CA060FF
:10558000106D60604FF48050E06004E0034940F229
:105590009720FEF71DFB284670BD0000A084070081
:1055A000287400201458002013460A46014601487A
:1055B00000F0F0BB5C58002008B1034900E003494B
:1055C0000022034800F046BCD4810700A4810700F4
:1055D0005C58002008B5009313460A46014602486D
:1055E00000F000FD08BD00005C580020084910B51F
:1055F00008600020FEF77CFF064800F001FA002852
:1056000004D1BDE81040034800F026B810BD0000EA
:10561000F4570020F1440700002070471FB58908A7
:10562000002201AB009283E80700684618DF04B04F
:1056300010BD00001FB5044B0FCB8DE80F0068466E
:1056400018DF04B010BD0000588107004FF48050EF
:10565000410408600020704710B5040011D00120FB
:10566000FFF7AAFF00280BD100F048FA00F0D8FAA3
:1056700048B10949081F00F091FA012803D003201E
:1056800010BD072010BD04480838C4600020FFF793
:1056900005F8002010BD00001C580020816819B1D9
:1056A000024A1821FEF77EB907207047B15607005D
:1056B000AFF3008030B50446806887B020B9244934
:1056C00040F2CF20FEF784FA182222496846FCF700
:1056D000A6FE20788DF8000022781F4D0D2A34D2C6
:1056E000DFE802F0330B260B0B330B330B33333372
:1056F0000700E968072088471AE020466946062A1D
:1057000001D0012A01D1027C2A702A78012A08D00E
:10571000022A09D0002028705FF005008DF80100F2
:1057200006E0FFF781FE03E0FFF7E6FE00280AD05F
:10573000D4E90112684690479DF80100012802D083
:10574000E9680520884707B030BD0220E6E7000081
:10575000A0840700808107001458002038B1054953
:1057600001600549416001210172002070470E204F
:10577000704700007D570700B557070010B50C00B3
:1057800001464FF0110007D02278052A05D2DFE844
:1057900002F00F050D0F0F000E2010BD084600F09F
:1057A00051F80028F9D10221217010BD112010BD3F
:1057B000082010BD0246082041B10B78022B04D10D
:1057C000022A05D0032A00D1112070470E2070470D
:1057D000002003220A70704770B50B480024D0F8EF
:1057E0002413491C03D1D0F86403401C09D04FF4A2
:1057F000FE25284600F072FCC9220349284600F025
:1058000085FC204670BD00002874002010B528B12A
:105810001C220349FCF703FE002010BD0E2010BD22
:1058200064F3070010B5064C00221821201DFEF776
:10583000DBFC2168814201D1012010BD002010BD98
:1058400064F3070070B50C4D0400D5F8640305F54A
:10585000597503D0401C03D0082070BD0E2070BDC8
:1058600000221821201DFEF7BFFC206007222146E0
:10587000284629DF70BD000000F00700014901F053
:10588000E5BE000000F007002DE9F047FFF794FEA9
:10589000002860D13148FEF7C5FC314E0746346818
:1058A0002046FEF7BFFC4FF0010A4FF0000958B147
:1058B0006068012806D02046FEF712FCD4F85C127E
:1058C000884201D1012500E00025264C4FF460718B
:1058D0004FF002089FB10A4620492046FCF79FFD81
:1058E0009DB1366825465422311D281DFCF797FDD1
:1058F0004FF4327206F15C0105F15C0003E045B142
:105900000A4618483168FCF78AFD6068012804D00F
:105910001CE01448FCF79CFD16E01349402201F5F9
:10592000E470FCF77CFD10491C22403101F5E47065
:10593000FCF775FD84F8609284F8A1A20B4884F806
:10594000E292E169C0F82210C4F80480002000F05F
:1059500029F8002800D00320BDE8F08700F00700F8
:10596000245800202874002084750020A876002088
:1059700070B50546094801F085FE084C20602046B8
:10598000FEF7AEFBC4F85C02A4F5E0632A462146AC
:10599000BDE87040024801F07BBE00002874002082
:1059A00000F0070070B505460020FFF7E1FF040096
:1059B00003D10349284601F049FE204670BD00008E
:1059C000287400204FF48050704700002DE9F0410A
:1059D00007460948094D401BC6080020044607E059
:1059E00005EBC400416838468847002802D1641C92
:1059F000B442F5D3BDE8F0818C87070084870700A7
:105A00002DE9F04107460948094D401BC608002012
:105A1000044606E055F8341038468847002802D17D
:105A2000641CB442F6D3BDE8F08100008C87070007
:105A300084870700012201F059BB000038B51446E5
:105A400002780B4692B1012A09D0022A10D0032A0B
:105A500016D010494FF47770FEF7BAF818E0D0F876
:105A60000150002221461846FEF7BEFB012038BD3A
:105A700001B02246BDE830400023401C00F00CB8C5
:105A8000411C40220020009400F0F4F80128EED0E0
:105A9000002038BD788507002DE9F041AAB0054601
:105AA0002020884628901E4617460124782102A807
:105AB000FCF7CEFCFEF7C6FB2EB12022294620A81B
:105AC000FFF7B6FB20AD28A90A48CDE900013B4607
:105AD0004246094902A8FFF7EBFA28B920222946D5
:105AE0000448FCF7C0FC00B100242AB02046BDE801
:105AF000F08100007C7B0020687E070010B506481E
:105B0000064C806B20B101F0ADFF08B1012000E030
:105B10000020207010BD00002874002028580020AC
:105B20002DE9F0410F4C07460D46E06BA26B0126B4
:105B30004119914201D9032610E00A492A465C31F5
:105B400008443946FCF76BFCE06B064A2844E063E6
:105B5000403229463846FEF747FB20643046BDE810
:105B6000F08100002874002070B504004FF001059A
:105B700004D0B4F5007F03D9042508E0032506E02E
:105B8000044900200870FEF7C5FC034884632846DA
:105B900070BD000028580020287400202DE9F04135
:105BA00006461D480F46C16B806B814201D0082418
:105BB0002FE01A4D287840B1FFF7BCFB3060394622
:105BC000E86802F06FF8044623E001F04BFFF8B1FB
:105BD00000F02CF80446002030603860012C0FD112
:105BE0003946E86802F05EF80446012808D13868B2
:105BF000012700213B460A46FFF7B6FB18B10424F3
:105C0000FEF788FC05E0FFF795FB30602F7000E0A1
:105C100005242046BDE8F081287400202858002083
:105C200001480078704700002858002038B50F4C14
:105C3000251D002094F86C31014602463BB194F8D2
:105C4000D802B4F8DA2204F5B87504F53771084BB8
:105C50009C6800945B6800F00DF8012804D1281DB1
:105C6000BDE8384000F050B838BD0000A8770020EB
:105C7000285800202DE9F041A2B0064620200D460C
:105C800020901F461446DDF8A080782102A8FCF77A
:105C9000DFFB00202190FEF7D5FA25B12EB11620AA
:105CA00022B0BDE8F0811320FAE720A91448CDE91D
:105CB000000143463A46134902A8FFF7F9F908B92B
:105CC000402C01D00A20EBE70D48224629464038F7
:105CD000FCF7A5FB0A4820214038FFF77AFA08486C
:105CE00040214038CDE90001A0F14801044A21A833
:105CF000209BFFF7B1F908B10520D1E70120CFE7DC
:105D00005C7B0020687E070070B504004FF0010541
:105D100003D11F49C420FDF75BFF94F8540078B30A
:105D200094F8550028B1012803D0022801D0032897
:105D30002BD11CB91649A320FDF74AFF94F86E0039
:105D4000032801D0142521E094F8920010B194F8B2
:105D50009300D8B9207A98B1E068342801D0112591
:105D600014E0204601F000FC30B1207848B1204614
:105D7000FEF7BCFC10B109E0122507E0102505E094
:105D800003E094F85500012800D00F25284670BD87
:105D9000C08507002DE9F0411E4615460F46040058
:105DA00003D11DA19E20FDF713FF206818B91AA189
:105DB0009F20FDF70DFF1DB917A1A020FDF708FFDB
:105DC00039462046FDF760FD40B939462046FDF7CB
:105DD0005BFD18B910A1A320FDF7FAFE60683946F3
:105DE000026820466A43FDF758FD58B96068394695
:105DF000026820466A43FDF750FD18B906A1A520A8
:105E0000FDF7E6FE206833462A46D0F810C0394632
:105E10002046BDE8F04160472E2E5C2E2E5C2E2ED3
:105E20005C2E2E5C2E2E5C636F6D706F6E656E74D3
:105E3000735C6C69627261726965735C6673746FBE
:105E4000726167655C6E72665F6673746F726167BC
:105E5000652E630070B516460C46050003D108A1F7
:105E60005520FDF7B5FE1CB905A15620FDF7B0FE83
:105E70002C60314628462268BDE87040104700007B
:105E80002E2E5C2E2E5C2E2E5C2E2E5C2E2E5C6317
:105E90006F6D706F6E656E74735C6C696272617247
:105EA0006965735C6673746F726167655C6E726658
:105EB0005F6673746F726167652E63002DE9F04150
:105EC00028B1016819B1C969BDE8F04108470D4D15
:105ED0000D480024461B14270DE000BF04EB84008E
:105EE00005EB8000016829B1C969884710B101201C
:105EF000BDE8F081641CB6FBF7F0A042EED80020AC
:105F0000F6E700005C58002070580020044801218A
:105F10004174007A08B100207047012070470000EA
:105F2000947D0020012801D0032808D104490022D3
:105F300001284A7400D00020087401F0FBB97047B2
:105F4000947D002070B50146022801D0032943D179
:105F5000224C207A00283FD0012831D002282FD1AE
:105F60001F4800230229006802D0032928D119E024
:105F7000E360027912B1012A22D10BE0D0E9056574
:105F8000721B142A00D314222A4482614569AA4252
:105F90000ED015E00169491C0161426991420FD19F
:105FA000237213E0E268521CE260082A08D9E36019
:105FB000237202290AD00D21FEF737FB01F0B0F958
:105FC000607C28B1BDE8704000F0EAB90021F3E739
:105FD000BDE8704001F0AEB970BD0000947D0020B6
:105FE0004C5800202DE9F8431D46089F1646884668
:105FF000040003D12AA18820FDF7EAFD1EB928A1DB
:106000008920FDF7E5FD206818B925A18A20FDF754
:10601000DFFD1DB922A18B20FDF7DAFD6068406825
:10602000B5FBF0F100FB115141B1B5FBF0F100FB04
:10603000115018B11AA18E20FDF7CAFD4046FDF798
:106040001DFC38B94046FDF719FC18B914A1912080
:10605000FDF7BEFD3046FDF711FC38B93046FDF7BF
:106060000DFC18B90EA19220FDF7B2FD2A4641465B
:106070002046FDF712FC48B92A4641462046FDF766
:106080000CFC18B906A19320FDF7A2FD009720682B
:106090002B463246C76841462046B847BDE8F883DC
:1060A0002E2E5C2E2E5C2E2E5C2E2E5C2E2E5C63F5
:1060B0006F6D706F6E656E74735C6C696272617225
:1060C0006965735C6673746F726167655C6E726636
:1060D0005F6673746F726167652E630009490222FF
:1060E0000A60BFF36F8FBFF34F8F0A1D1060064821
:1060F0000268002AFCD000200860BFF36F8FBFF356
:106100004F8F704704E5014000E4014070B50E4C2C
:1061100001232360BFF36F8FBFF34F8F00230B4D1D
:1061200008E000BF51F8236040F823602E68002E7D
:10613000FCD05B1C9342F5D300202060BFF36F8F2F
:10614000BFF34F8F70BD000004E5014000E4014043
:1061500001480068C0B270471C05004008B5002225
:1061600042504058009008BD20B1034909680160C1
:10617000002070470E2070476C830700FEB506466E
:106180000D460846FFF7F0FF002845D10024009493
:106190000194012706208DF80060ADF804000294F8
:1061A0008DF80270694620202A6869DF00948DF816
:1061B00001708DF80240019402948DF80340694605
:1061C00040202A6869DF00948DF80060F720ADF860
:1061D000020001940294694623202A6869DF009432
:1061E0000A208DF8000001940294694601202A6873
:1061F00069DF4FF4B0600090019402946946A120D9
:106200002A6869DF0094019402948DF80040694681
:10621000A0202A6869DF0020FEBD000060DF0028A2
:1062200002D1024A01211170704700005758002026
:1062300030B51848ADF5017D0078002826D04FF420
:10624000FA7400BFADF8004280A9684661DF38B13A
:1062500005281BD00DF5017DBDE83040FDF7A0BB42
:106260006D460D497DA800F0F1F809E07DA800F029
:10627000D5F8D0E90021284690477DA800F024F900
:106280007DA800F0CBF80028DCD0EFE70DF5017D0C
:1062900030BD00005758002070830700F8B5134C3C
:1062A0002078C0B10120A07001F09AF9112814D013
:1062B000022001F0B1F900258DF800506846FDF785
:1062C000F7FB11DF064625709DF80000FDF73CFC4A
:1062D0002EB13046F8BD0820F8BD0020F8BDA570ED
:1062E00001F078FB032001F097F9F6E754580020FD
:1062F0007CB5194C207808B108207CBD0120A07025
:10630000002001F06DF9112819D0002001F084F966
:1063100012480026006801908DF800606846FDF77D
:10632000C7FB0F4901A810DF05000AD0002020702C
:106330009DF80000FDF708FC2DB128467CBD00202B
:106340007CBD0120F3E7A670667001F05FFB0120C1
:1063500001F062F9F3E700005458002004830700BD
:106360009D3907000EB50A49684600F06FF808E04D
:10637000684600F047F8D0E900108847684600F00A
:10638000A3F8684600F03EF80028F1D10EBD0000E9
:10639000208307000148007870470000545800200F
:1063A0000548817819B1007818B1FFF777BF082048
:1063B0007047FFF79DBF0000545800201FB5684686
:1063C0004BDF30B1052819D004B0BDE81040FDF70F
:1063D000E7BA0B4901A800F039F809E001A800F07C
:1063E00029F8D0E900210098904701A800F06CF846
:1063F00001A800F01FF80028E1D0EFE71FBD000062
:106400008C83070010B5040003D10349C420FDF7B5
:10641000DFFBA06810BD00006086070010B5040017
:1064200003D10349C420FDF7D3FBA06810BD0000D1
:106430006086070010B5040003D10349C420FDF7AE
:10644000C7FBA06810BD00006086070070B50D4650
:10645000040003D108495020FDF7BAFB1DB90649D5
:106460005120FDF7B5FB2560286860602046BDE837
:10647000704000F003B800000C86070010B504005F
:1064800003D110493320FDF7A3FB206818B90D494B
:106490003420FDF79DFB606818B90A493520FDF7E7
:1064A00097FBD4E900104A68904201D1002004E033
:1064B000D0E900239A4202D01046A06010BD0830F7
:1064C0006060F0E70C86070010B5040003D11249A4
:1064D0006320FDF77DFB206818B90F496420FDF7A4
:1064E00077FBA068002815D0216889680844A0605F
:1064F000606818B908497320FDF76AFBD4E9010107
:106500004268914206D1083060602046BDE81040E4
:10651000FFF7B4BF10BD00000C8607002DE9F04165
:1065200004461348134BC01A0C21B0FBF1F6A069C6
:106530004FF0FF3110F8022C02B92169002011E060
:1065400000EB400503EB85052F68974209D14F1CEE
:1065500002D06F688F4204D194E80F00AD68A8475D
:1065600003E0401CB042EBD301202060BDE8F08185
:10657000DC870700D087070010B514461268083082
:10658000202A02D248F2145010BD002201F0B0F8C7
:106590000028F9D120202060002010BD083001F033
:1065A0002FB9083001F0ECB902480068002800D08B
:1065B0000120704700040140034908600348016856
:1065C0000029FCD07047000004E5014000E40140D0
:1065D00070B50D46040004D115494FF48970FDF7DC
:1065E000F7FA206920B9124940F21310FDF7F0FACA
:1065F000A08A20B90E494FF48A70FDF7E9FA25B94F
:106600000B4940F21510FDF7E3FAA18A2069FFF764
:1066100087FAFEF734F868702846FDF7D3FDE16885
:10662000002903D02069BDE87040084770BD000014
:10663000A084070030B587B00C46054618221649DD
:106640006846FBF7ECFE217B14488DF8001001959D
:10665000012906D0022915D0062917D1607B0490A4
:1066600014E08188C180607B0490617CD4F80E00C6
:1066700061F31F6005900498012807D10848FFF7CF
:10668000A5F903E0B4F80D108180C1806846FFF7DA
:1066900005F807B030BD0000A8800700F8570020BB
:1066A000848707002DE9F0410C460546FFF7B8FA4C
:1066B0000826B8B16969032041B3154A154B0F0587
:1066C00005D0576DD3F808C00F4467451ED1B1F50A
:1066D000805F01D9042019E0506DD3F808C0471835
:1066E000674502D96670BDE8F0815164D16C1065D0
:1066F0009164106369695A6801F6FF711044090BCF
:106700000022FEF751FF0028EDD005206070EAE777
:10671000287400201458002010B5044686B00020CC
:10672000FFF7CCFB30B1154A18212046FDF73AF9A6
:1067300006B010BD182212496846FBF770FE1148DA
:10674000026D114881688A4210D14068FFF772F9E2
:106750008DF80100FDF793FF8DF80100D4E90112D7
:10676000684690470948FFF71DF9E1E701208DF8D9
:106770000100D4E9011268469047D9E7196707007C
:106780006881070028740020145800202168070041
:106790002DE9F0410E460546FFF742FA60B11D4C67
:1067A000D4E91401401AA98A626C0844904205D9C0
:1067B00003207070BDE8F0810820FAE7164A206BCC
:1067C000526800EB0208134A28694832FDF70CFDB5
:1067D0000746E86820B911494FF4F870FDF7F8F959
:1067E000D5E90331AA8A4046FEF7F4FE20B1D5E987
:1067F0000310BDE8F0410847A98A206B08442063D4
:10680000A98A206DA76408442065B760206D706078
:10681000D0E700002874002014580020A08407004E
:1068200001490620C9680847145800200948006833
:10683000C00700D000BEBFF34F8F0648E4380168A0
:10684000054A01F4E06111430160BFF34F8F00BFBF
:10685000FDE70000F0ED00E00400FA050146014804
:10686000FEF768B98C87070030B58A1D8B7908312F
:1068700087B0022B33D153888489A3422FD1127A57
:10688000012A2CD1184C0DF1040C3CCC8CE83C00B6
:106890000A89ADF80C204A890C3104911249ADF8EF
:1068A0000E208039114C096A0591CDF818D0018A63
:1068B00005AA6088ADDF18B96846FDF705FC38B158
:1068C0000020ADF8080001A96088B0DF50B106E0F3
:1068D00040F2FD10ADF8080001A96088B0DF00208B
:1068E00007B030BD0120FBE7C0800700F85700204B
:1068F000F8B50D4614460646694600F057FA0028DA
:106900000FD0009BB3F5803F0AD2981C834207D872
:10691000A9780222B2EB911F02D02989814201D2CB
:106920000020F8BD2380A11C3046009A00F074FBC3
:10693000F8BD114600F0D6B8114600F0E3B8F8B53E
:106940000C4615460646694600F030FA00280CD081
:10695000009A501C904207D3A1780223B3EB911FF9
:1069600002D02189814201D20020F8BD294630465B
:1069700000F052FB009A0021A954F8BD2DE9FF4117
:106980000C46CE6817460546694600F017FB0028FE
:106990000ED0E06800280BD0A0783A46C0F3011072
:1069A00002283146684606D000F0DAF8019969609D
:1069B00004B0BDE8F08100F086F8F7E77CB50D463D
:1069C0001446694600F08FF9002820D0288908284D
:1069D00006D0042809D002280AD001280CD015E0DE
:1069E000DDE90001C4E900010AE00098206006E04A
:1069F000009800B2208002E0009840B22070C117D9
:106A0000DDE9002350405940084301D000207CBDFF
:106A100001207CBD7CB50D461446694600F0A1F905
:106A2000002820D02889082807D00021042809D070
:106A300002280AD001280CD014E0DDE90001C4E9E5
:106A4000000109E00098206006E0009880B22080F4
:106A500002E00098C0B22070DDE9002350405940A8
:106A6000084301D000207CBD01207CBD7CB50D46D3
:106A70001446694600F075F9002821D029890829B3
:106A800008D00098C21704290BD002290DD0012983
:106A90000ED014E0DDE90002C4E90002014613460D
:106AA00009E0C3170146206005E001B2218001E042
:106AB00041B22170CB1741405340194301D000200F
:106AC0007CBD01207CBD70B50D46064614461146BE
:106AD000284600F08EFA224629463046BDE870402E
:106AE00000F03EB838B50C460422694600F094FA2E
:106AF000002806D09DF80310009861F31F60206005
:106B0000012038BD1CB50C460822694600F084FA05
:106B1000002824D09DF801109DF800209DF8023037
:106B2000080E42EA012242EA034240EA13409DF87D
:106B300003309DF8041040EA132008439DF8051027
:106B400042EA036240EA01209DF8061040EA014053
:106B50009DF8071040EA0160C4E9002001201CBD37
:106B60002DE9F04F04469DB00020009006460190AC
:106B70004FF0FF3A0AA800F05DF94FF0010BE9462B
:106B800082E012AB05AA06A9204600F0C9F850B170
:106B90000AA8059900F05FF960B10B98807810F0B1
:106BA000300F53D060E09DF84800002870D11DB030
:106BB000BDE8F08F0598B04242D30B9D0AAE0B980A
:106BC000807800F00F00082812D0304600F05AF903
:106BD0000B98A842F3D156460599B14230D3D4F868
:106BE000088009919DF8181008910E990D6820E011
:106BF0000B980688F0E729680F682FB1DDE90832A5
:106C000029462046B84711E011948968DDE90872E9
:106C1000098891420CD1294617A8FDF797FE85F8FF
:106C20000CB017AA39461198FDF777FB0028BED0A3
:106C3000AD6815B1A1684145DDD0A168414523D1BA
:106C40009DF81810204600F023FA1BE00C9840280D
:106C50000AD200F01F010BFA01F00C994A0959F809
:106C60002230034349F82230E5682DB10AAB9DF884
:106C7000182020460599A8470AAA9DF81810204612
:106C8000FDF74BFB002892D0A06800287FF479AF75
:106C9000DDE90B0485780AA800F0F4F80028F7D1A4
:106CA00015F0300F03D10B98008800B1641CC4B1FB
:106CB0000020494605E000BF51F82020521C0ED1AB
:106CC000401CB0EB541FF7D3600959F8201004F0B2
:106CD0001F00C0F120022AFA02F0814201D00020F8
:106CE00065E7012063E71CB50C46694600F039F8FA
:106CF000002814D0DDE90002C10709D051084FEA8D
:106D000030006FEA00026FEA0100C4E9002004E0ED
:106D100051084FEA3000C4E900014FF001001CBDEA
:106D2000F8B507460020187008700E4610601C4623
:106D300015466946384600F039F801004FF0010069
:106D400009D0009959B1C8082860009800F00700E0
:106D500030700120F8BDB96809B10020F8BD20707D
:106D6000FBE72DE9F8430026884681463446354640
:106D700004E0402E02D30020BDE8F883694648466F
:106D800000F076F90028F7D09DF80070324607F041
:106D90007F00C10FFBF734FB29430443F61D0D466A
:106DA0003806E6D4C8E900410120E5E7F8B50E460B
:106DB0000746694600F05CF900280AD09DF80040BB
:106DC000200616D5072504F07F0403E0202D01D30B
:106DD0000020F8BD6946384600F04AF90028F8D08E
:106DE0009DF8001001F07F00A8400443ED1D080647
:106DF000ECD401203460F8BD10B559680B4AC9685D
:106E0000914212D10A4AD0E90110D2E90134234358
:106E100001D0002008E011F8013BA0F101001B06A1
:106E2000F9D4C2E901100120907010BDF07E070076
:106E300028580020C26000230160C0E901138B883C
:106E40001A440261B1F906301A44426108880028E8
:106E500000D00120704770B545680E460446606852
:106E60000188B14206D1807800F00F00082801D0D7
:106E7000012070BD204600F005F86068A842EED100
:106E8000002070BD30B541680A885AB101F1100385
:106E900043600A8A42B18C780A89C4F30115032D34
:106EA00007D00BE0002030BDC2680168FFF7C2FFC9
:106EB000F8E79D78C5F30115032D06D00225B5EB43
:106EC000141F08D14C89624309E08D8804690022AF
:106ED000641B046103E0B5EB941F00D104228978A0
:106EE00011F0300F02D18168491C81609C880169D2
:106EF000214411440161B3F906201144416101208C
:106F000030BD30B54168002487B0897801F00F02A8
:106F1000082A11D08A091ED00222B2EB911F09D192
:106F20000269C1F301110229146001D0032901D1C2
:106F30004069048007B030BD0069056808E02C7323
:106F400029466846FDF702FD6846FFF7DAFFAD689F
:106F5000002DF4D1EEE7C1F30111012912D002296D
:106F6000E6D00329E4D04268917801F00F010729A7
:106F70000BD0D16881B11289006907B0BDE83040FB
:106F8000FBF74DBA41690C70EDE70169D06807B0B5
:106F9000BDE8304000F02DB81189006907B0BDE8A8
:106FA0003040FBF755BA000010B5034B002408C071
:106FB00080E8160010BD0000A941070038B50D4655
:106FC00004466946FFF7F2FE00280BD0D4E9000220
:106FD000D4E90213C5E90002C5E902130098814211
:106FE00001D2002038BDA860A168081AA060012065
:106FF00038BD00B50A4687B001466846FFF71AFF5C
:10700000002807D06846FFF77CFF6846FFF73AFF85
:107010000028F7D107B000BD7FB514460546A9B9D1
:10702000124A2868904208D110E01022694628468A
:10703000FFF7F2FF002807D0103C102CF5D82246AD
:1070400069462846FFF7E8FF04B070BDA868A04273
:1070500001D20020F8E72B682246284698470028EE
:10706000F2D0A868001BA8600120EDE7A941070045
:1070700010B504468068002809D023680122204604
:107080009847002803D0A068401EA060012010BDD2
:1070900038B5002439B1012912D0022912D00529AE
:1070A0001DD0002038BD0546012269462846FFF75D
:1070B000B3FF90B19DF800000006F5D4012038BD63
:1070C00008220DE005466946FFF770FE28B1002151
:1070D0002846009AFFF7A0FF38BD204638BD04229D
:1070E000BDE838400021FFF797BF00002DE9FC41C3
:1070F0008046224817460E46C5680A460124414686
:107100002846FDF7DDFA70B195F8550068B100F03A
:107110000101C0F3400243462846CDE9006700F074
:1071200067F848B109E0172407E03B46324641467C
:10713000284600F027F8F4E70524114D6FB1012C23
:1071400013D005F12400FEF705F900BFFDF7E2F9C1
:10715000C5F848802046BDE8FC81012C02D0FDF72F
:10716000D9F9F7E701206861F4E70022314640468B
:10717000FDF73AF8C5E90960E8E700002858002063
:10718000287400202DE9F041044690F8550094B091
:107190001E461746884620B1124940F22A30FCF7B5
:1071A00017FD0125CDE9007543460022214602A8BE
:1071B000FCF79CFF002812D086B1412202A90A48A0
:1071C000FBF72DF909480021C562016294F892107D
:1071D00011B194F8931009B961688160012014B06D
:1071E000BDE8F08178850700C9760020287400206A
:1071F0002DE9F047A4B08846DDE92C6A044699469B
:107200001546442102A8FBF723F9442113A8FBF7F4
:107210001FF94F4658EA050004D136494FF459701A
:10722000FCF7D6FCB8F1000F24D009F50051324B21
:107230004A68A06D9A4241D18A68411EC1F30B0190
:10724000401A41F6FF710844824237D34846FDF7A1
:107250004DFB00B18DB30121A06DCDE900014B467E
:107260000022214602A8FCF741FF002827D0A06D8C
:107270000744361A55B10020CDE9006002463B466E
:10728000214613A8FCF732FF002818D0BAF1000FEE
:107290002ED01A4EB8F1000F19D04846FDF726FB44
:1072A00018B106F11800FEF755F8412202A914485A
:1072B000FBF7B5F835B1AC2005E0FFE7002024B0BE
:1072C000BDE8F087A520F062A06D706301E0AA2000
:1072D000F0626DB10A48412213A98230FBF79FF892
:1072E00094F8920010B194F8930008B96068F060C7
:1072F0000120E4E778850700DBE5B1512874002020
:1073000088760020EFF30580C005C00D01D0012074
:107310007047EFF3148040F30000401C70470000FA
:10732000034802490068FDF76DBB0000505800207B
:10733000C48107002DE9F041224C0025224E207A1D
:10734000012730B92148311D0068FDF766FB306028
:1073500038B1022020723168087928B101281CD187
:1073600014E06560BDE8F081D1E90503C01A142876
:1073700000D31420B7EB900F01D2820800E0012265
:107380000869C9681844194429DF03E0D1E90301F9
:10739000084428DF58B1112812D003213068FDF7C6
:1073A00044F925726560BDE8F041FFF7B9BF207C64
:1073B0000028D7D1BDE8F04100210220FEF7C2BD70
:1073C0002772CFE7947D00204C580020C48107002D
:1073D00010B5074C201DFDF739FB002806D1607C55
:1073E000002803D1BDE81040FFF7A4BF10BD000086
:1073F000947D002010B510461A46FBF710F80020C7
:1074000010BD10B510461A46FBF709F8002010BD54
:107410002DE9F0411E681C461546074621B1012999
:1074200018D0052923D119E000202060401C2060DD
:10743000B0421CD8012229463846FFF7EDFD00284E
:1074400006D015F8010B000601D52068EEE70120F3
:10745000BDE8F08108200246186002E004200246E0
:10746000186029463846BDE8F041FFF7D5BD002039
:10747000EEE770B516460A460446C11C104600F0F9
:10748000EFFB054661193046C91C00F0E9FB2844B2
:1074900070BD000003B5094A85B0D2E91612CDE9E6
:1074A000001207498989ADF8001006A9CDE902103C
:1074B000044869464088AEDF07B000BD4080070041
:1074C000CC5C0020F85700200846704708467047FB
:1074D00070B5FEF777FA114A114E136B546B916C2D
:1074E000E21A551EC5F30B05521B42F2040518445F
:1074F0006D5802F6FF72B54201D0032070BD1944E9
:10750000A34201D1002070BD0823FDF74FF90028E8
:10751000F9D1BDE87040FEF745BA0000287400209C
:10752000DBE5B151F0B50546002003464FF4405469
:107530000C4E4FF6FE7712E0D4F804C0B44505D1E6
:1075400055F823C0B4F80CE0F44504D02AB155F83E
:1075500023C0BC4501D10120F0BD5B1CDBB28B42D6
:10756000EAD3F0BDDBE5B15110B5040003D11A49EF
:107570005320FCF72DFB4FF44050184940688842D7
:1075800021D1218A71B1626904F11400002A94F8B2
:1075900055200BD0042A07D00022BDE81040C9B204
:1075A000FFF7C0BF002010BD0122F6E712B1012A8B
:1075B00007D1F7E7012904D9C9B20022FFF7B2FFCA
:1075C000F0E7012010BD208A10B160690028E9D1E0
:1075D00020780028F5D110BDC0850700DBE5B1514A
:1075E0003EB504460B496846FEF730FF0AE06846A0
:1075F000FEF708FFD0E900212046904740B16846D9
:10760000FEF762FF6846FEF7FDFE0028EFD13EBDA3
:1076100011203EBD088307003EB504460A4968466E
:10762000FEF714FF09E06846FEF7ECFED0E9002102
:10763000204690476846FEF747FF6846FEF7E2FEA1
:107640000028F0D13EBD00001483070070B5054648
:107650000C460846FCF7E6FD20B9074940F27910D0
:10766000FCF7B6FA06482A4621460068BDE8704095
:10767000024B00F00DB80000EC840700A870002059
:107680002458002000225821001DFCF7ADBD000049
:107690002DE9F04114464FF460761D460F468046B2
:1076A0003246FAF7E0FE30B1002201214046FDF7F4
:1076B0007BFFC8B905E00CB10020A0470020BDE861
:1076C000F08125B909494FF4AA70FCF781FA3246D6
:1076D00039462846FAF7A3FE234632462946404655
:1076E000FDF778FF0028EAD00320E8E7EC840700E4
:1076F00070B516460D46040007D035B1206C8022C7
:1077000000213828225403D307E00E2070BD2154F5
:10771000401C3828FBD30BE02154401C4028FBD3ED
:107720002146084600F096F838212046FAF790FEE8
:10773000216CD4E912304A0FC9003834591850412D
:10774000C4E90410227CE2710A0A42EA0062A271D2
:107750000A0C42EA00426271020242EA11602071A0
:107760006069E070010AA170010C6170000E04F8FC
:1077700038092146084600F06DF84FF00002EEB1DE
:10778000E06ED100C840A854A36ECB40A818037186
:10779000636ECB400372236ECB400373E36DCB402B
:1077A0000374A36DCB400375636DCB400376236DEB
:1077B000CB40521C0377042AE2D31FE01823504227
:1077C000216D03EBC000C140A954666DC640A918E5
:1077D0000E71A66DC6400E72E66DC6400E73266E23
:1077E000C6400E74666EC6400E75A66EC6400E7616
:1077F000E66EC640521C0E77042AE0D3002070BD0E
:10780000A8B100210164C0E912110A4901650A49C1
:1078100041650A4981650A49C1650A4901660A4903
:1078200041660A4981660A49C166002070470E20F8
:107830007047000067E6096A85AE67BB72F36E3C6D
:107840003AF54FA57F520E518C68059BABD9831F2B
:1078500019CDE05B2DE9F04FC8B0002213466F460A
:10786000CC181B1D2568E4782DBA25F0FF052543AB
:1078700047F82250521C102AF2D31BE007EB82017A
:1078800051F8083C4FEA734484EAF34484EA9324B1
:1078900051F83C3C4FEAF31585EAB34585EAD3033A
:1078A000234451F81C4C51F8401C2144194447F81A
:1078B0002210521C402AE1D3036D4793416D46913B
:1078C000846D4594C26D44929246026E4392456E19
:1078D0004295A946856E4195C66E4096B3460026F0
:1078E0004FEAB21787EAF22787EA726C02EA0907C1
:1078F00025EA020887EA0807BC44204F57F826808B
:1079000008EB0B07BC445DF82670AB460CEB070E8A
:107910004FEAB30787EA733787EAB35C81EA040763
:107920004D4601EA040891461F400AEB0E02A246AA
:1079300087EA08070C46BC441946761C0EEB0C037C
:10794000402ECDD3479E33440365469B1944416581
:1079500045992144816544995144C1654399114435
:10796000016642994944416641992944816640999A
:107970005944C16648B0BDE8F08F0000F4810700AB
:107980002DE9F04116460F46040004D006B317B1A6
:107990000025A8461AE00E20BDE8F081216C785D34
:1079A0006054206C401C206440280ED121460846BB
:1079B000FFF750FFD4E912014FF40072801841F133
:1079C0000001C4F84080C4E912016D1CB542E5D342
:1079D0000020E1E710B51620FBF73EFF48B10A484A
:1079E00082684FF4800152B1016821F48001016086
:1079F00010BDBDE8104042F20100FBF7D1BF4FF0CF
:107A0000E020C0F8801110BD9C7B002010B516202E
:107A1000FBF722FFA0B1114890F8000440090828A4
:107A200011D20121814011F0EC0F0CD00C4882687A
:107A30004FF480016AB1016841F48001016010BD1A
:107A400042F2010001E042F20200BDE81040FBF703
:107A5000A7BF4FF0E020C0F8001110BD16E000E015
:107A60009C7B00207FB52A4800F15C01826B684650
:107A7000FFF79AFA274E9DE8070006F11C03274CF2
:107A800083E8070019462448C8600020A0706060A1
:107A9000A0604FF44771A6F54070FAF7D9FCA6F53F
:107AA00040721F4902F54770FFF70DF800282BD0F0
:107AB000A07858B3A6F5407090F86C1100290178B1
