:020000040000FA
:040FF80000E006000F
:020000040000FA
:040FFC0000E007000A
:020000040006F4
:10E00000A88D0020E1E30600E9E30600EBE306004B
:10E01000EDE30600EFE30600F1E306000000000078
:10E02000000000000000000000000000CDE306003A
:10E03000F5E3060000000000F7E30600F9E3060040
:10E04000FBE30600FBE30600FBE30600FBE3060040
:10E05000FBE30600FBE30600FBE30600FBE3060030
:10E06000FBE30600FBE30600FBE30600FBE3060020
:10E07000FBE30600FBE30600FBE30600FBE3060010
:10E0800025F80600FBE30600FBE30600FBE30600C1
:10E09000FBE30600FBE306009DF70600FBE306003A
:10E0A000FBE30600FBE30600FBE30600FBE30600E0
:10E0B000FBE30600FBE30600000000000000000098
:10E0C000FBE30600FBE30600FBE30600FBE30600C0
:10E0D00029F70600FBE30600FBE306000000000052
:10E0E0000000000000000000000000000000000030
:10E0F0000000000000000000000000000000000020
:10E10000000000000000000000000000000000000F
:10E1100000000000000000000000000000000000FF
:10E1200000000000000000000000000000000000EF
:10E1300000000000000000000000000000000000DF
:10E1400000000000000000000000000000000000CF
:10E1500000000000000000000000000000000000BF
:10E1600000000000000000000000000000000000AF
:10E17000000000000000000000000000000000009F
:10E18000000000000000000000000000000000008F
:10E19000000000000000000000000000000000007F
:10E1A000000000000000000000000000000000006F
:10E1B000000000000000000000000000000000005F
:10E1C000000000000000000000000000000000004F
:10E1D000000000000000000000000000000000003F
:10E1E000000000000000000000000000000000002F
:10E1F000000000000000000000000000000000001F
:10E20000DFF810D000F03EF9004800477909070018
:10E21000AFF30080A88D002080F308888E46104759
:10E2200030B450E8012F93B2C48923448489A342B7
:10E2300028BF1B1B0489A34202BFBFF32F8F0020FE
:10E2400007E0C3EA020340E80134002CE9D14FF0B3
:10E2500001000A6030BC704750E8012FC2EA024258
:10E2600040E801210029F7D1704730B450E8022F6F
:10E270001FFAA2F3C488A34202BFBFF32F8F00206E
:10E280000DE0C48923448489A34228BF1B1BC2EA32
:10E29000034340E80234002CE8D14FF001000A604B
:10E2A00030BC704750E8022FC2EA224240E8022107
:10E2B0000029F7D17047034653E8022FD988B2EB03
:10E2C000324F4FF0000017BF92B241EA014142EADB
:10E2D000014104E05A68B2EB324F08BF012043E825
:10E2E0000212002AE8D1704730B4044654E8000F07
:10E2F0000D4644E80053002BF8D1156030BC704740
:10E3000030B4044654E8000F40EA010544E80053E5
:10E31000002BF7D1156030BC704730B4044654E888
:10E32000000F00EA010544E80053002BF7D1156007
:10E3300030BC704730B4044654E8000F80EA010551
:10E3400044E80053002BF7D1156030BC704730B45F
:10E35000044654E8000F00EB010544E80053002B8D
:10E36000F7D1156030BC704730B4044654E8000F54
:10E37000A0EB010544E80053002BF7D1156030BC39
:10E38000704770B404464FF0000054E8006F0D6809
:10E39000AE4207BF44E80023012044E800630E605A
:10E3A000002B1CBF0020F0E770BC704730B404465F
:10E3B00054E8000F88422CBF451A054644E8005334
:10E3C000002BF5D1156030BC704700001EF0040F23
:10E3D0000CBFEFF30880EFF3098004F09FB8000052
:10E3E0000648804706480047FEE7FEE7FEE7FEE7EF
:10E3F000FEE7FEE7FEE7FEE7FEE7FEE7A1F7060021
:10E4000001E20600202A04DB203A00FA02F1002093
:10E4100070479140C2F1200320FA03F31943904062
:10E42000704740EA01039B0703D009E008C9121FA7
:10E4300008C0042AFAD203E011F8013B00F8013BBE
:10E44000521EF9D27047D2B201E000F8012B491EEA
:10E45000FBD270470022F6E710B513460A46044681
:10E460001946FFF7F0FF204610BD30B504460020E6
:10E47000034600E05B1C934203D2E05CCD5C401B92
:10E48000F8D030BD064C074D06E0E06840F00103CF
:10E4900094E8070098471034AC42F6D3FFF7B4FE77
:10E4A00074470700944707002DE9F0438BB01446EA
:10E4B000129D15F9046B00961F46804689462B462F
:10E4C0000246214602A800F0B9FC02A9129A0846A9
:10E4D00000F0A4FC129B02AA4146404600F08EFCCC
:10E4E000129B02AA2146204600F088FC2B464A4691
:10E4F00039463846009600F0A1FC129A394602A827
:10E5000000F08CFC02A92B4642460846009600F01B
:10E5100095FC02A92B4622460846009600F08EFC88
:10E520002B46424621462046009600F087FC129B6F
:10E5300022464946484600F061FC2B4602AA414665
:10E540002046009600F07AFC129B22463946384657
:10E5500000F054FC2B464A4639463846009600F0F7
:10E560006DFC324602A9204600F02EFE0BB0BDE83D
:10E57000F083F0B5154689B01C4607460E461A468C
:10E580002946684600F04AFC23466A463946384622
:10E5900000F034FC23462A466946684600F02EFC0B
:10E5A00023466A463146304600F028FC09B0F0BDEB
:10E5B0008B1802448B4204D013F8010D02F8010DB0
:10E5C000F8E770472DE9F047B3F90250894608246F
:10E5D000E91D1F3591FBF4F42021944295FBF1F5E0
:10E5E0004FFA85F828BF14461F464146064600F0FC
:10E5F0006DFA22464946FFF7DBFFB7F90230E40027
:10E600009C4220D9E41A06EB85010023C4F12000C6
:10E610008E4208D251F8042D22FA04F52B430B60E8
:10E6200002FA00F3F4E7243742463146384600F058
:10E6300059FA012807D043463A4631463046BDE8EC
:10E64000F04700F015BFBDE8F0872DE9F04793F9DA
:10E65000006092B0044689461046314615469846F9
:10E6600000F068FA002840F098804246494602A827
:10E6700000F0D4FB434602AA21460AA800F0BEFBE4
:10E6800002A90846424600F0C9FB43462A464946CD
:10E69000484600F0B3FB08F10407424629462846E5
:10E6A00000F0BCFB3B462A4621462046009600F07F
:10E6B000F3FA3B462A4629462846009600F0ECFA33
:10E6C0003B462A4621462846009600F0B7FB4346C3
:10E6D0002A462146204600F091FB3B462246214631
:10E6E0002846009600F0D8FA3B4600962A46214676
:10E6F000204600F0D1FA2368DB0714D533463A46AA
:10E700002146204600F0B4F931468246204600F00A
:10E710004EFD06F18043013B54F8230040EACA70E5
:10E7200044F8230003E03146204600F040FD424615
:10E730002146284600F072FB3B460AAA2946284695
:10E74000009600F07BFB3B460AAA29462846009625
:10E7500000F074FB0AA908463B462A46009600F0E2
:10E760006DFB43460AAA2146204600F047FB02AA59
:10E770003B4610462146009600F060FB3246294693
:10E78000204600F021FD32464946284600F01CFD97
:10E79000324602A9484600F017FD12B0BDE8F087E6
:10E7A00000487047C44607002DE9F04FEDB01F4602
:10E7B000DDF8D8810590B8F9026098F9005020235F
:10E7C0001F3696FBF3F676B206F1FF3924AB002430
:10E7D00043F829406CAB03EB89034CA88A46934667
:10E7E000394698F9012043F8804C43F8604CFFF714
:10E7F000DFFE98F9012054A8B918FFF7D9FE294681
:10E800004CA800F097F90746002840F027812946D8
:10E8100054A800F08FF90390002840F0218108F1FE
:10E82000240332464CA91846029300F05BF90128F4
:10E8300040F01881324654A9029800F053F901289B
:10E84000069040F00F811CAC0CAF3346029A54A9DD
:10E85000204600F03AFA039B47F829305A465146C1
:10E8600038464346FFF7AEFE39463846029B0096CF
:10E87000224600F0B1FA0DF5B879029B00962246C7
:10E880004CA914A800F0A8FA48462A46059900F0B9
:10E890009BFCAB0009EB030A0793059BA9005918E1
:10E8A00008F1440B50462A4600F08EFC59462A4691
:10E8B00034A800F089FCAB000BEB03012A463CA80E
:10E8C00000F082FC08F10403494634AA2046009572
:10E8D000049300F0B3FA53464A463CA934A8CDF855
:10E8E0000080FFF7E1FD2B46049A2146204600F008
:10E8F000ECF92246514648464346FFF73AFE039B51
:10E9000008933146059B0A933846CDF824B0CDF8DC
:10E910002C9000F02EFC3146814614A800F029FC12
:10E920004845B8BF48461FFA80F909F1FF3B0FFA86
:10E930008BFB5946384600F0CBFD5946071C14A8FE
:10E9400018BF012700F0C4FD002814BF02230023D4
:10E950001F430DF1200A2A465AF8277024A8394689
:10E9600000F032FC0DF1B00BAB00F9182A46584606
:10E9700000F02AFC2946204600F0A8F8A9F1020977
:10E98000069B23600FFA89F90DF1900AB9F1000F87
:10E9900045DB43462246D8F8A47059465046B8474E
:10E9A00049460CA800F094FD4946071C14A818BF5E
:10E9B000012700F08DFD002814BF022300231F4310
:10E9C00008AB53F827702FB32A46394634A800F015
:10E9D000FBFB079B2A46F9183CA800F0F5FB4346D1
:10E9E00022463CA934A8FFF7C4FD049B009534AA35
:10E9F000514644A800F022FA5B4652463CA934A88E
:10EA0000CDF80080FFF750FD434644AA214620463A
:10EA100000F0F4F909F1FF390FFA89F9B6E72B464E
:10EA2000049A2146204600F050F9434622465946B2
:10EA30005046FFF79EFD32465146029800F052F8CC
:10EA4000012805D03346029A5146504600F010FD89
:10EA50002A464CA9504600F059F804E0204602E04E
:10EA6000384600E003986DB0BDE8F08F000000006C
:10EA7000C3F10803DB0070B50133002403A500BF18
:10EA80005B1920C940CAAD1920C0184720C940CA27
:10EA9000754120C020C940CA754120C020C940CA64
:10EAA000754120C020C940CA754120C020C940CA54
:10EAB000754120C020C940CA754120C020C940CA44
:10EAC000754120C06441204670BD00BF002210B5D2
:10EAD000144653B28B4204DA1BB2013240F8234091
:10EAE000F7E710BD10B5013A52B2002A0ADB13B2A3
:10EAF00050F8234051F823309C4205D8F3D24FF010
:10EB0000FF3010BD002010BD012010BD70B5013ACE
:10EB100052B20023002A09DB15B2013A50F82560F1
:10EB200051F825407440234352B2F3E7B3FA83F01F
:10EB3000400970BD10B500231A465CB28C4204DA5D
:10EB400050F8244001332243F7E7B2FA82F040093B
:10EB500010BD00002DE9F04FA5B01C46039114AB89
:10EB60002146804610461746029300F002FB494BAF
:10EB7000C0EB841005B22B40002BBEBF03F1FF3366
:10EB800063F01F030133202695FBF6F676B20FFAE9
:10EB900083F904A83146FFF799FFB9F1000F30B2AD
:10EBA00014DD04AB002203EB8000C9F120061346FC
:10EBB000A34212D257F8231001FA09FE4EEA0202CC
:10EBC00040F8232021FA06F20133F1E704AB224694
:10EBD000394603EB800000F0F7FA27B27B0001937F
:10EBE00004AB03EB870704F1FF3924AB012603EBE9
:10EBF0008909002D42DB24AB0022C6F101009646B4
:10EC000003EB860A03EB8000019B51B299421BDAA9
:10EC10000FFA81FC5AF8883C53F82CB024AB03EB74
:10EC2000810151F8803CC3EB0B03CEEB03039B4502
:10EC300004D034BF4FF0010E4FF0000E50F8881C86
:10EC4000013241F82C30DFE7CEEB06035E4221466D
:10EC500004A85E4100F0ABFA24AB03EB8403214629
:10EC600053F8802C59F8803C384643EAC273013D82
:10EC700049F8803C2DB200F09AFABAE724AB03EBD6
:10EC80008606224656F8881C404600F09DFA25B0BC
:10EC9000BDE8F08F1F00008070B59DF910401E4642
:10ECA00023460546FFF7E4FE30B9224629463046A2
:10ECB000FFF718FF012807D0234632462946284689
:10ECC000BDE8704000F0D4BB70BDF0B50F46A1B0F8
:10ECD00006461946384615461C46FFF72BFF20B15D
:10ECE00021463046FFF7F2FE74E022463946684678
:10ECF00000F06AFA2246294608A800F065FA214683
:10ED000010A8FFF7E3FE0123214618A81093FFF790
:10ED1000DDFE224608A96846FFF7E4FE002854D02D
:10ED2000009BDA0704D42146684600F040FA26E04A
:10ED3000089BDB0704D4214608A800F038FA3EE01F
:10ED4000002823461FDD08AA6946684600F090FBAC
:10ED50002146684600F02BFA224618A910A8FFF7B2
:10ED6000C1FE002805DA10A923462A460846FFF707
:10ED70007FFE10A9234618AA084600F079FB224618
:10ED8000294610A81EE008A96A46084600F070FB54
:10ED9000214608A800F00BFA224610A918A8FFF790
:10EDA000A1FE002805DA18A923462A460846FFF7DF
:10EDB0005FFE18A9234610AA084600F059FB224618
:10EDC000294618A800F066FCA3E7224610A93046A1
:10EDD00000F0FAF921B0F0BD70B590B005469DF98C
:10EDE00050401E466846234600F03AF82346324615
:10EDF00069462846FFF7AEFE10B070BD30B51C4620
:10EE000091B0054693F90030684600F029F8D4F82F
:10EE1000AC3069462846984711B030BD30B514462D
:10EE200091B0054692F90020684600F0DAF9D4F86E
:10EE3000AC3069462846984711B030BD70B59DF991
:10EE400010401E462346054600F012FB38B123460B
:10EE5000324629462846BDE87040FFF709BE70BD1E
:10EE60002DE9F04F08B4F8CA04B451F8042BA3FB01
:10EE7000028940F8048B4FF0000AE4FB629A4FF0DD
:10EE8000000BE5FB62AB4FF0000CE6FB62BC4FF001
:10EE9000000EE7FB62CE51F8042B4FF00008E3FBB5
:10EEA000628940F8048BE4FB629AE5FB62ABE6FB07
:10EEB00062BCE7FB62CE51F8042B4FF00008E3FB85
:10EEC000628940F8048BE4FB629AE5FB62ABE6FBE7
:10EED00062BCE7FB62CE51F8042B4FF00008E3FB65
:10EEE000628940F8048BE4FB629AE5FB62ABE6FBC7
:10EEF00062BCE7FB62CE51F8042B4FF00008E3FB45
:10EF0000628940F8048BE4FB629AE5FB62ABE6FBA6
:10EF100062BCE7FB62CE40F8049B40F804AB40F8CB
:10EF200004BB40F804CB40F804EB0CBC052B00F00C
:10EF30001E810C68A0F11400A1F11401A2F11402C9
:10EF400052F804EB4FF0000550F8046BE4FB6E56EA
:10EF500052F804EB50F8047BE4FB6E6752F804EBC4
:10EF600050F8048BE4FB6E7852F804EB50F8049BE5
:10EF7000E4FB6E8952F804EB50F804ABE4FB6E9AA4
:10EF8000A0F1140052F8044B51F804EB4FF0000CC0
:10EF9000E4FB6EC540F804CB51F804EBE4FB6E567D
:10EFA00040F8045B51F804EBE4FB6E6740F8046B37
:10EFB00051F804EBE4FB6E7840F8047B51F804EB65
:10EFC000E4FB6E8940F8048B51F804EBE4FB6E9A85
:10EFD000A0E80006062B00F0CA800C68A0F118001B
:10EFE000A1F11801A2F1180252F804EB4FF000054C
:10EFF00050F8046BE4FB6E5652F804EB50F8047BB7
:10F00000E4FB6E6752F804EB50F8048BE4FB6E7877
:10F0100052F804EB50F8049BE4FB6E8952F804EBC1
:10F0200050F804ABE4FB6E9A52F804EB50F804BBC2
:10F03000E4FB6EABA0F1180052F8044B51F804EB5E
:10F040004FF0000CE4FB6EC540F804CB51F804EB24
:10F05000E4FB6E5640F8045B51F804EBE4FB6E678A
:10F0600040F8046B51F804EBE4FB6E7840F8047B45
:10F0700051F804EBE4FB6E8940F8048B51F804EB83
:10F08000E4FB6E9A40F8049B51F804EBE4FB6EAB92
:10F09000A0E8000C072B6AD008B40C68A0F11C0093
:10F0A000A1F11C01A2F11C0252F804EB4FF0000583
:10F0B00050F8046BE4FB6E5652F804EB50F8047BF6
:10F0C000E4FB6E6752F804EB50F8048BE4FB6E78B7
:10F0D00052F804EB50F8049BE4FB6E8952F804EB01
:10F0E00050F804ABE4FB6E9A52F804EB50F804BB02
:10F0F000E4FB6EAB52F804EB50F804CBE4FB6EBCBF
:10F10000A0F11C0052F8044B51F804EB4FF000033F
:10F11000E4FB6E3540F8043B51F804EBE4FB6E561B
:10F1200040F8045B51F804EBE4FB6E6740F8046BB5
:10F1300051F804EBE4FB6E7840F8047B51F804EBE3
:10F14000E4FB6E8940F8048B51F804EBE4FB6E9A03
:10F1500040F8049B51F804EBE4FB6EAB40F804ABC1
:10F1600051F804EBE4FB6EBCA0E8001808BCBDE855
:10F17000F08F013949B2002909DA013149B2A1B150
:10F1800001F18043013B50F82330002004E050F8A7
:10F190002130002BEDD0F0E713B15B080130FBE725
:10F1A000013900EB411108B270470846704700EB87
:10F1B00081010023884206D251F8042D43EA52030C
:10F1C0000B60D307F6E7704730B5002463B2934273
:10F1D00006DA1BB2013451F8235040F82350F5E70A
:10F1E00030BD2DE9F04FB1E8005E06B4AAFB09126C
:10F1F0004FF00003EBFB69234FF00004ECFB693494
:10F200004FF00005EEFB69454FF00006EBFB6A632B
:10F21000ECFB6A344918524176415B41A9FB0978FD
:10F220004FF0000949F1000918EB0108A0E880013E
:10F23000AAFB0A78574158EB0608A0E88001EEFBCC
:10F240006A454FF0000A4AF1000A4FF00001ECFB5A
:10F250006B14EEFB6B454FF00002EEFB6C255FEA92
:10F2600059094941644152416D4149F10009EBFBA3
:10F270006B3A1AEB010AA0E80804ACFB0C6A664181
:10F280005AEB020AA0E84004AEFB0E6A6E415AEB4C
:10F29000090AA0E8400406BC052A00F0E680A0F1B7
:10F2A0001400A1F11401B1E8E043A5FB0E344FF0C6
:10F2B0000005E6FB6E454FF00006E7FB6E564FF08B
:10F2C0000007E8FB6E674FF00008E9FB6E784FF02F
:10F2D0000009DB1864416D4176417F4158EB080815
:10F2E00059F1000950F804CB13EB0C0350F804CB90
:10F2F00054EB0C0450F804CB55EB0C0550F804CB40
:10F3000056EB0C0650F804CB57EB0C0758F10008ED
:10F3100059F10009A0F11400EEFB0E89A0E8F803F2
:10F32000062A00F0A280A0F11800A1F11801B1E8AE
:10F33000E047A5FB0E344FF00005E6FB6E454FF0AD
:10F340000006E7FB6E564FF00007E8FB6E674FF0D4
:10F350000008E9FB6E784FF00009EAFB6E894FF078
:10F36000000ADB1864416D4176417F4158EB080883
:10F3700059EB09095AF1000A50F804CB13EB0C03BE
:10F3800050F804CB54EB0C0450F804CB55EB0C05AF
:10F3900050F804CB56EB0C0650F804CB57EB0C0797
:10F3A00050F804CB58EB0C0859F100095AF1000A47
:10F3B000A0F11800EEFB0E9AA0E8F807072A54D037
:10F3C000A0F11C00A1F11C01B1E8E04FA5FB0E3437
:10F3D0004FF00005E6FB6E454FF00006E7FB6E566A
:10F3E0004FF00007E8FB6E674FF00008E9FB6E780E
:10F3F0004FF00009EAFB6E894FF0000AEBFB6E9AB2
:10F400004FF0000BDB1864416D4176417F4158EBB2
:10F41000080859EB09095AEB0A0A5BF1000B50F88E
:10F4200004CB13EB0C0350F804CB54EB0C0450F852
:10F4300004CB55EB0C0550F804CB56EB0C0650F8FA
:10F4400004CB57EB0C0750F804CB58EB0C0850F8E2
:10F4500004CB59EB0C095AF1000A5BF1000BA0F147
:10F460001C00EEFB0EABA0E8F80FBDE8F08F00002B
:10F47000C3F10803DB0070B50133002403A500BF0E
:10F480005B1920C940CAAD1B20C0184720C940CA1B
:10F49000B54120C020C940CAB54120C020C940CADA
:10F4A000B54120C020C940CAB54120C020C940CACA
:10F4B000B54120C020C940CAB54120C020C940CABA
:10F4C000B54120C06441B4FA84F0400970BD00BF6A
:10F4D0004A11012350F8220001F01F0103FA01F143
:10F4E00008407047F0B5082289B00C460646FFF781
:10F4F0006BFECB6A03930B6B04934B6B05938B6B87
:10F500000693CB6B0793002708236A466946684633
:10F51000029701970097FFF7ABFA082305466A4662
:10F5200031463046FFF7A4FA236B0393636B0493D1
:10F53000A36B0593E36B0693054408236A4669466B
:10F5400068460797FFF794FA082305446A46314650
:10F550003046FFF78DFA236A0093636A0193A36A2A
:10F560000293A36B0693E36B0793054408236A4653
:10F5700031463046059704970397FFF779FA636A97
:10F580000093A36A0193E36AA26B0293636B0393F4
:10F5900004920693E26B236A0592054407936A4638
:10F5A000082331463046FFF763FAE36A0093236B82
:10F5B0000193636B0293236A0693A36A079305443E
:10F5C00008236A4631463046059704970397FFF7AC
:10F5D0004FFF236B0093636B0193A36B0293E36B69
:10F5E0000393636A0693E36A07932D1A08236A4616
:10F5F0003146304605970497FFF73AFF636B009357
:10F60000A36B0193E36B0293236A0393636A0493EE
:10F61000A36A0593236B07932D1A08236A46314684
:10F6200030460697FFF724FFA36B0093E36B01932B
:10F63000636A0393A36A0493E36A0593636B079376
:10F640002D1A08236A463146304602970697FFF77F
:10F650000FFF2D1A16D508230D4A31463046FFF705
:10F6600007FA2D18F7D410E0082231460848FFF7B2
:10F6700039FA012809D00823054A31463046FFF7F8
:10F68000F7FE2D1A002DEFD0F5E709B0F0BD00BF51
:10F69000C846070070B5036813F001050646144616
:10F6A00005D013460A460146FFF7E2F90546214612
:10F6B0003046FFF77CFD45B104F18042013A56F82F
:10F6C000223043F0004346F8223070BD2DE9F0416E
:10F6D00015468AB0044688462022002102A8FEF77B
:10F6E000BBFE2E1D95F9007003232A464146204695
:10F6F0000293FFF793FB334602AA21462046009768
:10F70000FFF79CFB2B46424621462046FFF776FB3F
:10F710000097334605F1840221462046FFF7BCFAE4
:10F720000AB0BDE8F08100002DE9F041194E4FF418
:10F730008271D6F8040130B11748C268521CC26009
:10F74000304602F00BFD00254FF4A07707EB850152
:10F750008AB23046B258BAB189B202F0FFFC0E4804
:10F76000103000EB0514204604F07AFA616819B1F4
:10F77000204604F0E5F907E0A16811B1204604F045
:10F78000DFF9206800B180476D1C022DDED3BDE893
:10F79000F081000000400240C057002002F0E2BDAE
:10F7A0001B4800B5016841F470010160BFF34F8F41
:10F7B000BFF36F8F4FF01022D2F80002002803DB56
:10F7C000D2F8040200281FDA012002F0F5FE15210C
:10F7D000C2F800120F480368002BFCD0C2F80412D4
:10F7E00001680029FCD0002002F0E6FEBFF34F8F35
:10F7F00007487C380168084A01F4E0611143016060
:10F80000BFF34F8F00BFFDE705490448086000BD06
:10F8100088ED00E000E401400400FA050090D00308
:10F8200058580020034808B5002101600068009086
:10F8300008BD00000001014002E008C8121F08C115
:10F84000002AFAD170477047002001E001C1121F61
:10F85000002AFBD1704700000121202803DA8140F3
:10F860000548014003E0402802DA2038814009B110
:10F870000120704700207047FC06FFBD800701D0C3
:10F88000002070470120704740680068401E084211
:10F8900001D10120704700207047C3688B4206D811
:10F8A00011440069491E814201D80120704700209F
:10F8B0007047000030B585B00D46164C1621ADF8E6
:10F8C00000101ECC0DF1040C8CE81E00124C02211D
:10F8D000012221706270A0700320E0702171592014
:10F8E0006071FE20A071694604F109007DDF0028E7
:10F8F0000ED1BDF800002A46411CE1710921217298
:10F90000BDF808100844ADF8080001A9034872DFEB
:10F9100005B030BD80400700905C0020F857002003
:10F9200010B586B00624182208496846FEF779FD0E
:10F9300069462046FFF7BEFF002805D1044C207819
:10F9400074DF0121207873DF06B010BD90400700FE
:10F95000F857002070B5104CA66C656A01F0D6FC13
:10F96000216B08446A1A3144814200D100220823E5
:10F9700000F01AFF06000DD101F0C8FC0022294654
:10F9800000F032FCA16A814203D10121A561C4E9E2
:10F990000701304670BD00002874002002F048FFC7
:10F9A00002F046FF2DE9F84F254C814692466088CB
:10F9B0000E46814241D800274FF6FF788DF800703F
:10F9C000684600F075F822786078A188884201DAEC
:10F9D000401C00E00020C0B2904204D19DF800001D
:10F9E00000F0B2F827E065786078884201DA401CC0
:10F9F00000E0002060709DF8000000F0A5F845458B
:10FA000019D0A068B9F1000F40F835A00DD066B14B
:10FA10006188E068324605FB01004946FEF701FDBA
:10FA2000A06800EBC500868002E000EBC50087807F
:10FA30000020BDE8F88F0420FBE70920F9E700006B
:10FA40003858002010B50E4C03E0401C00E00020A8
:10FA5000207020786178814210D022786188E06837
:10FA6000A36802FB010003EBC20153F8322089882E
:10FA700090472078A1888842E9DAE6E710BD0000C7
:10FA80003858002030B5CB0008339DB293074FF0B3
:10FA9000000401D0072030BD044B9A602A44DA608C
:10FAA0005C701C7058809980002030BD3858002050
:10FAB00070B5044603F02EFC012803D010A14320AA
:10FAC00000F086F8EFF3108172B61D4A93680120AA
:10FAD00083B990604FF0E020D0F88051194B1D4061
:10FAE0001560C0F88031D0F8843153604217C0F8F7
:10FAF000842100202070002900D162B670BD000072
:10FB00002E2E5C2E2E5C2E2E5C2E2E5C2E2E5C63FA
:10FB10006F6D706F6E656E74735C6C69627261722A
:10FB20006965735C7574696C5C6170705F7574692C
:10FB30006C5F706C6174666F726D2E630000000004
:10FB40009C7B0020FC06FFBD10B5044603F0E2FBE1
:10FB5000012803D00DA1512000F03AF81B49886814
:10FB6000002811D0002C0FD1EFF3108072B60B6873
:10FB70004FF0E022C2F800314B68C2F80431002295
:10FB80008A60002800D162B610BD00002E2E5C2EC7
:10FB90002E5C2E2E5C2E2E5C2E2E5C636F6D706F95
:10FBA0006E656E74735C6C69627261726965735CB8
:10FBB0007574696C5C6170705F7574696C5F706C92
:10FBC0006174666F726D2E63000000009C7B0020E4
:10FBD0001CB56A46ADF800000191002144F2020014
:10FBE000FFF7DCFE1CBD000070B5164E154856F838
:10FBF000245F846CB168AC2901D024B111E0406B62
:10FC000004442D1A05E001F095FB0446B068AC28C9
:10FC100007D12A46A4F580410B48FEF726FC0028B0
:10FC20000ED02A4621460848FEF71FFC002807D0C0
:10FC300001F088F929462046BDE8704001F0EEBC8D
:10FC400070BD00002874002000E0060030B595B0BB
:10FC5000040004D12E4940F24F40FFF7B9FF2D496F
:10FC60004FF6FF702246488001208DF812004FF6B3
:10FC70005960ADF8100004A90120A8DF002844D184
:10FC8000254B0FCB8DE80F00A11C684662DF0028D2
:10FC90003BD121491C2260390BA8FEF7C2FB1F4D46
:10FCA000142205F1C401A8681290A0788DF84A00CA
:10FCB0002868139006A8FEF7B4FB12A8069013A8B4
:10FCC00007902088231D06AA0BA9AADF00281CD1B3
:10FCD0001C2205F1D8010BA8FEF7A3FBE8681290DF
:10FCE000A0788DF84A0068681390142205F1F40199
:10FCF00006A8FEF796FB12A8069013A80790208886
:10FD000004F10C0306AA0BA9AADF15B030BD000050
:10FD100068440700F857002058410700504007008A
:10FD2000F0B585B00D46040004D1314940F287108A
:10FD3000FFF74EFF25B92E494FF4C470FFF748FF77
:10FD400014216846FEF786FB2078032308280BD190
:10FD50002848C188491E89B2C1808288002A3ED0C5
:10FD600000293CD1C28023702178607860228DF810
:10FD700000208DF801108DF8020060780321012821
:10FD80000AD00B2828D100F081FC8DF80300002058
:10FD900000F084FC04211FE0207809281CD2DFE851
:10FDA00000F01B1B1B201B1B051B2000D4E902704D
:10FDB0006D46E91C666803F05DFF0446291930466C
:10FDC000C91C03F057FF044429193846C91C03F025
:10FDD00051FF2044C01CC1B2684603F063FB05B06C
:10FDE000F0BDD4E90112684603F04BFBF2E70000D6
:10FDF00068440700F85700202DE9F04113490346F5
:10FE000000208A68D4071ED0114CA3421BD048881A
:10FE1000A0F57F43FF3B10D042F004028A6013211B
:10FE200076DF00280FD10B4EC8254FF47A47741C9B
:10FE30003846A0476D1EFAD101E0087874DFBDE8AE
:10FE4000F04102F02BBABDE8F0810000F857002025
:10FE5000944707006040070038B5214C0021227A02
:10FE6000D20701D0084638BDE0601E4800F0A8FE69
:10FE70000020009001F0DEFB88B91B4813DF70B949
:10FE800002F036FA58B9684602F06EF938B9694698
:10FE9000012002F073F910B9684602F0BFF900289A
:10FEA000E1D101F0BFFC30B1104801F0AFFCA06817
:10FEB00040F00200A06000F03DFC0028D3D10B48C8
:10FEC0001C30FFF7C3FE0028CDD1FFF729FD002825
:10FED000C9D1A06840F00100A060002038BD00003A
:10FEE000F85700209C47070000E00600B05C0020A7
:10FEF00070B50446011D008800226F4D86B0212890
:10FF00007ED025DC13287CD018DC01287AD010287C
:10FF10005BD011284AD14FF6FF706880287A4007DD
:10FF200004D4FFF7FDFC08B1FFF73AFDE9680029AA
:10FF30003CD006B00220BDE870400847142878D0B5
:10FF40001A2877D01F2831D16888091D75DF62E033
:10FF5000512870D02CDC222828D0232862D02428D5
:10FF600024D0502822D1554D34F8060FA988884254
:10FF70001CD1534800F076FD060017D0628904F1C9
:10FF80000C01FEF74EFA18224E496846FEF749FA70
:10FF9000049601956089ADF81400684601F07EFB77
:10FFA000002803D03146464800F0C2FD06B070BDBF
:10FFB00052287BD0552813D05628F7D1A079002895
:10FFC000F4D11321688876DF25E008886880E96825
:10FFD00009B1012088473B4968887A3975DFE5E730
:10FFE000E188F72914D28807B0F1404F11D0C91F1A
:10FFF00089B2481EC21700EB927222F0030202E09F
:020000040007F3
:1000000033E01CE036E0801A081A801D81B200E05F
:10001000F7216888B5DF0028C8D006B0BDE8704079
:10002000FFF7BEBC00920192A0880022694690DFD3
:1000300018E034E03AE021E0FFF7B2FCB6E72148EF
:100040006A46903842F60521806A009002A8019025
:100050006888ADDF08B1FFF7A3FC00231A468521AD
:1000600068887FDF0028E7D1A0E70092088869460A
:100070008FDFF7E70021688866DFCCE7A0790028EA
:1000800094D021460D4802F0F1FB00288ED006B036
:1000900004F10801BDE87040084802F0CBBA002422
:1000A000088822462346214686DFB4E700230888D5
:1000B0001A461946B1DFAEE7F8570020CC5C0020A5
:1000C0009C470700E0400700007800F001007047FF
:1000D00013B90378012B01D001F0B0BC01207047A7
:1000E0000022C32100F5187000F07EB82DE9F0431E
:1000F000A1B00446DDE9289520200F4620909846BF
:100100001646782102A8FEF7A5F941212046FEF700
:10011000A1F9B7F8940006EB061107EB8101B04294
:1001200001D991F8965025701DB3012D04D0022DF0
:100130000AD0032D13D116E000224946404600F0B4
:1001400053F8C4F8010014E020A9601CCDE90001B7
:100150004B4642460A4902A800F0AAFF48B10020D7
:1001600021B0BDE8F083B1F89820601C9A31FEF709
:1001700058F94A464146204601F060FCF0E700008D
:10018000783E070010B500284FF0000006D0044963
:100190000870BDE81040034801F070BB00F0CEF9D4
:1001A000B85700203D05070010B543689C1844600F
:1001B00021B905E013F8010B01F8010B521EF9D229
:1001C000012010BD10B5040003D10549F020FFF750
:1001D000FFFC0448C16B6160006CA06010BD0000B2
:1001E000B044070028740020F0B54FF0FF3622B16C
:1001F0001268D24300230A4D0DE03246FAE7C45C90
:1002000062400824D70700D037462F4087EA5202C1
:10021000641EF7D15B1C8B42F1D3D043F0BD0000CC
:100220002083B8ED10B504460068401C07D0204676
:1002300003F030FA2168814201D1012010BD002075
:1002400010BD000010B5104C90B06078002818D197
:1002500000F092FF18B10D49DB20FFF7B9FC202216
:100260000B49684600F0A8FF40236A4609490A483E
:1002700000F0D6FE18B10549E520FFF7A9FC0120E2
:10028000607010B010BD000028580020884507009D
:100290000C3E0700D47A0020903E0700F0B51469A8
:1002A00006468DB020681546271DE0B1022920D0F2
:1002B0000A2000906B4609AA304603F0B1F80028E6
:1002C0000FD009A901A8009A02F076FE01AE96E8C7
:1002D0000F0005AE86E80F00236869683A4605A856
:1002E00098470DB0F0BD0DB03046BDE8F04002F0CB
:1002F000D7BE6946304602F069FE0028F1D0236877
:1003000069683A46684698470028EAD0029800286B
:10031000F5D1019870600120E3E753689B7813F0F2
:10032000C00303D0402B03D00020704700F002B878
:10033000FFF7B4BF2DE9FF410B465168064614464E
:100340008878334D00F00F0210F0300055F822503D
:1003500006D0102806D0202808D0302856D13EE0FC
:1003600022694DE061690120087047E0022B28D125
:10037000042A26D84FF0010869463046676902F022
:1003800025FE00281AD009E00B89226903FB002210
:100390006846A84770B13888401C3880029820B160
:1003A000616838884A899042EED30198706002985B
:1003B00060BB02E04FF00008F7E7404604B0BDE83C
:1003C000F081D4E904300F890288498907FB0233A0
:1003D0008A421BD2521C02801A46616810E00888CB
:1003E0006169072A088009D1606801892069FEF7E0
:1003F00031F860682169C06802F003FE2269616813
:1004000004B03046AC46BDE8F04160470020D5E777
:10041000A843070070B51C4801240168C90301D531
:1004200081130CE0194801681522C9B2B2EBD10F53
:1004300007D10168C90704D0016801F056010160C5
:100440000024134D286A01281CD14FF44050114953
:100450004068884208D123464FF4805105F5187052
:100460006A6BFFF735FE68B100F050FF0146234686
:100470000948AA69FFF72CFE20B101F069FE10F0CF
:10048000B10000D0012070BD0004004020050040F4
:1004900028740020DBE5B151C976002041690029AC
:1004A00001D0C068084770477047000010B5044687
:1004B000032806D0042C04D0062C08D0072C09D120
:1004C00005E009494FF4701000F02AFC02E0012019
:1004D000FFF758FE05484168002903D02046BDE8D3
:1004E0001040084710BD00007D080700B8570020E5
:1004F00010B50446062802D1002001F067FA04482E
:100500000168002903D02046BDE81040084710BD0F
:10051000F457002010B5FF224FF400710648FDF794
:1005200092FF054820212438FDF794FF024900205E
:100530005C39086310BD000084740020BFF34F8F46
:1005400005480168054A01F4E06111430160BFF309
:100550004F8F00BFFDE700000CED00E00400FA053E
:100560002DE9FC4180461F4615460E4600240D48E5
:1005700000F06AFA38B11120BDE8FC8106EB0430C6
:1005800001F0ACFD641CAC42F8D1064800F059FA09
:10059000CDE90057334600220221404600F02AF8F8
:1005A0000020E9E7485800202DE9F843104D0F4698
:1005B00080461E4691466946286800F016FA0400F7
:1005C00014D01C21FDF746FF01202071C4F81490BF
:1005D000380BC4F80080C4E902606946286800F05E
:1005E00025FA02F0FDFE0020BDE8F8830420FBE7B9
:1005F000D44107002DE9F04387B00446DDE90E89B8
:1006000080681D4616460F4600280BD01821684604
:10061000FDF720FF02A88DF8007080E86003A16854
:100620006846884707B0BDE8F08330B504460068E7
:1006300087B00D46806800281FD018216846FDF756
:1006400009FF0195A0680590207910B1012810D10B
:1006500007E001208DF8000020690290E068039017
:1006600005E002208DF80000E06800030290606958
:100670000490206881686846884707B030BD0B2821
:1006800003D30B38C0B200F009B87047024900220A
:1006900008780A707047000010580020014908705F
:1006A0000B20704710580020014901200870704746
:1006B000B85700200149012008707047F05700200A
:1006C00070B515460E46040004D107494FF42E704C
:1006D000FFF77EFA2A46314604F17200BDE8704009
:1006E000012301F0D9B900008845070010B50400C6
:1006F00003D10E49DB20FFF76BFA207818B90B49BC
:10070000DC20FFF765FA94F85500094938B1012853
:1007100005D06068C968884205D9012010BD6068AD
:1007200089688842F9D24FF0000010BDD04507001B
:10073000287400200EB59DF8080020F00F00401C22
:1007400020F0F00010308DF8080068466DDF0028BA
:1007500019D19DF80100401C8DF8010068466CDF3E
:10076000002810D10848007A800703D50748011DEA
:10077000806901E006A1112082B202A87CDF002876
:1007800001D108487ADF0EBDF8570020B05C002088
:1007900053435F5630325F4E6F726469635F444605
:1007A00055000000664007002DE9F04706469846D0
:1007B00015468946B14203D14FF00000BDE8F087ED
:1007C00004D22C494FF04F00FFF702FAB8F1000FA6
:1007D00003D128495020FFF7FBF9300503D0254904
:1007E0005120FFF7F5F9A9EB0600040B03D12149CD
:1007F0005420FFF7EDF905F6FF704FF0000A070BE4
:1008000000F0B4FB4046A0452FD204462DE0A7429D
:1008100002D8BA46A84602E0A2464FEA04380022AF
:100820005146304600F0C0FE0028C7D1A8F10100B3
:1008300000F00301A8EB0102002349463046D21C18
:1008400000F0C8FE0028B9D10B49A7EB0A07A5EBB9
:1008500008050A6B464402EB08000863C144002007
:1008600001F0A0F85FEA000AA8D1002DCFD15046D0
:10087000A4E7000018440700287400200120FFF7B7
:1008800081BC00000149416000207047A841070079
:1008900010B50B4941600B4800F0D6F868B901F07B
:1008A00079FD08491C234FF4EE7208740448A1F541
:1008B000EE71001F006800F085F8002010BD0000F8
:1008C000D8410700947D002002480068002800D02D
:1008D00001207047485800200248007A002800D0C4
:1008E00001207047947D002010B54FF44051144B07
:1008F0004C6800F500509C4204D042689A4201D1F5
:10090000012200E000229C4218D144689C4215D18B
:100910000A78142A01D9496900E00021094A0378BC
:10092000B1FBF2F1142B01D9406900E00020B0FBCB
:10093000F2F0814201D0012200E00022104610BDF9
:10094000DBE5B15140420F0070B5054608680C4622
:100950004A6886682846314602F074FA6068286161
:1009600004F10C006861B0780221B1EB901F01D155
:10097000241D2C6170BD000010B500224FF4805181
:10098000104600F0E1F950B908480022C0F5FC21FA
:1009900000F0DAF918B9064800F04CFA08B101F095
:1009A00047FF00F065F9002010BD000000E00600E0
:1009B000A904070010B5FDF77EFC08B1002010BDAA
:1009C000112010BD10B531B1B2FBF3F403FB1424B8
:1009D0001CB1092010BD0E2010BD01600021416036
:1009E00081608281C381084610BD70B50C46054602
:1009F000FDF716FC002802D021882868084470BD45
:100A000010B50A8849888A4203D1FDF74BFC0120C2
:100A100010BD002010BD70B50C460546FDF725FC45
:100A2000002802D061882868084470BD10B50A8883
:100A300049888A4203D1FDF70FFC012010BD002038
:100A400010BD002100F003B8012100F006B808B580
:100A50006A46FDF762FC009808BD08B56A46FDF7D6
:100A60004FFC08BD38B5040004D115A14FF49270B5
:100A7000FFF7AEF800258DF800506846FFF718F82C
:100A8000206862680168914214D9491E01600D789E
:100A90001CB919A1E820FFF79BF8208AE16805FB43
:100AA00000152068217A0278891A0279C9B28A422F
:100AB00000D201719DF80000FFF746F8284638BDC6
:100AC0002E2E5C2E2E5C2E2E5C2E2E5C2E2E5C632B
:100AD0006F6D706F6E656E74735C6C69627261725B
:100AE0006965735C62616C6C6F635C6E72665F6299
:100AF000616C6C6F632E63002E2E5C2E2E5C2E2E8E
:100B00005C2E2E5C2E2E5C636F6D706F6E656E7446
:100B1000735C6C69627261726965735C62616C6C52
:100B20006F635C6E72665F62616C6C6F632E6300F4
:100B300038B50C46050004D112A140F24710FFF76A
:100B400047F824B90FA14FF4A470FFF741F8002033
:100B50008DF800006846FEF7ABFF1DB91749F52078
:100B6000FFF736F8E8682A68211A288AB1FBF0F105
:100B70001068431C136001709DF80000FEF7E4FF4D
:100B800038BD00002E2E5C2E2E5C2E2E5C2E2E5C90
:100B90002E2E5C636F6D706F6E656E74735C6C6926
:100BA000627261726965735C62616C6C6F635C6ECA
:100BB00072665F62616C6C6F632E6300F80A0700F7
:100BC00010B5040002D0206830B901E00E2010BD3D
:100BD00019A1FF20FEF7FCFF606820B916A14FF4B1
:100BE0008070FEF7F5FFA06820B913A140F2011054
:100BF000FEF7EEFFE06820B90FA14FF48170FEF719
:100C0000E7FF208A20B90CA140F20310FEF7E0FFB5
:100C1000207A61682268401AC0B2116004E022683C
:100C200011684B1C13600870401EC0B2F7D22168D7
:100C30000020087110BD00002E2E5C2E2E5C2E2E82
:100C40005C2E2E5C2E2E5C636F6D706F6E656E7405
:100C5000735C6C69627261726965735C62616C6C11
:100C60006F635C6E72665F62616C6C6F632E6300B3
:100C700010B54FF0E0224FF0FF314FF48054C2F82E
:100C80008011C2F8801200F0E1FC2046BDE810405F
:100C9000AFF3008070B505461E4888B0C0F5FE2150
:100CA000002200F051F800F031FB1B490022896955
:100CB0000144104600F048F8EFF30580D5E90045FF
:100CC000C005C00D4FF0FF364FF0000181F31488CE
:100CD00081F3108881F3118881F3138812D02022C8
:100CE0000E496846FDF79DFB203C202269462046C0
:100CF0000695FDF796FBB21F31462046FDF78CFAAC
:100D000008B070BD08B02A4631462046BDE87040A4
:100D1000FDF782BA00E00600287400204C3E070070
:100D200070B5084D04460E46686802F099FF002C25
:100D300006D0324621466868BDE8704002F082BFA6
:100D400070BD0000C0570020F0B50A0502D1B0F513
:100D5000FE2F01D90720F0BD134D000B491E124F85
:100D600001222E1D103700EB113407F1040C17E09F
:100D70004309C3F1000100EB411E02FA0EF106D057
:100D8000012B06D0022B06D0032B08D105E02960E9
:100D900005E0316003E0396001E0CCF80010401C50
:100DA000A042E5D90020F0BD0006004070B51D4D01
:100DB0000024E86A2435012807D0A52808D0AA28ED
:100DC00009D0AC280AD0002070BDFEF7C3FD0BE0AF
:100DD00002F086FB07E0FEF707FF05E002F080FB6C
:100DE00008B9FEF701FF0124284600F0B3FA0E4EC1
:100DF000002030700D4800F0D5FD0546307820B950
:100E00000B494FF4D170FEF7E3FE0DB1032070BD26
:100E10000120002CFBD00349096A0129F7D10220E7
:100E200070BD000028740020F0570020B5060700B0
:100E30001844070070B52D4D6860002000F024FDB7
:100E400080BBFFF7B3FF20B1012828D002283CD196
:100E500005E04FF47014FFF7DDFA10B932E04FF4FB
:100E6000A02400F083F8224A20211820FEF70AFE71
:100E700008B1FEF795FD01F06BF91621B1EBD00F2B
:100E800009D101F065F9C00705D001F061F91949F0
:100E900020F0B100086000F0BFFB18B903E00120AA
:100EA000FFF770F911E014492046FFF739FF1348A6
:100EB00000F09CFB48B900BF00F044F8FEF7C2FD0B
:100EC00041DFF9E700F088FC08B1032070BD002085
:100ED00028700B4800F0D2FC287820B909A140F214
:100EE000FD10FEF775FEFFF7C3FEEEE7B8570020D2
:100EF000705800201C0500407D080700AD04070065
:100F0000A90607002E2E5C2E2E5C2E2E5C2E2E5C4B
:100F10002E2E5C636F6D706F6E656E74735C6C69A2
:100F2000627261726965735C626F6F746C6F616429
:100F300065725C6E72665F626F6F746C6F61646520
:100F4000722E630010B501F02FFB002803D0BDE81E
:100F5000104002F0EDBE10BD034A93680A460146F8
:100F60009860184602F06EBEC057002070B50E4D56
:100F70002878002817D101F017FB012690B10B4803
:100F80000468A4F54864962C00DA962402F0D0FE9A
:100F900007492046FFF7E0FF4FF0E0214FF4803093
:100FA000C1F800012E7070BDF1570020040501400A
:100FB0006D3D070040688068004710B54268083002
:100FC000527900F0F9F8002010BD2DE9F04399B0F6
:100FD0001C4690460D460846DDF88090FFF7EAFF74
:100FE0006E6807467079A04200D804462246414602
:100FF00011A800F01DF97279494601A800F0DCF84B
:1010000001AB224611A905F108000097FDF7CCFBC2
:1010100018B1002019B0BDE8F08348F24250F9E75A
:1010200070B516460C46054600F0EAF800280ED1C9
:10103000AA791946304600F0F0F8002807D1314669
:101040002046FFF7BAFF002801D10149216070BD99
:101050007052464D2DE9F84F6C460D46D4E90A68AA
:101060008246994617461149284600F0BDF80028E7
:1010700001D0A54614E068684146407942003046F8
:1010800000F0CBF8002801D0A54609E057B182B0A6
:101090004B463A46294650460096FFF796FFA5462E
:1010A000BDE8F88F48F21050A546F9E77052464D5A
:1010B0002DE9F0411D46DDE906871646044600F09D
:1010C0002DF800280DD12A463146204600F03CF884
:1010D000002806D13A4641462046BDE8F04100F0DE
:1010E00002B8BDE8F08170B515460E46044602F020
:1010F0000FFE002807D13EB160682968C26891429E
:1011000005D248F2145070BD48F2135070BD836888
:101110002A4631462046BDE87040184710B550B108
:1011200061B14160096804468847002802D105483A
:101130002060002010BD48F2015010BD48F2105050
:1011400010BD00006E52464870B515460E46044666
:1011500002F0DEFD00280BD146B155B160682A4689
:10116000314643682046BDE87040184748F21050A9
:1011700070BD002070BD00002DE9F0410B480C4D02
:101180000C4F401BC60801203870002406E000BF49
:1011900055F834008047002805D1641CB442F7D3C9
:1011A000022038700020BDE8F0810000000000003F
:1011B00000000000F257002070B514460D460646A8
:1011C00000F036F8291930192246BDE8704000F0C9
:1011D0002FB870B50C46054600F064F82819214672
:1011E000BDE8704000F05EB828B10068884205D0C4
:1011F00048F24050704748F2105070470020704746
:1012000028B139B10022C1E900201046704748F2E8
:101210001050704748F21350704720B1914205D0EA
:1012200048F21150704748F2105070470020704744
:1012300070B516460C46050003D10AA14520FEF7FD
:10124000C7FC1CB907A14620FEF7C2FCA919491E1C
:1012500004E000BF14F8010B01F80109A942F9D21A
:1012600070BD00002E2E5C2E2E5C2E2E5C2E2E5C71
:101270002E2E5C636F6D706F6E656E74735C6C693F
:10128000627261726965735C63727970746F5C6EAF
:1012900072665F63727970746F5F736861726564A0
:1012A0002E63000070B50D46040003D107A1332062
:1012B000FEF78EFC6019401E05E02178027804F8E4
:1012C000012B00F80119A042F7D270BD2E2E5C2E22
:1012D0002E5C2E2E5C2E2E5C2E2E5C636F6D706F3E
:1012E0006E656E74735C6C69627261726965735C61
:1012F00063727970746F5C6E72665F63727970741A
:101300006F5F7368617265642E6300004FF4405034
:10131000074A4168914207D18068411EC1F30B0121
:10132000401A00F6FF7070474FF48050704700007D
:10133000DBE5B15100B5FFF7E9FF054989690A18F6
:10134000401E0844C0F30B00101A00F6FF7000BDE9
:101350002874002000210160416081600148016320
:1013600070470000287400202DE9FF5FDFF8A88097
:101370009346894682460024A8F540570126B4B119
:10138000012C1FD0022C2CD02449AC20FEF720FCCD
:101390000025BD4203D92149B120FEF719FCA8EB75
:1013A0000500A0F5405050451ED201211DE0FFF779
:1013B000C1FF0546BBF1000F11D01948006A012892
:1013C0000BD00CE0FFF7A2FF0546039828B94FF4B5
:1013D000405014494068884201D00126D9E70026D0
:1013E000D7E74FF48055D4E7002141EA0900B04324
:1013F00005D0022C03D2641CE4B2022CBED919B170
:10140000042004B0BDE8F09F1CB105481830FFF778
:10141000A1FF0020F5E7000000E0060044450700BA
:1014200028740020DBE5B15170B50C46050004D1ED
:101430002F494FF4AC70FEF7CBFB24B92C4940F296
:101440005910FEF7C5FB287809284AD2DFE800F0DA
:101450004905491B234941491D0025B924494FF439
:101460008270FEF7B5FB24B9214940F20510FEF762
:10147000AFFB20490320C9688847686900F074FB06
:10148000FFF7FDF823E0204627E021462846BDE887
:10149000704001F09DB825B915494FF49670FEF7DC
:1014A00097FB24B9124940F22D10FEF791FB114928
:1014B0000831081F00F072FBFFF7E1F860700128A7
:1014C00006D1002000F06EFA002801D00A206070DA
:1014D00070BD4FF400712046E160BDE87040FEF73A
:1014E00071BEBDE8704002494FF4BC70FEF770BB9E
:1014F000B04407001458002070B50C46060004D113
:10150000264940F27520FEF763FB24B9234940F2D7
:101510007620FEF75DFB30780125214A092835D277
:10152000DFE800F03405340F14342C340A0021466F
:10153000304601F0B9F82EE02146304601F02AF994
:1015400029E0906CA060106D606024E0D2E9141373
:10155000556CCB1A30469D4203D00820607001259F
:1015600019E000255564936CD3645165294601F058
:10157000D5F80C490420C96888470CE0906CA0603D
:10158000106D60604FF48050E06004E0034940F269
:101590009720FEF71DFB284670BD0000B0440700F1
:1015A000287400201458002013460A4601460148BA
:1015B00000F0F0BB5C58002008B1034900E003498B
:1015C0000022034800F046BCE4410700B441070094
:1015D0005C58002008B5009313460A4601460248AD
:1015E00000F000FD08BD00005C580020084910B55F
:1015F00008600020FEF77CFF064800F001FA002892
:1016000004D1BDE81040034800F026B810BD00002A
:10161000F4570020F1040700002070471FB5890827
:10162000002201AB009283E80700684618DF04B08F
:1016300010BD00001FB5044B0FCB8DE80F006846AE
:1016400018DF04B010BD0000684107004FF480505F
:10165000410408600020704710B5040011D001203B
:10166000FFF7AAFF00280BD100F048FA00F0D8FAE3
:1016700048B10949081F00F091FA012803D003205E
:1016800010BD072010BD04480838C4600020FFF7D3
:1016900005F8002010BD00001C580020816819B119
:1016A000024A1821FEF77EB907207047B1160700DD
:1016B000AFF3008030B50446806887B020B9244974
:1016C00040F2CF20FEF784FA182222496846FCF740
:1016D000A8FE20788DF8000022781F4D0D2A34D204
:1016E000DFE802F0330B260B0B330B330B333333B2
:1016F0000700E968072088471AE020466946062A5D
:1017000001D0012A01D1027C2A702A78012A08D04E
:10171000022A09D0002028705FF005008DF8010032
:1017200006E0FFF781FE03E0FFF7E6FE00280AD09F
:10173000D4E90112684690479DF80100012802D0C3
:10174000E9680520884707B030BD0220E6E70000C1
:10175000B0440700904107001458002038B10549F3
:1017600001600549416001210172002070470E208F
:10177000704700007D170700B517070010B50C0073
:1017800001464FF0110007D02278052A05D2DFE884
:1017900002F00F050D0F0F000E2010BD084600F0DF
:1017A00051F80028F9D10221217010BD112010BD7F
:1017B000082010BD0246082041B10B78022B04D14D
:1017C000022A05D0032A00D1112070470E2070474D
:1017D000002003220A70704770B50B480024D0F82F
:1017E0002413491C03D1D0F86403401C09D04FF4E2
:1017F000FE25284600F072FCC9220349284600F065
:1018000085FC204670BD00002874002010B528B16A
:101810001C220349FCF705FE002010BD0E2010BD60
:1018200064F3070010B5064C00221821201DFEF7B6
:10183000DBFC2168814201D1012010BD002010BDD8
:1018400064F3070070B50C4D0400D5F8640305F58A
:10185000597503D0401C03D0082070BD0E2070BD08
:1018600000221821201DFEF7BFFC20600722214620
:10187000284629DF70BD000000F00700014901F093
:10188000EDBE000000F007002DE9F047FFF794FEE1
:10189000002860D13148FEF7C5FC314E0746346858
:1018A0002046FEF7BFFC4FF0010A4FF0000958B187
:1018B0006068012806D02046FEF712FCD4F85C12BE
:1018C000884201D1012500E00025264C4FF46071CB
:1018D0004FF002089FB10A4620492046FCF7A1FDBF
:1018E0009DB1366825465422311D281DFCF799FD0F
:1018F0004FF4327206F15C0105F15C0003E045B182
:101900000A4618483168FCF78CFD6068012804D04D
:101910001CE01448FCF79EFD16E01349402201F537
:10192000E470FCF77EFD10491C22403101F5E470A3
:10193000FCF777FD84F8609284F8A1A20B4884F844
:10194000E292E169C0F82210C4F80480002000F09F
:1019500029F8002800D00320BDE8F08700F0070038
:10196000245800202874002084750020A8760020C8
:1019700070B50546094801F08DFE084C20602046F0
:10198000FEF7AEFBC4F85C02A4F5E0632A462146EC
:10199000BDE87040024801F083BE000028740020BA
:1019A00000F0070070B505460020FFF7E1FF0400D6
:1019B00003D10349284601F051FE204670BD0000C6
:1019C000287400204FF48050704700002DE9F0414A
:1019D00007460948094D401BC6080020044607E099
:1019E00005EBC400416838468847002802D1641CD2
:1019F000B442F5D3BDE8F0819C4707009447070047
:101A00002DE9F04107460948094D401BC608002052
:101A1000044606E055F8341038468847002802D1BD
:101A2000641CB442F6D3BDE8F08100009C47070077
:101A300094470700012201F061BB000038B514464D
:101A400002780B4692B1012A09D0022A10D0032A4B
:101A500016D010494FF47770FEF7BAF818E0D0F8B6
:101A60000150002221461846FEF7BEFB012038BD7A
:101A700001B02246BDE830400023401C00F00CB805
:101A8000411C40220020009400F0F4F80128EED020
:101A9000002038BD884507002DE9F041AAB0054671
:101AA0002020884628901E4617460124782102A847
:101AB000FCF7D0FCFEF7C6FB2EB12022294620A859
:101AC000FFF7B6FB20AD28A90A48CDE900013B4647
:101AD0004246094902A8FFF7EBFA28B92022294615
:101AE0000448FCF7C2FC00B100242AB02046BDE83F
:101AF000F08100007C7B0020783E070010B506488E
:101B0000064C806B20B101F0B7FF08B1012000E066
:101B10000020207010BD00002874002028580020EC
:101B20002DE9F0410F4C07460D46E06BA26B0126F4
:101B30004119914201D9032610E00A492A465C3135
:101B400008443946FCF76DFCE06B064A2844E06324
:101B5000403229463846FEF747FB20643046BDE850
:101B6000F08100002874002070B504004FF00105DA
:101B700004D0B4F5007F03D9042508E0032506E06E
:101B8000044900200870FEF7C5FC0348846328461A
:101B900070BD000028580020287400202DE9F04175
:101BA00006461D480F46C16B806B814201D0082458
:101BB0002FE01A4D287840B1FFF7BCFB3060394662
:101BC000E86802F079F8044623E001F055FFF8B127
:101BD00000F02CF80446002030603860012C0FD152
:101BE0003946E86802F068F80446012808D13868E8
:101BF000012700213B460A46FFF7B6FB18B1042433
:101C0000FEF788FC05E0FFF795FB30602F7000E0E1
:101C100005242046BDE8F0812874002028580020C3
:101C200001480078704700002858002038B50F4C54
:101C3000251D002094F86C31014602463BB194F812
:101C4000D802B4F8DA2204F5B87504F53771084BF8
:101C50009C6800945B6800F00DF8012804D1281DF1
:101C6000BDE8384000F050B838BD0000A87700202B
:101C7000285800202DE9F041A2B0064620200D464C
:101C800020901F461446DDF8A080782102A8FCF7BA
:101C9000E1FB00202190FEF7D5FA25B12EB11620E8
:101CA00022B0BDE8F0811320FAE720A91448CDE95D
:101CB000000143463A46134902A8FFF7F9F908B96B
:101CC000402C01D00A20EBE70D4822462946403837
:101CD000FCF7A7FB0A4820214038FFF77AFA0848AA
:101CE00040214038CDE90001A0F14801044A21A873
:101CF000209BFFF7AFF908B10520D1E70120CFE71E
:101D00005C7B0020783E070070B504004FF00105B1
:101D100003D11F49C420FDF75BFF94F8540078B34A
:101D200094F8550028B1012803D0022801D00328D7
:101D30002BD11CB91649A320FDF74AFF94F86E0079
:101D4000032801D0142521E094F8920010B194F8F2
:101D50009300D8B9207A98B1E068342801D01125D1
:101D600014E0204601F008FC30B1207848B120464C
:101D7000FEF7BCFC10B109E0122507E0102505E0D4
:101D800003E094F85500012800D00F25284670BDC7
:101D9000D04507002DE9F0411E4615460F460400C8
:101DA00003D11DA19E20FDF713FF206818B91AA1C9
:101DB0009F20FDF70DFF1DB917A1A020FDF708FF1B
:101DC00039462046FDF760FD40B939462046FDF70B
:101DD0005BFD18B910A1A320FDF7FAFE6068394633
:101DE000026820466A43FDF758FD58B960683946D5
:101DF000026820466A43FDF750FD18B906A1A520E8
:101E0000FDF7E6FE206833462A46D0F810C0394672
:101E10002046BDE8F04160472E2E5C2E2E5C2E2E13
:101E20005C2E2E5C2E2E5C636F6D706F6E656E7413
:101E3000735C6C69627261726965735C6673746FFE
:101E4000726167655C6E72665F6673746F726167FC
:101E5000652E630070B516460C46050003D108A137
:101E60005520FDF7B5FE1CB905A15620FDF7B0FEC3
:101E70002C60314628462268BDE8704010470000BB
:101E80002E2E5C2E2E5C2E2E5C2E2E5C2E2E5C6357
:101E90006F6D706F6E656E74735C6C696272617287
:101EA0006965735C6673746F726167655C6E726698
:101EB0005F6673746F726167652E63002DE9F04190
:101EC00028B1016819B1C969BDE8F04108470D4D55
:101ED0000D480024461B14270DE000BF04EB8400CE
:101EE00005EB8000016829B1C969884710B101205C
:101EF000BDE8F081641CB6FBF7F0A042EED80020EC
:101F0000F6E700005C5800207058002004480121CA
:101F10004174007A08B1002070470120704700002A
:101F2000947D0020012801D0032808D10449002213
:101F300001284A7400D00020087401F003BA7047E9
:101F4000947D002070B50146022801D0032943D1B9
:101F5000224C207A00283FD0012831D002282FD1EE
:101F60001F4800230229006802D0032928D119E064
:101F7000E360027912B1012A22D10BE0D0E90565B4
:101F8000721B142A00D314222A4482614569AA4292
:101F90000ED015E00169491C0161426991420FD1DF
:101FA000237213E0E268521CE260082A08D9E36059
:101FB000237202290AD00D21FEF737FB01F0B8F990
:101FC000607C28B1BDE8704000F0EAB90021F3E779
:101FD000BDE8704001F0B6B970BD0000947D0020EE
:101FE0004C5800202DE9F8431D46089F16468846A8
:101FF000040003D12AA18820FDF7EAFD1EB928A11B
:102000008920FDF7E5FD206818B925A18A20FDF794
:10201000DFFD1DB922A18B20FDF7DAFD6068406865
:10202000B5FBF0F100FB115141B1B5FBF0F100FB44
:10203000115018B11AA18E20FDF7CAFD4046FDF7D8
:102040001DFC38B94046FDF719FC18B914A19120C0
:10205000FDF7BEFD3046FDF711FC38B93046FDF7FF
:102060000DFC18B90EA19220FDF7B2FD2A4641469B
:102070002046FDF712FC48B92A4641462046FDF7A6
:102080000CFC18B906A19320FDF7A2FD009720686B
:102090002B463246C76841462046B847BDE8F8831C
:1020A0002E2E5C2E2E5C2E2E5C2E2E5C2E2E5C6335
:1020B0006F6D706F6E656E74735C6C696272617265
:1020C0006965735C6673746F726167655C6E726676
:1020D0005F6673746F726167652E6300094902223F
:1020E0000A60BFF36F8FBFF34F8F0A1D1060064861
:1020F0000268002AFCD000200860BFF36F8FBFF396
:102100004F8F704704E5014000E4014070B50E4C6C
:1021100001232360BFF36F8FBFF34F8F00230B4D5D
:1021200008E000BF51F8236040F823602E68002EBD
:10213000FCD05B1C9342F5D300202060BFF36F8F6F
:10214000BFF34F8F70BD000004E5014000E4014083
:1021500001480068C0B270471C05004008B5002265
:1021600042504058009008BD20B103490968016001
:10217000002070470E2070477C430700FEB50646DE
:102180000D460846FFF7F0FF002845D100240094D3
:102190000194012706208DF80060ADF80400029438
:1021A0008DF80270694620202A6869DF00948DF856
:1021B00001708DF80240019402948DF80340694645
:1021C00040202A6869DF00948DF80060F720ADF8A0
:1021D000020001940294694623202A6869DF009472
:1021E0000A208DF8000001940294694601202A68B3
:1021F00069DF4FF4B0600090019402946946A12019
:102200002A6869DF0094019402948DF800406946C1
:10221000A0202A6869DF0020FEBD000060DF0028E2
:1022200002D1024A01211170704700005758002066
:1022300030B51848ADF5017D0078002826D04FF460
:10224000FA7400BFADF8004280A9684661DF38B17A
:1022500005281BD00DF5017DBDE83040FDF7A0BB82
:102260006D460D497DA800F0F1F809E07DA800F069
:10227000D5F8D0E90021284690477DA800F024F940
:102280007DA800F0CBF80028DCD0EFE70DF5017D4C
:1022900030BD00005758002080430700F8B5134CAC
:1022A0002078C0B10120A07001F0A2F9112814D04B
:1022B000022001F0B9F900258DF800506846FDF7BD
:1022C000F7FB11DF064625709DF80000FDF73CFC8A
:1022D0002EB13046F8BD0820F8BD0020F8BDA5702D
:1022E00001F082FB032001F09FF9F6E7545800202B
:1022F0007CB5194C207808B108207CBD0120A07065
:10230000002001F075F9112819D0002001F08CF996
:1023100012480026006801908DF800606846FDF7BD
:10232000C7FB0F4901A810DF05000AD0002020706C
:102330009DF80000FDF708FC2DB128467CBD00206B
:102340007CBD0120F3E7A670667001F069FB0120F7
:1023500001F06AF9F3E70000545800201443070025
:102360009DF906000EB50A49684600F06FF808E0CE
:10237000684600F047F8D0E900108847684600F04A
:10238000A3F8684600F03EF80028F1D10EBD000029
:10239000304307000148007870470000545800207F
:1023A0000548817819B1007818B1FFF777BF082088
:1023B0007047FFF79DBF0000545800201FB56846C6
:1023C0004BDF30B1052819D004B0BDE81040FDF74F
:1023D000E7BA0B4901A800F039F809E001A800F0BC
:1023E00029F8D0E900210098904701A800F06CF886
:1023F00001A800F01FF80028E1D0EFE71FBD0000A2
:102400009C43070010B5040003D10349C420FDF725
:10241000DFFBA06810BD00007046070010B5040087
:1024200003D10349C420FDF7D3FBA06810BD000011
:102430007046070010B5040003D10349C420FDF71E
:10244000C7FBA06810BD00007046070070B50D46C0
:10245000040003D108495020FDF7BAFB1DB9064915
:102460005120FDF7B5FB2560286860602046BDE877
:10247000704000F003B800001C46070010B50400CF
:1024800003D110493320FDF7A3FB206818B90D498B
:102490003420FDF79DFB606818B90A493520FDF727
:1024A00097FBD4E900104A68904201D1002004E073
:1024B000D0E900239A4202D01046A06010BD083037
:1024C0006060F0E71C46070010B5040003D1124914
:1024D0006320FDF77DFB206818B90F496420FDF7E4
:1024E00077FBA068002815D0216889680844A0609F
:1024F000606818B908497320FDF76AFBD4E9010147
:102500004268914206D1083060602046BDE8104024
:10251000FFF7B4BF10BD00001C4607002DE9F041D5
:1025200004461348134BC01A0C21B0FBF1F6A06906
:102530004FF0FF3110F8022C02B92169002011E0A0
:1025400000EB400503EB85052F68974209D14F1C2E
:1025500002D06F688F4204D194E80F00AD68A8479D
:1025600003E0401CB042EBD301202060BDE8F081C5
:10257000EC470700E047070010B514461268083022
:10258000202A02D248F2145010BD002201F0B8F8FF
:102590000028F9D120202060002010BD083001F073
:1025A00037B9083001F0F6B902480068002800D0B9
:1025B0000120704700040140034908600348016896
:1025C0000029FCD07047000004E5014000E4014010
:1025D00070B50D46040004D115494FF48970FDF71C
:1025E000F7FA206920B9124940F21310FDF7F0FA0A
:1025F000A08A20B90E494FF48A70FDF7E9FA25B98F
:102600000B4940F21510FDF7E3FAA18A2069FFF7A4
:1026100087FAFEF734F868702846FDF7D3FDE168C5
:10262000002903D02069BDE87040084770BD000054
:10263000B044070030B587B00C460546182217494C
:102640006846FBF7EEFE217B15488DF800100195DA
:10265000012906D0022917D0062919D1607B0490E0
:1026600016E08188C180607B0490217CE08961F361
:102670001F40617C40EA016005900498012807D161
:102680000848FFF7A3F903E0B4F80D108180C1807A
:102690006846FFF703F807B030BD0000B8400700F8
:1026A000F8570020944707002DE9F0410C460546F5
:1026B000FFF7B6FA0826B8B16969032041B3154A95
:1026C000154B0F0505D0576DD3F808C00F4467456B
:1026D0001ED1B1F5805F01D9042019E0506DD3F807
:1026E00008C04718674502D96670BDE8F08151649B
:1026F000D16C10659164106369695A6801F6FF71C5
:102700001044090B0022FEF74FFF0028EDD00520F2
:102710006070EAE7287400201458002010B50446C1
:1027200086B00020FFF7CAFB30B1154A18212046B9
:10273000FDF738F906B010BD182212496846FBF7BC
:1027400070FE1148026D114881688A4210D14068BC
:10275000FFF770F98DF80100FDF791FF8DF801008A
:10276000D4E90112684690470948FFF71BF9E1E7F1
:1027700001208DF80100D4E9011268469047D9E79D
:102780001D270700784107002874002014580020F6
:10279000252807002DE9F0410E460546FFF740FACF
:1027A00060B11D4CD4E91401401AA98A626C084436
:1027B000904205D903207070BDE8F0810820FAE747
:1027C000164A206B526800EB0208134A2869483207
:1027D000FDF70AFD0746E86820B911494FF4F87083
:1027E000FDF7F6F9D5E90331AA8A4046FEF7F2FE75
:1027F00020B1D5E90310BDE8F0410847A98A206B54
:1028000008442063A98A206DA76408442065B76046
:10281000206D7060D0E7000028740020145800205C
:10282000B044070001490620C96808471458002031
:1028300009480068C00700D000BEBFF34F8F0648AC
:10284000E4380168054A01F4E06111430160BFF317
:102850004F8F00BFFDE70000F0ED00E00400FA0537
:1028600001460148FEF764B99C47070030B58A1D50
:102870008B79083187B0022B33D153888489A342E6
:102880002FD1127A012A2CD1184C0DF1040C3CCC1A
:102890008CE83C000A89ADF80C204A890C3104917F
:1028A0001249ADF80E208039114C096A0591CDF816
:1028B00018D0018A05AA6088ADDF18B96846FDF70F
:1028C00003FC38B10020ADF8080001A96088B0DF32
:1028D00050B106E040F2FD10ADF8080001A9608893
:1028E000B0DF002007B030BD0120FBE7D04007007B
:1028F000F8570020F8B50D4614460646694600F024
:102900005DFA00280FD0009BB3F5803F0AD2981CD7
:10291000834207D8A9780222B2EB911F02D02989FD
:10292000814201D20020F8BD2380A11C3046009ACC
:1029300000F07AFBF8BD114600F0D5B8114600F062
:10294000E7B8F8B50C4615460646694600F036FA73
:1029500000280CD0009A501C904207D3A178022383
:10296000B3EB911F02D02189814201D20020F8BD32
:102970002946304600F058FB009A0021A954F8BDC2
:102980002DE9FF410C46CE6817460546694600F022
:102990001DFB00280ED0E06800280BD0A0783A4636
:1029A000C0F3011002283146684606D000F0DEF878
:1029B0000199696004B0BDE8F08100F085F8F7E79F
:1029C0007CB50D461446694600F095F9002820D0E4
:1029D0002889082806D0042809D002280AD001280E
:1029E0000CD015E0DDE90001C4E900010AE000981F
:1029F000206006E0009800B2208002E0009840B21B
:102A00002070C117DDE9002350405940084301D030
:102A100000207CBD01207CBD7CB50D461446694676
:102A200000F0A7F9002820D02889082807D0002125
:102A3000042809D002280AD001280CD014E0DDE9CE
:102A40000001C4E9000109E00098206006E0009858
:102A500080B2208002E00098C0B22070DDE900233F
:102A600050405940084301D000207CBD01207CBD6E
:102A70007CB50D461446694600F07BF9002820D04D
:102A80002889082808D00099CA1704280BD00228E2
:102A90000CD001280DD013E0DDE90012C4E90012CA
:102AA0000846134608E00846216004E008B220808A
:102AB00001E048B22070C31748405340184301D08A
:102AC00000207CBD01207CBD70B50D460646144635
:102AD0001146284600F095FA224629463046BDE8C0
:102AE000704000F043B838B50C460422694600F047
:102AF0009BFA00280BD09DF80210BDF8000061F38E
:102B00001F409DF8031040EA01602060012038BD9D
:102B10001CB50C460822694600F086FA002824D02D
:102B20009DF801109DF800209DF80230080E42EA41
:102B3000012242EA034240EA13409DF803309DF827
:102B4000041040EA132008439DF8051042EA03628E
:102B500040EA01209DF8061040EA01409DF8071068
:102B600040EA0160C4E9002001201CBD2DE9F04FBE
:102B700005469DB000200F90064610904FF0FF3A9A
:102B800001A800F05FF94FF0010B0DF13C0983E063
:102B900012AB6A460BA9284600F0CAF850B101A84A
:102BA000009900F060F960B10298807810F0300F61
:102BB00054D061E09DF84800002871D11DB0BDE8F7
:102BC000F08F0098B04243D3029C01AE0298807807
:102BD00000F00F00082812D0304600F05BF9029890
:102BE000A042F3D156460098B04231D3D5F80880C0
:102BF00007909DF82C000E900598046821E002983B
:102C00000688F0E7206807682FB1214628460E9B0A
:102C1000079AB84712E01195216807980E9F8968B6
:102C2000098881420CD1214617A8FDF78DFE84F852
:102C30000CB017AA39461198FDF76FFB0028BDD0DC
:102C4000A46814B1A9684145DCD0A968414523D1E5
:102C50009DF82C10284600F023FA1BE0039840282A
:102C60000AD200F01F000BFA00F20398400959F84D
:102C70002030134349F82030EC682CB101AB9DF8AB
:102C80002C2028460099A04701AA9DF82C10284620
:102C9000FDF743FB002891D0A86800287FF478AFA7
:102CA000DDE90204857801A800F0F4F80028F7D1E6
:102CB00015F0300F03D10298008800B1641CC4B134
:102CC0000020494605E000BF51F82020521C0ED1DB
:102CD000401CB0EB541FF7D3600959F8201004F0E2
:102CE0001F00C0F120022AFA02F0814201D0002028
:102CF00064E7012062E71CB50C46694600F039F82C
:102D0000002814D0DDE90002C10709D051084FEABC
:102D100030006FEA00026FEA0100C4E9002004E01D
:102D200051084FEA3000C4E900014FF001001CBD1A
:102D3000F8B507460020187008700E4610601C4653
:102D400015466946384600F039F801004FF0010099
:102D500009D0009959B1C8082860009800F0070010
:102D600030700120F8BDB96809B10020F8BD2070AD
:102D7000FBE72DE9F8430026884681463446354670
:102D800004E0402E02D30020BDE8F883694648469F
:102D900000F076F90028F7D09DF80070324607F071
:102DA0007F00C10FFBF72EFB29430443F61D0D46A0
:102DB0003806E6D4C8E900410120E5E7F8B50E463B
:102DC0000746694600F05CF900280AD09DF80040EB
:102DD000200616D5072504F07F0403E0202D01D33B
:102DE0000020F8BD6946384600F04AF90028F8D0BE
:102DF0009DF8001001F07F00A8400443ED1D080677
:102E0000ECD401203460F8BD10B559680B4AC9688C
:102E1000914212D10A4AD0E90110D2E90134234388
:102E200001D0002008E011F8013BA0F101001B06D1
:102E3000F9D4C2E901100120907010BD003F0700D5
:102E400028580020C26000230160C0E901138B886C
:102E50001A440261B1F906301A4442610888002818
:102E600000D00120704770B545680E460446606882
:102E70000188B14206D1807800F00F00082801D007
:102E8000012070BD204600F005F86068A842EED130
:102E9000002070BD30B541680A885AB101F11003B5
:102EA00043600A8A42B18C780A89C4F30115032D64
:102EB00007D00BE0002030BDC2680168FFF7C2FFF9
:102EC000F8E79D78C5F30115032D06D00225B5EB73
:102ED000141F08D14C89624309E08D8804690022DF
:102EE000641B046103E0B5EB941F00D104228978D0
:102EF00011F0300F02D18168491C81609C88016902
:102F0000214411440161B3F90620114441610120BB
:102F100030BD30B54168002487B0897801F00F02D8
:102F2000082A11D08A091ED00222B2EB911F09D1C2
:102F30000269C1F301110229146001D0032901D1F2
:102F40004069048007B030BD0069056808E02C7353
:102F500029466846FDF7F8FC6846FFF7DAFFAD68DA
:102F6000002DF4D1EEE7C1F30111012912D002299D
:102F7000E6D00329E4D04268917801F00F010729D7
:102F80000BD0D16881B11289006907B0BDE830402B
:102F9000FBF747BA41690C70EDE70169D06807B0EB
:102FA000BDE8304000F02DB81189006907B0BDE8D8
:102FB0003040FBF74FBA000010B5034B002408C0A7
:102FC00080E8160010BD0000A901070038B50D46C5
:102FD00004466946FFF7F2FE00280BD0D4E9000250
:102FE000D4E90213C5E90002C5E902130098814241
:102FF00001D2002038BDA860A168081AA060012095
:1030000038BD00B50A4687B001466846FFF71AFF8B
:10301000002807D06846FFF77CFF6846FFF73AFFB5
:103020000028F7D107B000BD7FB514460546A9B901
:10303000124A2868904208D110E0102269462846BA
:10304000FFF7F2FF002807D0103C102CF5D82246DD
:1030500069462846FFF7E8FF04B070BDA868A042A3
:1030600001D20020F8E72B6822462846984700281E
:10307000F2D0A868001BA8600120EDE7A9010700B5
:1030800010B504468068002809D023680122204634
:103090009847002803D0A068401EA060012010BD02
:1030A00038B5002439B1012912D0022912D00529DE
:1030B0001DD0002038BD0546012269462846FFF78D
:1030C000B3FF90B19DF800000006F5D4012038BD93
:1030D00008220DE005466946FFF770FE28B1002181
:1030E0002846009AFFF7A0FF38BD204638BD0422CD
:1030F000BDE838400021FFF797BF00002DE9FC41F3
:103100008046224817460E46C5680A4601244146B5
:103110002846FDF7D5FA70B195F8550068B100F072
:103120000101C0F3400243462846CDE9006700F0A4
:1031300067F848B109E0172407E03B4632464146AC
:10314000284600F027F8F4E70524114D6FB1012C53
:1031500013D005F12400FEF7FDF800BFFDF7DAF902
:10316000C5F848802046BDE8FC81012C02D0FDF75F
:10317000D1F9F7E701206861F4E7002231464046C3
:10318000FDF732F8C5E90960E8E70000285800209B
:10319000287400202DE9F041044690F8550094B0C1
:1031A0001E461746884620B1124940F22A30FCF7E5
:1031B0000FFD0125CDE9007543460022214602A8F6
:1031C000FCF794FF002812D086B1412202A90A48D8
:1031D000FBF727F909480021C562016294F89210B3
:1031E00011B194F8931009B961688160012014B09D
:1031F000BDE8F08188450700C976002028740020CA
:103200002DE9F047A4B08846DDE92C6A04469946CA
:103210001546442102A8FBF71DF9442113A8FBF72A
:1032200019F94F4658EA050004D136494FF4597050
:10323000FCF7CEFCB8F1000F24D009F50051324B59
:103240004A68A06D9A4241D18A68411EC1F30B01C0
:10325000401A41F6FF710844824237D34846FDF7D1
:1032600043FB00B18DB30121A06DCDE900014B46B8
:103270000022214602A8FCF739FF002827D0A06DC4
:103280000744361A55B10020CDE9006002463B469E
:10329000214613A8FCF72AFF002818D0BAF1000F26
:1032A0002ED01A4EB8F1000F19D04846FDF71CFB7E
:1032B00018B106F11800FEF74DF8412202A9144892
:1032C000FBF7AFF835B1AC2005E0FFE7002024B0F4
:1032D000BDE8F087A520F062A06D706301E0AA2030
:1032E000F0626DB10A48412213A98230FBF799F8C8
:1032F00094F8920010B194F8930008B96068F060F7
:103300000120E4E788450700DBE5B151287400207F
:1033100088760020EFF30580C005C00D01D00120A4
:103320007047EFF3148040F30000401C704700002A
:10333000034802490068FDF763BB000050580020B5
:10334000D44107002DE9F041224C0025224E207A7D
:10335000012730B92148311D0068FDF75CFB306062
:1033600038B1022020723168087928B101281CD1B7
:1033700014E06560BDE8F081D1E90503C01A1428A6
:1033800000D31420B7EB900F01D2820800E0012295
:103390000869C9681844194429DF03E0D1E9030129
:1033A000084428DF58B1112812D003213068FDF7F6
:1033B0003CF925726560BDE8F041FFF7B9BF207C9C
:1033C0000028D7D1BDE8F04100210220FEF7BABDA8
:1033D0002772CFE7947D00204C580020D44107008D
:1033E00010B5074C201DFDF72FFB002806D1607C8F
:1033F000002803D1BDE81040FFF7A4BF10BD0000B6
:10340000947D002010B510461A46FBF70AF80020FC
:1034100010BD10B510461A46FBF703F8002010BD8A
:103420002DE9F0411E681C461546074621B10129C9
:1034300018D0052923D119E000202060401C20600D
:10344000B0421CD8012229463846FFF7EDFD00287E
:1034500006D015F8010B000601D52068EEE7012023
:10346000BDE8F08108200246186002E00420024610
:10347000186029463846BDE8F041FFF7D5BD002069
:10348000EEE770B516460A460446C11C104600F029
:10349000F1FB054661193046C91C00F0EBFB2844DE
:1034A00070BD000003B5094A85B0D2E91612CDE916
:1034B000001207498989ADF8001006A9CDE902106C
:1034C000044869464088AEDF07B000BD50400700A1
:1034D000CC5C0020F857002008467047084670472B
:1034E00070B5FEF76FFA114A114E136B546B916C65
:1034F000E21A551EC5F30B05521B42F2040518448F
:103500006D5802F6FF72B54201D0032070BD194418
:10351000A34201D1002070BD0823FDF745F9002822
:10352000F9D1BDE87040FEF73DBA000028740020D4
:10353000DBE5B151F0B50546002003464FF4405499
:103540000C4E4FF6FE7712E0D4F804C0B44505D116
:1035500055F823C0B4F80CE0F44504D02AB155F86E
:1035600023C0BC4501D10120F0BD5B1CDBB28B4206
:10357000EAD3F0BDDBE5B15110B5040003D11A491F
:103580005320FCF725FB4FF440501849406888420F
:1035900021D1218A71B1626904F11400002A94F8E2
:1035A00055200BD0042A07D00022BDE81040C9B234
:1035B000FFF7C0BF002010BD0122F6E712B1012ABB
:1035C00007D1F7E7012904D9C9B20022FFF7B2FFFA
:1035D000F0E7012010BD208A10B160690028E9D110
:1035E00020780028F5D110BDD0450700DBE5B151AA
:1035F0003EB504460B496846FEF728FF0AE06846D8
:10360000FEF700FFD0E900212046904740B1684610
:10361000FEF75AFF6846FEF7F5FE0028EFD13EBDE3
:1036200011203EBD184307003EB504460A496846CE
:10363000FEF70CFF09E06846FEF7E4FED0E9002142
:10364000204690476846FEF73FFF6846FEF7DAFEE1
:103650000028F0D13EBD00002443070070B50546A8
:103660000C460846FCF7DEFD20B9074940F2791008
:10367000FCF7AEFA06482A4621460068BDE87040CD
:10368000024B00F00DB80000FC440700A8700020B9
:103690002458002000225821001DFCF7A5BD000081
:1036A0002DE9F04114464FF460761D460F468046E2
:1036B0003246FAF7DAFE30B1002201214046FDF72A
:1036C00073FFC8B905E00CB10020A0470020BDE899
:1036D000F08125B909494FF4AA70FCF779FA32460E
:1036E00039462846FAF79DFE23463246294640468B
:1036F000FDF770FF0028EAD00320E8E7FC4407004C
:1037000070B516460D46040007D035B1206C8022F6
:1037100000213828225403D307E00E2070BD215425
:10372000401C3828FBD30BE02154401C4028FBD31D
:103730002146084600F096F838212046FAF78AFE1E
:10374000216CD4E912304A0FC9003834591850415D
:10375000C4E90410227CE2710A0A42EA0062A27102
:103760000A0C42EA00426271020242EA11602071D0
:103770006069E070010AA170010C6170000E04F82C
:1037800038092146084600F06DF84FF00002EEB10E
:10379000E06ED100C840A854A36ECB40A8180371B6
:1037A000636ECB400372236ECB400373E36DCB405B
:1037B0000374A36DCB400375636DCB400376236D1B
:1037C000CB40521C0377042AE2D31FE01823504257
:1037D000216D03EBC000C140A954666DC640A91815
:1037E0000E71A66DC6400E72E66DC6400E73266E53
:1037F000C6400E74666EC6400E75A66EC6400E7646
:10380000E66EC640521C0E77042AE0D3002070BD3D
:10381000A8B100210164C0E912110A4901650A49F1
:1038200041650A4981650A49C1650A4901660A4933
:1038300041660A4981660A49C166002070470E2028
:103840007047000067E6096A85AE67BB72F36E3C9D
:103850003AF54FA57F520E518C68059BABD9831F5B
:1038600019CDE05B2DE9F04FC8B0002213466F463A
:10387000CC181B1D2588A6786DBA2D04E47845EA7E
:103880000625254347F82250521C102AF0D31BE08E
:1038900007EB820151F8083C4FEA734484EAF34491
:1038A00084EA932451F83C3C4FEAF31585EAB3458A
:1038B00085EAD303234451F81C4C51F8401C2144A1
:1038C000194447F82210521C402AE1D3036D479354
:1038D000416D4691846D4594C26D44929246026E4C
:1038E0004392456E4295A946856E4195C66E4096B7
:1038F000B34600264FEAB21787EAF22787EA726CCE
:1039000002EA090725EA020887EA0807BC44204FB3
:1039100057F8268008EB0B07BC445DF82670AB46D1
:103920000CEB070E4FEAB30787EA733787EAB35CFD
:1039300081EA04074D4601EA040891461F400AEB5C
:103940000E02A24687EA08070C46BC441946761CBC
:103950000EEB0C03402ECDD3479E33440365469BAC
:103960001944416545992144816544995144C16593
:103970004399114401664299494441664199294459
:10398000816640995944C16648B0BDE8F08F000097
:10399000044207002DE9F04116460F46040004D00A
:1039A00006B317B10025A8461AE00E20BDE8F08145
:1039B000216C785D6054206C401C206440280ED13E
:1039C00021460846FFF74EFFD4E912014FF400727A
:1039D000801841F10001C4F84080C4E912016D1C57
:1039E000B542E5D30020E1E710B51620FBF734FF20
:1039F00048B10A4882684FF4800152B1016821F44D
:103A00008001016010BDBDE8104042F20100FBF7EB
:103A1000C7BF4FF0E020C0F8801110BD9C7B002094
:103A200010B51620FBF718FFA0B1114890F800045C
:103A30004009082811D20121814011F0EC0F0CD06F
:103A40000C4882684FF480016AB1016841F480013A
:103A5000016010BD42F2010001E042F20200BDE847
:103A60001040FBF79DBF4FF0E020C0F8001110BDE3
:103A700016E000E09C7B00207FB52A4800F15C0145
:103A8000826B6846FFF798FA274E9DE8070006F11B
:103A90001C03274C83E8070019462448C86000200F
:103AA000A0706060A0604FF44771A6F54070FAF70F
:103AB000D1FCA6F540721F4902F54770FFF704F8E4
