:020000040002F8
:10600000F0720020C5630200CD630200CF6302007E
:10601000D1630200D3630200D563020000000000D8
:10602000000000000000000000000000D763020034
:10603000D963020000000000DB630200DD630200A0
:10604000DF630200F1730200657B0200D17502007C
:1060500025760200DF630200A56C02007174020065
:10606000DF630200797A0200DF630200DF6302006F
:10607000DF630200DF630200DF630200DF63020010
:10608000DF6302004D740200DF630200DF63020081
:10609000357602008D760200DF630200DF630200C6
:1060A000DF630200DF6302008D7A0200B97A02002A
:1060B000E1730200DF630200000000000000000046
:1060C000DF630200DF630200DF630200DF630200C0
:1060D000DF630200DF630200DF63020000000000F4
:1060E00000000000000000000000000000000000B0
:1060F00000000000000000000000000000000000A0
:10610000000000000000000000000000000000008F
:10611000000000000000000000000000000000007F
:10612000000000000000000000000000000000006F
:10613000000000000000000000000000000000005F
:10614000000000000000000000000000000000004F
:10615000000000000000000000000000000000003F
:10616000000000000000000000000000000000002F
:10617000000000000000000000000000000000001F
:10618000000000000000000000000000000000000F
:1061900000000000000000000000000000000000FF
:1061A00000000000000000000000000000000000EF
:1061B00000000000000000000000000000000000DF
:1061C00000000000000000000000000000000000CF
:1061D00000000000000000000000000000000000BF
:1061E00000000000000000000000000000000000AF
:1061F000000000000000000000000000000000009F
:10620000DFF810D000F018FC00480047C5E8020095
:10621000AFF30080F072002030B4044654E8000F61
:106220000D4644E80053002BF8D1156030BC704790
:1062300030B4044654E8000F40EA010544E8005336
:10624000002BF7D1156030BC704730B4044654E8D9
:10625000000F00EA010544E80053002BF7D1156058
:1062600030BC704730B4044654E8000F80EA0105A2
:1062700044E80053002BF7D1156030BC704730B4B0
:10628000044654E8000F00EB010544E80053002BDE
:10629000F7D1156030BC704730B4044654E8000FA5
:1062A000A0EB010544E80053002BF7D1156030BC8A
:1062B000704770B404464FF0000054E8006F0D685A
:1062C000AE4207BF44E80023012044E800630E60AB
:1062D000002B1CBF0020F0E770BC704730B40446B0
:1062E00054E8000F88422CBF451A054644E8005385
:1062F000002BF5D1156030BC7047000030B450E879
:10630000012F93B2C48923448489A34228BF1B1B55
:106310000489A34202BFBFF32F8F002007E0C3EA26
:10632000020340E80134002CE9D14FF001000A607B
:1063300030BC704750E8012FC2EA024240E8012118
:106340000029F7D1704730B450E8022F1FFAA2F3AA
:10635000C488A34202BFBFF32F8F00200DE0C48981
:1063600023448489A34228BF1B1BC2EA034340E89D
:106370000234002CE8D14FF001000A6030BC7047B5
:1063800050E8022FC2EA224240E802210029F7D158
:106390007047034653E8022FD988B2EB324F4FF0D3
:1063A000000017BF92B241EA014142EA014104E014
:1063B0005A68B2EB324F08BF012043E80212002AAC
:1063C000E8D170470648804706480047FEE7FEE7E9
:1063D000FEE7FEE7FEE7FEE7FEE7FEE7FEE7FEE795
:1063E0005D770200016202002DE9F05F05460020A2
:1063F00092469B4688460646814640241BE0284636
:1064000041464746224600F063F953465A46C01AB1
:10641000914110D311461846224600F016F82D1A65
:1064200067EB01084F4622460120002100F00DF8DD
:1064300017EB00094E41201EA4F10104DFDC4846A1
:1064400031462A464346BDE8F09F202A04DB203A25
:1064500000FA02F1002070479140C2F1200320FAB7
:1064600003F319439040704740EA01039B0703D0B0
:1064700009E008C9121F08C0042AFAD203E011F883
:10648000013B00F8013B521EF9D27047D2B201E045
:1064900000F8012B491EFBD270470022F6E710B529
:1064A00013460A4604461946FFF7F0FF204610BD82
:1064B0002DE9FE4F81EA030404F0004421F000417D
:1064C00000944FF0000B23F0004350EA01045ED02B
:1064D00052EA03045BD0C3F30A54C1F30A552C44B7
:1064E000A4F2F3340194A0FB0254C1F3130141F46C
:1064F0008011C3F3130343F4801301FB024400FB38
:10650000034E840A970A44EA815447EA8357A4FB5E
:10651000076802958D0A05FB07854FEA932C04FB5B
:106520000C542705029D4FEA065847EA1637B5EB8B
:1065300008056EEB070C870E920E47EA811742EAB8
:106540008312A7FB0201B6EB0B0164EB00042B0DD9
:1065500043EA0C335E1844EB1C50DA465146E7FB25
:106560000201C5F313044FEA0B3343EA14534FEA15
:106570000432019C43EA0603A4F10C040294009C3B
:10658000CDE900B400F0FAF803B0BDE8F08F0020C8
:106590000146F9E72DE9F04D81EA030404F0004BD0
:1065A00021F0004514464FF0000A23F0004150EA64
:1065B000050220D054EA01021DD0C5F30A57024655
:1065C000C5F31303C1F31300C1F30A5640F4801559
:1065D00043F48013A7EB0608101BD64608F2FD38DB
:1065E00073EB050002D308F1010801E092185B414A
:1065F000B8F1000F03DA00200146BDE8F08D00205D
:106600004FF48011064684460EE0171B73EB050716
:1066100005D3121B63EB050306434CEA010C490842
:106620004FEA300092185B4150EA0107EDD152EA7F
:10663000030012D082EA040083EA0501084305D072
:10664000101BAB4106D20122002306E000224FF0CE
:10665000004302E06FF0010253101AEB06004CEB0E
:10666000085110EB0A0041EB0B01BDE8F04D00F0C2
:1066700076B800F0004230F000400AD0C10D01F5BC
:106680006071C0F3160042EA0151C208400711438D
:10669000704700200146704701F0004330B421F0FC
:1066A000004150EA010206D00A0DA2F56072C1F362
:1066B0001301002A02DC30BC00207047440F44EA7A
:1066C000C104C100E01830BC00EBC25000F010B8AB
:1066D000202A04DB203A21FA02F00021704721FA37
:1066E00002F3D040C2F1200291400843194670479E
:1066F0000029A8BF7047401C490008BF20F00100D6
:10670000704710B4B0FA80FC00FA0CF050EA0104B3
:1067100004BF10BC704749B1CCF1200421FA04F445
:1067200011FA0CF118BF012121430843A3EB0C011E
:10673000CB1D4FEA00614FEA102042BF002010BC81
:10674000704700EBC35010440029A4BF10BC704731
:10675000401C490008BF20F0010010BC704710B574
:10676000141E73F1000408DA401C41F10001921874
:106770005B411A4301D120F0010010BD2DE9F04D1D
:1067800092469B4611B1B1FA81F202E0B0FA80F272
:1067900020329046FFF759FE04460F4640EA0A00B1
:1067A00041EA0B0153465A46084313D0114653EAB7
:1067B000010019D0C8F140025046FFF789FF054695
:1067C0000E46504659464246FFF73FFE084305D065
:1067D000012004E020463946BDE8F08D0020054345
:1067E00046EAE0762C4337430A986305E40AA0EBB7
:1067F00008000022FD0A44EA47540A3002D500206E
:106800000146E9E7010510196941DDE9084500196C
:106810006941BDE8F04DA2E72DE9FE4F804681EACF
:106820000300C00F0C46009021F0004123F000450A
:10683000B8EB0200A94105D24046214690461C46CD
:106840000B46024623F00040104347D0270DC7F304
:106850000A00C3F30A510290401A019040286BDAF3
:10686000C3F3130040F4801B0098924620B100232C
:10687000D2EB030A63EB0B0B01985946C0F14002BF
:106880005046FFF7E2FD06460D4650465946019A2E
:1068900000F0E4F810EB08006141002487EA11528F
:1068A00084EAE7731A4340D0009A62B3019A012A3E
:1068B0004FEA075215DC001B61EB02014FF000426A
:1068C00002EA0752CDE90042001C41F58011324630
:1068D0002B46FFF753FF03B0BDE8F08F404621463B
:1068E000F9E7001B61EB0201001C41F58013001861
:1068F0005B412018A2F5001747EB030140EAD57071
:10690000B6196D4111E06D084FEA360645EAC075CB
:106910004FEA0752001B61EB0201001C41F5801198
:1069200049084FEA30000019514132462B4603B066
:10693000BDE8F04FFFF713BF00980122400000238D
:10694000D0EB020263EBE073009821464FEAE0745B
:10695000B8EB000061EB0401E9E783F000435BE77B
:1069600081F0004158E72DE9F04D00231A461B1A2B
:106970008A4103DB00200146BDE8F08DC1F30A52D5
:10698000C1F3130141F480154FF0000BD10702D180
:1069900000186D41521E0027044640F2FF11384690
:1069A00001EB620A3E468046024600204FF4801109
:1069B000FFF78EFEC2197141BB1846EB0100B4EB24
:1069C000030C75EB000C04D3E41A65EB00051746C5
:1069D0000E46241908F101006D4180463428E3DD9C
:1069E000F91946EB0600091BA84103D24FF0FF320C
:1069F000134601E0002213461BEB070046EB0A5149
:106A0000BDE8F04DFFF7ABBE30B5041E71F10004D8
:106A100004DB4FF00044404264EB0101141E73F1AB
:106A2000000405DB1C464FF00043524263EB0403B5
:106A30008B4208BF824230BD064C074D06E0E0683D
:106A400040F0010394E8070098471034AC42F6D3B5
:106A5000FFF7DAFBC8440300E8440300202A06DB02
:106A6000CB17203A41FA02F043EAE07306E041FA1C
:106A700002F3D040C2F1200291400843194670470A
:106A80000EB5C10F80EAE0700844CA07002140F249
:106A900033438DE80E000A460B46FFF76FFE03B046
:106AA00000BD0EB540F2334102910021CDE9001145
:106AB0000A460B46FFF762FE03B000BD70B5C1F396
:106AC0000A5201F000450024C1F3130140F2FF33E4
:106AD00041F480119A4201DA002070BD40F2334344
:106AE0009A42A2F2334203DC5242FFF7F1FD00E08A
:106AF00090402C43F1D0404270BD70B58D1810F815
:106B0000014B14F0030201D110F8012B231106D11F
:106B100010F8013B03E010F8016B01F8016B521E05
:106B2000F9D1ABB110F8012B04F00C048A1A0C2C2B
:106B300003D0A2EB84129B1C08E010F8014BA2EBDF
:106B40000422F8E712F8014B01F8014B5B1EF9D55E
:106B5000A942D4D3002070BDFEB52F4D04461020AD
:106B600028700121284600F059F828786FF00106B6
:106B7000C0070AD0142009F09FF8112028700821BE
:106B8000284600F04BF8002801DA3046FEBD002010
:106B9000009001900290B5F90010B5F9022000EEC6
:106BA000101AB5F90400F8EEC00AB7EE080A60EE54
:106BB000800AFDEEE00A10EE901A00EE902AF8EE40
:106BC000E00A60EE800AFDEEE00A10EE902A00EE88
:106BD000900A11481730F8EEE00A06684E43A0F11B
:106BE0000C0120EE800A0F684DF827604668BDEE64
:106BF000C00A56434A6810EE103A4DF82260806889
:106C0000896858434DF82100009820600198606021
:106C10000298A0600020FEBD752300202DE9FC41F4
:106C20000A4608B1012A03DA4FF0FF30BDE8FC81C3
:106C30000178064600200C258DF80410D4B200908F
:106C4000012301AA2946064808F002FB0448294608
:106C5000001D3246234609F0DBFD40B2E6E70000A6
:106C60001841030003480078002802D0024805F0CC
:106C7000A2BF7047CC2200207C450020074810B5F9
:106C80000078002809D00021054807F091FBBDE8F5
:106C900010400021024807F093B910BDD82200200F
:106CA000144600202DE9F04700268AB0DFF8509105
:106CB000B0464FF48075012437460696284608F002
:106CC00043FF38B1D9F80403204203D0284608F026
:106CD00031FF26432D1D64007F1CADB2082FEDD37C
:106CE0004FF4BE74204608F02FFF48B1204608F04C
:106CF00021FF46F0004606AA0121002008F006FF09
:106D0000404D16F0FF0F15D00127002437420DD05B
:106D100009EB8401D1F81005D1F81015C0F3042057
:106D200055F82420C1F3014102B190477F00641C53
:106D3000082CEBD3002E5FDA4FF0FF30CDF8108037
:106D400054E0281910F85C7F90F9000027F0C00883
:106D5000401C3BD007A9404608F087F910B34FEA22
:106D60009719404603F0A2FC55F820701FB1B9F105
:106D7000030F03D006E0B9F1030F27D104A9404661
:106D800008F07BF94FF0A04101EB8800D0F8000734
:106D900006A9C0F3014A404608F067F918B1BAF1F4
:106DA000020F03D012E0BAF1030F0FD1B9F1030FB4
:106DB00008D1BAF1020F1DD00221404608F041FE71
:106DC000761CF6B217B149464046B847641C072CFA
:106DD000B7D3002E10D06A460121002008F096FE9D
:106DE00006990098884207D00690049800263446F9
:106DF0000790A6E70321E0E70AB0BDE8F0870000AE
:106E000000600040A83600200020704710B5D44C28
:106E10002DED0A8BB0EE628AF0EE428AB0EE619AF6
:106E2000606900287ED0D4ED021AD4ED032ACD4942
:106E300020EE612AD4ED031A01EEE02AD4ED041A03
:106E400001EEC12AF6EE001A62EE21CA94ED012A83
:106E500022EE002A02EE812AD4ED042A02EEE02A74
:106E6000D4ED022A22EE21CA94ED012A22EE202A34
:106E700002EEC12AD4ED042A02EE802A62EE21BA83
:106E800094ED012A22EE011A94ED022A02EE201A54
:106E9000D4ED030A00EEC01A94ED000A10EE100AB9
:106EA00021EE21BA884207DD94ED000ADFEDAE0A3B
:106EB00030EE600A84ED000A9FEDACABB5EEC09AEF
:106EC000F1EE10FA09D1F5EEC08AF1EE10FA04D114
:106ED000B5EEC08AF1EE10FA7ED069EE090A48EEEE
:106EE000A80A48EE080A10EE900AFFF7C2FB41EC30
:106EF000100B01F025F953EC102B51EC1A0BFFF796
:106F000049FBFFF7C9FB00EE100AD4ED010A29EE98
:106F1000003A68EE803A68EE006AB0EE000A20EEB1
:106F2000802A00E00CE1D4ED020A94ED041A94EDFD
:106F3000024A20EE806AD4ED030A61EE001A94ED55
:106F4000011A60EE800AB1EE000AD4ED014A61EE4A
:106F5000002A94ED021A94ED037AD4ED048A61EECE
:106F6000005A94ED031A21EE005AB2EE001A64EEB4
:106F7000017A94ED034A24EE011A94ED014A24EEBD
:106F8000248A94ED024AD4ED024A24EE244AD4ED38
:106F9000034A64EE874A94ED047A62EEA49A27EEDF
:106FA000287A40EE839A65EE878A41EEC38A42EEE4
:106FB000849A68EE002A94ED028A42EE888A46EEB0
:106FC000639A42EE638A38EEE58A07EE848A07EE1A
:106FD000A48A05EEA68A00E053E0D4ED035A62EEDF
:106FE000A52A42EE032A45EE072A41EEE32AD4ED14
:106FF000041A72EEC58A41EE048A41EE248A24EE18
:10700000001A24EE800A21EE219A94ED041A45EE2E
:10701000268A06EE439A00EE019A29EEA90A08EEA6
:10702000080A00EEE39A08EEA80A09EE090A10EE33
:10703000100AFFF71EFB41EC100B01F081F853EC36
:10704000102B51EC1A0BFFF7A5FAFFF725FB00EE0A
:10705000100A94ED002A69EE800A28EE001A68EE04
:10706000801A29EE000A42EE60CAD4ED000A00EE52
:10707000C1CAD4ED000A40EEE1BAD4ED000A00EE38
:10708000C0BAD4ED010A9FED3B0A4CEE800AC4ED74
:10709000010AD4ED020A4CEE000AC4ED020AD4ED56
:1070A000030A4BEE800AC4ED030AD4ED040A4BEE4A
:1070B000000AC4ED040A94ED010AD4ED010A94ED2E
:1070C000021A20EE200AD4ED020A00EE810AD4ED65
:1070D000030A94ED031A00EE810AD4ED040A94ED3C
:1070E000041A00EE810A10EE100AFFF7C2FA41EC12
:1070F000100B01F025F853EC102B51EC1A0BFFF795
:1071000049FAFFF7C9FA00EE100AD4ED010A60EE61
:10711000800AC4ED010AD4ED020A60EE800AC4EDD3
:10712000020AD4ED030A60EE800AC4ED030AD4ED2E
:10713000040A20EE800A84ED040ABDEC0A8B10BD1F
:10714000DFED0D1AB7EE002AB0EE481AF0EE612A14
:10715000F0EE680AB0EE490A00F014F86061ECE75E
:10716000AC220020CDCC4C3D82A8FB3700000000B3
:107170000000F03F6E599D3A0000000090EC060AB6
:10718000FFF744BE00B52DED088BF0EE409AF0EE0F
:10719000608A29EEA90AB0EE418A8DB0B0EE62AAEB
:1071A00008EEA80AF0EE42BAF0EE61AA08EE080A6C
:1071B00010EE100AFFF75DFA41EC100B00F0C0FF73
:1071C00051EC100BFFF768FA09EE100A9FED430A25
:1071D000B4EEC90AF1EE10FA01DD012000E0002052
:1071E0009FED3F0AB4EEC90AF1EE10FA01D2012177
:1071F00000E00021084324D12BEE88BA0AEE68BAD9
:107200002AEE29AA0AEEC8AA6AEEA8AA2BEE0B0A51
:107210004BEEE9AA0AEE0A0A0AEEAA0A10EE100AD2
:10722000FFF727FA41EC100B00F08AFF51EC100B2E
:10723000FFF732FA00EE100A2A4910EE100A8842CF
:1072400004DA00200DB0BDEC088B00BDB7EE002ABB
:1072500004AAC2EE001A694604A8C2EE092A6BEE1F
:10726000210A2AEE211A6AEEA11A29EEA20A28EEB4
:10727000A22A68EE222A20EE013A62EE213A22EE9C
:10728000A04A02EE603A42EEC13A00EE614ACDED0C
:10729000073A8DED084A8DED093A8DED0A0A8DED1C
:1072A0000B2ACDED0C2AC2EC030A07F0BFFB0E48F7
:1072B0009DED000A80ED010A9DED010A80ED020AB4
:1072C0009DED020A80ED030A9DED030A80ED040A9C
:1072D0009FED060A80ED000A0120B3E7C3F59C404C
:1072E000A4706B41CDCCCC3DAC2200209A99993E44
:1072F00020EE000A00EEA00A01EE010A01EEA10A4A
:1073000000F05BBF00F01F020121914040098000A6
:1073100000F1E020C0F88012704700F01F02012148
:1073200091404009800000F1E020C0F880127047D1
:1073300000F01F02012191404009800000F1E0208F
:10734000C0F88011704700F01F02012191404009F0
:10735000800000F1E020C0F80011704700F01F022B
:10736000012191404009800000F1E020C0F80011A7
:10737000704700F01F02012191404009800000F198
:10738000E020C0F80012704700F01F020121914078
:107390004009800000F1E020C0F800127047490762
:1073A000090E002806DA00F00F0000F1E02080F856
:1073B000141D704700F1E02080F800147047490761
:1073C000090E002806DA00F00F0000F1E02080F836
:1073D000141D704700F1E02080F800147047000091
:1073E0000149024806F01DBB0420002000C00140F6
:1073F00070B5144CD4F80001002628B1D4F8040369
:10740000C00701D0C4F80061D4F80C010E4D40B1A2
:10741000D4F80403000704D5C4F80C61286900B14E
:107420008047D4F8100100280BD0D4F80403C0061C
:1074300007D5C4F81061E868002802D0BDE87040A4
:10744000004770BD00100040982000200748002130
:10745000C0F84011C0F84411C0F84811C0F84C11F0
:10746000C0F80011C0F804110BF0EABC0010014094
:107470002DE9FE434FF48278404608F0C5FB4C4F9F
:1074800000254C4C012600B3404608F0C5FB94F89B
:107490002E0010B194F82F10D1B18DF80050616812
:1074A00001912189ADF80810E26832B1218B618326
:1074B00062602181E56010B102E0257400E03E6069
:1074C00021686846884784F82F5094F82E0060B3EE
:1074D0004FF48077384608F097FB30B3384608F011
:1074E0009BFB628B94F82D108A420AD9A2EB010013
:1074F00080B260832289A2EB0000626802EB400048
:1075000005E007D1E06828B184F82F60658308F0B2
:1075100069FB04E08A4202D184F82F60658340460B
:1075200008F07AFB2248001D06604FF48877384641
:1075300008F06AFB48B1384608F06EFB257402205B
:107540008DF800002168684688474FF48A773846EE
:1075500008F05AFB28B1384608F05EFB2574BDE8F8
:10756000FE834FF000484FF48C7967691DE000BF3F
:10757000B7FA87F028FA00F109EB80058F43284617
:1075800008F042FB88B1284608F046FBA5F58C754B
:10759000E8088DF8040045F38000401C8DF8006079
:1075A0008DF80500216868468847002FE0D1D6E7AE
:1075B0000070004034370020B5EEC00AF1EE10FA3A
:1075C00002DBB7EE000A7047BFEE000A704700000A
:1075D000F8B51248124E04464FF48C7108F02EFB99
:1075E00000281AD00025C4F81851D4F818010090CA
:1075F000F07F3446FF2806D0A17F11B108F032FA9F
:1076000001E008F03DFA65772572D4E9002101B068
:1076100004F10800BDE8F0401047F8BD003000401C
:107620001037002002494FF040200BF057BF0000F8
:10763000643700207CB5144C606A019020780028E3
:1076400021D00120FFF774FE6568002666600120E6
:10765000FFF784FEE169002915D0E80703D08DF813
:10766000006068468847A80705D501208DF800000E
:10767000E16968468847680705D502208DF8000053
:10768000E169684688477CBD982000200BF02ABB42
:107690000020704710B50D2008F016FB0C4C207828
:1076A000012801D1FFF7DEFA2078022801D106F087
:1076B0006FFF042008F099F9052008F096F90620DC
:1076C00008F093F9BDE81040082008F08EB90000DA
:1076D0003423002010B5074C2478012C02D0022C52
:1076E00003D004E005F068FB01E006F053FF002042
:1076F00010BD00003423002010B50AF04BFF0948EC
:1077000005F0A2FB084C20B1064806F08BFF10B133
:1077100003E0012000E00220207009F02BFC002093
:1077200010BD00008C41030034230020054AD168BD
:1077300041FA00F3DB0703D1012383401943D160F1
:1077400070470000444E002010B5044605F082FB4F
:107750002046BDE8104006F06BBF0000F0B5B5480C
:107760000023021D0178101D01254FF080540629C9
:107770000BD11678360708D10678C6F30316032E08
:1077800006D0042E04D0052E02D0062907D00EE024
:10779000B4F82463A84FC6F304263E6002E01678CE
:1077A000360704D10678C6F30316032E02D0062945
:1077B00004D00FE0A24FA14E7E670EE01678360788
:1077C00008D10678C6F30316032E06D0042E04D083
:1077D000052E02D0062907D00EE0D4F84462994F56
:1077E000C6F342363E6002E01678360704D10678CA
:1077F000C6F30316032E02D0062906D011E0924EDE
:10780000376827F0807737600EE01678360708D1A2
:107810000678C6F30316032E06D0042E04D0052ED8
:1078200002D006290AD011E04FF08046C6F80C318C
:10783000C6F81031834E361F336002E016783607E3
:1078400004D10678C6F30316032E02D0062905D00C
:107850000CE07C4F032664373E600AE0167836075A
:1078600004D10678C6F30316032E02D006290DD0E4
:1078700014E0764F05263E60744E78363560734EC0
:10788000083633603F263F1D3E6002E0167836071B
:1078900004D10678C6F30316052E02D0062957D068
:1078A00062E06B4E36686B4F3E60694E361D36683F
:1078B0003F1D3E60664E083636683F1D3E60644E92
:1078C0000C3636683F1D3E60614E103636683F1DEF
:1078D0003E605F4E143636683F1D3E605C4E183683
:1078E00036685C4F20373E60594E1C3636683F1D67
:1078F0003E60574E203636683F1D3E60544E24365B
:1079000036683F1D3E60524E283636683F1D3E6049
:107910004F4E2C3636683F1D3E604D4E3036366831
:107920004C4F40373E604A4E343636683F1D3E600D
:10793000474E383636683F1D3E60454E3C36366809
:107940003F1D3E60424E403636683F1D3E6002E0BD
:107950001678360708D10678C6F30316032E06D02C
:10796000042E04D0052E02D0062907D019E0D4F841
:107970005812394A01F04F01116002E011780907ED
:107980000FD10078C0F30310032803D0042801D0DE
:10799000052806D131480168C90702D06FF00101FE
:1079A0000160D4F83001062808D1D4F83401062843
:1079B00004D12B48016841F4806101602248743889
:1079C000016841F470010160BFF34F8FBFF36F8F07
:1079D0004FF01021D1F80002002803DBD1F8040297
:1079E000002822DA1F4A15601F480468002CFCD0CA
:1079F0001524C1F800420568002DFCD0C1F80442EE
:107A000001680029FCD0136001680029FCD0BFF395
:107A10004F8F0D48F0380168144A01F4E0611143BA
:107A20000160BFF34F8F00BFFDE7124910480860A7
:107A3000F0BD0000E00F00F0403501400DF0ADBAA0
:107A400000C007403C050040FCED00E0105600403F
:107A50000404001020C50040E40E00400004004073
:107A60003C17004004E5014000E401400400FA0531
:107A70000090D003C435002004220249024806F0D9
:107A80001FB80000A0370020009000400748D0F841
:107A90004011002909D00021C0F840110448407865
:107AA000032802D1034901200861704700A001406A
:107AB000982000200010004006220249024805F0EC
:107AC000FFBF0000AC37002000B0014038B50024F3
:107AD0008DF8004069466A2004F0D6FF8DF800401A
:107AE00069466B2004F0D0FF8DF8004069466C2099
:107AF00004F0CAFF8DF800406946192004F0C4FF65
:107B00008DF8004069461A2004F0BEFF8DF8004051
:107B100069461B2004F0B8FF8DF8004069461C2020
:107B200004F0B2FF8DF8004069461D2004F0ACFF60
:107B30008DF8004069461E2004F0A6FF8DF8004035
:107B40006946232004F0A0FF8DF8004069463720E5
:107B500004F09AFF8DF800406946382004F094FF45
:107B600038BD00000148006800470000FC1F0020ED
:107B700003B401984100009850EAC12018BF0420C6
:107B80004A0D18BF40F0010040F2FF72B2EB515FA6
:107B900008BF40F00200012808BF052002B070476E
:107BA00070B59B482DED020B2DED068B079D25F042
:107BB0000044A04218DC9748844202DC0AD10698AF
:107BC00040B19DED060BBDEC068B02B0BDE87040E8
:107BD00000F0FABE002DCCBF9FED8F0B9FED900BF8
:107BE000BDEC068B02B070BD8F48A04215DD8F48FA
:107BF000A042D8BF4FF0FF3458DD9DED060B51EC8D
:107C0000100BFFF7B5FF042808BF00F001FF9DED42
:107C1000060BBDEC068B02B070BD9DED060B51EC62
:107C2000100B03F0A4FCCDE9060181489FED828B87
:107C3000A0423CDD8248A0421FDD00249FED82ABC4
:107C40009DED060B53EC1A2B51EC100BFEF7E4FDE7
:107C50009DED060B41EC190B53EC1A2B51EC100B5C
:107C6000FEF726FC53EC182BFEF777FE53EC192B8E
:107C7000FEF790FCCDE9060149E09DED060B0124DD
:107C800053EC182B51EC100BFEF7C6FD9DED060BC7
:107C900041EC190B53EC182B51EC100BFEF75DFE69
:107CA00053EC192BFEF776FCCDE906012FE068486E
:107CB000A0421FDD02249FED689B9DED060B53EC57
:107CC000192B51EC100BFEF7F3FB53EC182BFEF7BE
:107CD000A3FD9DED060B41EC180B53EC192B51EC59
:107CE000100BFEF73AFE53EC182BFEF753FCCDE9D0
:107CF00006010CE09DED060B032453EC102B9FEDC9
:107D0000580B51EC100BFEF745FCCDE906019DED3B
:107D1000060B53EC102B51EC100BFEF7C9FB41EC9A
:107D2000180B53EC182BFEF7C3FB41EC190B4E4814
:107D30000621B0EE490AF0EE690A784400F030FD01
:107D400053EC182B51EC100BFEF7B2FB41EC180B67
:107D50004648B0EE490AF0EE690A0521784400F081
:107D60001FFD53EC192B51EC100BFEF7A1FB41EC5E
:107D7000100B51EC180B53EC102B002C0EDAFEF705
:107D80004BFD9DED061B53EC112BFEF791FB9DED7A
:107D9000061B53EC112BFEF7E3FD35E0FEF73CFD2F
:107DA0009DED061B53EC112BFEF782FB41EC100BF3
:107DB0002F48784400EBC40090ED001B51EC100BF1
:107DC00053EC112BFEF7C9FD9DED061B53EC112B57
:107DD000FEF7C3FD41EC100B2648784400EBC400CD
:107DE00090ED001B51EC100B53EC112BFEF7B8FD7E
:107DF00041EC100B002DA2BFBDEC068B02B070BD94
:107E000051EC100B81F0004141EC100B01E7000038
:107E1000000010440000F07F182D4454FB21F93F6E
:107E2000182D4454FB21F9BF0000DC3F0000203E28
:107E30000000F33F00000000000000000000F03FE1
:107E40000000E63F000000000000000000000040CD
:107E50000080034000000000000000000000F83F28
:107E6000000000000000F0BF32C60000E8C50000BE
:107E700072C500002AC5000070B56F4E2DED040BD1
:107E80002DED048B82B0DDF824C0DDE907235C42D0
:107E90002CF000411C4341EAD474069D22F00040BE
:107EA000B44205D86C422C4340EAD474B4420BD996
:107EB0009DED081B9DED060B02B0BDEC048B04B0DC
:107EC000BDE8704000F08ABDACF14054A4F17F647D
:107ED0001C430BD0022404EAAC7444EAD274054378
:107EE0009FED578B9FED582B07D015E09DED060BAE
:107EF00051EC100B00F0E0FF42E0002C11BF012C10
:107F00009DED060B02B0BDEC048B04BF04B070BD48
:107F1000022C38D0032C3BD00B439FED4D1B9FED23
:107F20004E0B0AD0B14218D1B04209D121F08041A4
:107F300020F08040099107900FE0002A15DA10E048
:107F4000474B7B44002C08BF93ED000B0DD0012C58
:107F500010D0022C17D0032C1AD0B0421DD1002A09
:107F600003DAB0EE410AF0EE610A02B0BDEC048B18
:107F700004B070BD93ED000B51EC100B81F000418B
:107F800041EC100BF1E7B0EE480AF0EE680AECE7BE
:107F9000B0EE420AF0EE620AE7E7401A00159FEDE4
:107FA000329B3C28C8BF8DED000B17DCBCF1000FE5
:107FB000BCBF10F13C0F8DED009B0FDB9DED080B5E
:107FC00053EC102B9DED060B51EC100BFEF7E2FA73
:107FD00003F0CDFA00F070FFCDE90001B4B1012C3F
:107FE00010D0022C9FED220B53EC102B9DED000BBB
:107FF00051EC100B19D0FEF7B0FC53EC182BFEF728
:10800000ACFCBDE7019880F0004001909DED000BB5
:1080100053EC192B51EC100BFEF7F6FC04BF0220B9
:1080200000F016FD9DED000B9FE7FEF796FC53EC6C
:10803000182BFEF795FCA3E70000F07F000000007E
:10804000182D4454FB210940182D4454FB2109C02C
:10805000182D4454FB21F9BF182D4454FB21F93F3E
:108060008AC40000000000000000000000000000C2
:10807000075C143326A6A13C10B52F499FED2C1B9D
:108080002DED020B84B0059820F000408842DCBF43
:1080900000209DED040B32DD2849884209D1049867
:1080A00040B94FF0010000F0D3FC00F0A1FC06B095
:1080B00010BD05DB9DED040B00F086FC06B010BD85
:1080C00068469DED040B00F097F810F0030011D006
:1080D000012818D09DED021B9DED000B02281AD03F
:1080E00000F0A6FA51EC100B81F0004106B041EC13
:1080F000100B10BD9DED021B9DED000B012000F04B
:10810000CBFB06B010BD9DED021B9DED000B00F0FA
:108110008FFA06B010BD012000F0BEFB51EC100B31
:1081200081F0004106B041EC100B10BD00000000D2
:108130000000000000000000FB21E93F0000F07F8C
:1081400000B52DED048BB0EE409AF0EE609A83B04E
:1081500051EC190BFEF707FC41EC180B18EE100A56
:1081600018EE901A8DED008B002818BF01200843EF
:1081700020F00040C0F17F6000F1E040C00F14D05B
:1081800019EE101A19EE900A8DED009B002918BF08
:108190000121084320F00040C0F17F6000F1E04081
:1081A000C00F04BF012000F053FCB0EE480A03B03A
:1081B000F0EE680ABDEC048B00BD10B52DED028B0E
:1081C000B1EEC08A18EE100A20F00040C0F1FF4066
:1081D000C00F0AD010EE100A20F00040C0F1FF409E
:1081E000C00F04BF012000F033FCB0EE480ABDEC24
:1081F000028B10BD000000002DE9F14F04462DED6B
:10820000020B2DED088B8AB09FEDE70B80ED020B82
:10821000139EE74826F0004585420ADC9DED120BCF
:10822000002084ED000B0AB0BDEC088B03B0BDE864
:10823000F08FE0489FEDE0AB9FEDE1BBA84247DD4A
:10824000E14F9FEDE39B9FEDE48B9DED120B53EC13
:108250001A2B51EC100B002E1CDDFEF77EFB41ECBF
:10826000100BBD4208D053EC1B2B51EC100BFEF74A
:1082700074FBC4E900010BE053EC192B51EC100B1B
:10828000FEF76BFB53EC182BFEF767FBC4E900010C
:108290000120C8E7FEF7C0FA41EC100BBD4208D040
:1082A00053EC1B2B51EC100BFEF7B6FAC4E900019E
:1082B0000BE053EC192B51EC100BFEF7ADFA53EC1D
:1082C000182BFEF7A9FAC4E900014FF0FF30AAE726
:1082D000C348A84279DB9DED120B51EC100B03F063
:1082E00046F941EC180B9FEDC00B53EC102BFEF739
:1082F000DFF89FEDBF1B53EC112BFEF78DFAFEF755
:10830000DDFB0746FEF7BCFB41EC190B53EC1A2BC7
:10831000FEF7CEF853EC182BFEF722FB41EC180BBE
:1083200053EC1B2B51EC190BFEF7C2F8DFF8C8A277
:1083300041EC100B4FEA15580125FA4453EC102B71
:1083400051EC180BFEF709FB032DC4E900013DD0E9
:10835000C1F30A5005EB4511A8EB00001139814229
:1083600034DA0AEB051BB0EE48AA9BED000BF0EEE9
:1083700068AA53EC102B51EC190BFEF799F841EC5D
:108380001B0B51EC1A0B53EC1B2BFEF7E6FA41ECDE
:10839000180B51EC1A0B53EC182BFEF7DEFA53ECCA
:1083A0001B2BFEF7DAFA9BED020B41EC1A0B53EC98
:1083B000102B51EC190BFEF77BF853EC1A2BFEF740
:1083C000CCFA41EC100B6D1CB8E70EE0002EA8BFF4
:1083D0003846BFF628AF94ED000B51EC100B81F03E
:1083E0000041C4E9000178421DE7C6F3130040F4E0
:1083F000801EC6F30A50A0F2F530471100F01F05A9
:10840000C5F12000DDF848B00890002006900790E4
:108410000520EC467949002D07EB0002794408BF9E
:1084200051F8221009D051F8223001EB8201AB4003
:108430004A68089922FA01F11943A1FB0E26A1FB13
:108440000B131A449A4234BF0123002303EB06089E
:108450000CEB8003D3E901A60E448E4234BF012108
:10846000002192448A4411B1924502D903E0924519
:1084700001D2012100E00021C3E901A641444CF8EA
:108480002010011EA0F10100C4DC029800F1005090
:10849000850F0298DDE903678000DDF81480FEF7A0
:1084A000EFFA41EC1A0B3046FEF7FBFA9FED541B36
:1084B00053EC112BFDF7FCFF41EC1B0B3846FEF78C
:1084C000F0FA9FED511B53EC112BFDF7F1FF41EC3E
:1084D000180B4046FEF7E5FA9FED4D1B53EC112BB0
:1084E000FDF7E6FF41EC190B51EC180B53EC192B7F
:1084F000FEF792F953EC1B2BFEF78EF953EC1A2B77
:10850000FEF78AF9CDE90801002008909DED080BDF
:1085100053EC1A2B51EC100BFEF71FFA53EC1B2BEC
:10852000FEF71BFA53EC182BFEF717FA53EC192B36
:10853000FEF716FA9FED381B53EC112BFDF7B8FF31
:108540009FED370B41EC180B53EC102B9DED080BF6
:1085500051EC100BFDF7ACFF53EC182BFEF75CF958
:108560009FED310B41EC180B53EC102B9DED080BDC
:1085700051EC100BFDF79CFF53EC182BFEF74CF958
:1085800041EC100B139810F0004F06D06D4251ECE7
:10859000100B81F0004141EC100B284684ED000BDC
:1085A00041E60000000000000000000000000000A4
:1085B000FB21E93F7CD9024000004054FB21F93FF8
:1085C0003163621A61B4D03DFB21F93F0000000025
:1085D0000000601A61B4D03D7370032E8A19A33B6A
:1085E000FB2139410000000083C8C96D305FE43FC2
:1085F000000000000000E03F9AC00000E8BF00005B
:10860000000000000000103E000000000000103CD0
:10861000000000000000103A182D4454FB21F93DE1
:108620003326A611460B113C00000054FB21F93DF6
:1086300010B52DED040B2DED088B82B0B0EE419AF4
:10864000F0EE619A0B9820F000449FED4BABB4F133
:10865000795F11DA9DED0A0B51EC100BFEF72EFA43
:10866000002801BFB0EE4A0AF0EE6A0A02B0BDEC83
:10867000088B04BF04B010BD9DED0A0B53EC102B0A
:1086800051EC100BFDF714FF41EC180B3C48062190
:10869000B0EE480AF0EE680A784400F081F853EC36
:1086A000182B51EC100BFDF703FF9DED0A0B41EC6D
:1086B0001B0B53EC192B51EC100BFDF7F9FE41ECA1
:1086C000190B53EC1B2B51EC180BFDF7F1FE53EC7F
:1086D000192BFEF742F99FED2C0B41EC190B53ECD3
:1086E000102B51EC180BFDF7E3FE41EC100B284862
:1086F000844210DA53EC192B51EC100BFEF72DF9D4
:1087000053EC1A2BFEF72CF941EC100B02B0BDEC28
:10871000088B04B010BD1F48A042BCBF9FED1E1BBC
:108720008DED001B06DBA4F50010019000200090E9
:108730009DED001B51EC100B53EC112BFEF70DF9C6
:108740009DED000B41EC180B53EC102B51EC1A0B68
:10875000FEF703F941EC1A0B53EC192B51EC180BF3
:10876000FEF7FBF853EC1A2BFEF7FAF841EC100B6E
:10877000CCE7000000000000000000000000F03F17
:1087800004BD000000000000000000000000E03F09
:108790003333D33F0000E93F000000000000D23F28
:1087A00070B504462DED028B4D1E00EBC500B0EEFA
:1087B000408AF0EE608A90ED000B35F0060017D08D
:1087C00053EC182B51EC100BFDF772FE41EC100B23
:1087D0006D1E04EBC50090ED001B51EC100B53EC2B
:1087E000112BFEF719F841EC100B35F00600E7D11C
:1087F000022D36D0042D1CD0062D1CBFBDEC028BE3
:1088000070BD53EC182B51EC100BFDF751FE94ED9D
:108810000A1B53EC112BFDF7FFFF53EC182BFDF750
:1088200047FE94ED081B53EC112BFDF7F5FF41ECCF
:10883000100B53EC182B51EC100BFDF739FE94ED97
:10884000061B53EC112BFDF7E7FF53EC182BFDF73C
:108850002FFE94ED040B53EC102BFDF7DDFF41ECE4
:10886000100B53EC182B51EC100BFDF721FE94ED7F
:10887000021B53EC112BFDF7CFFF53EC182BFDF728
:1088800017FE94ED001B53EC112BFDF7C5FFBDEC5B
:10889000028B41EC100B70BD31B504462DED040B7D
:1088A0002DED0A8BB0EE41BAF0EE61BA0B989DED5A
:1088B0000A0B20F00040B0F1795F0DDA51EC100B9B
:1088C000FFF756F9042808BF00F0A2F89DED0A0B47
:1088D000BDEC0A8B05B030BD53EC102B51EC100BE6
:1088E000FDF7E6FD41EC180B9DED0A0B53EC182B40
:1088F00051EC100BFDF7DCFD41EC190B2C48B0EEF0
:10890000480AF0EE680A05217844FFF749FF9FED19
:108910002ACBB0EE40AAF0EE60AA9CB353EC1C2B1D
:1089200051EC190BFDF7C4FD41EC1C0B53EC1A2B59
:1089300051EC190BFDF7BCFD9FED210B41EC190B20
:1089400053EC102B51EC1B0BFDF7B2FD53EC192B24
:10895000FEF703F853EC182BFDF7AAFD53EC1B2B85
:10896000FDF7FBFF53EC1C2BFDF7F7FF9DED0A1BFA
:1089700053EC112BFDF7F4FFBDEC0A8B05B041EC75
:10898000100B30BDFFE753EC1A2B51EC180BFDF721
:108990008FFD53EC1C2BFDF73FFF53EC192BFDF71C
:1089A00087FD9DED0A1B53EC112BFDF735FFE3E727
:1089B00094BB000000000000495555555555C5BFF2
:1089C000000000000000E03F10B553EC102B51EC0C
:1089D000100BFDF721FF41EC100B10BD10B553EC4F
:1089E000112B51EC100BFDF717FF41EC100B10BDD4
:1089F0009FED050B10B553EC102B51EC100BFDF750
:108A0000C9FD41EC100B10BD00000000000000008B
:108A10009FED050B10B553EC102B51EC100BFDF72F
:108A200047FD41EC100B10BD0000000000000010DD
:108A300002E008C8121F08C1002AFAD17047704727
:108A4000002001E001C1121F002AFBD17047000085
:108A50000149086070470000C8350020006890FA9E
:108A6000A0F000BA00BA7047800701D0002070471C
:108A700001207047C3688B4206D811440069491E23
:108A8000814201D8012070470020704705490978CC
:108A900009B1FEF761B80021016041608160481EA4
:108AA00070470000742300207047000090ED000A1A
:108AB000F8EEC00A9FED0B0A60EE800AC1ED000AD5
:108AC000D0ED010AF8EEE00A60EE800AC1ED010A7D
:108AD000D0ED020A0020F8EEE00A20EE800A81EDD7
:108AE000020A7047CDCCCC3D014900200870704788
:108AF0007423002000207047022001F011B900000B
:108B000070B50024064D06E06868012110F83400B5
:108B100007F0FEF8641C28788442F5D3002070BD6D
:108B200078200020F8B515460C460646052A01D2E5
:108B30000720F8BD07F0E6F918B907F0ADF90028ED
:108B4000F7D1124900224E600C708D60C1E90422F9
:108B5000C1E906220E4D0DE006EBC4002968009124
:108B600081788DF8011000780A4A694607F022F9E9
:108B70000028DED1641EE4B2EED2BDE8F84004481D
:108B80000021054A001D00F08FB800007820002069
:108B9000F43F0300B1BB020081B3020004F068FEA1
:108BA0002DE9F047244C8146924660880E4681426A
:108BB0003FD84FF6FF77002000F004F92278607864
:108BC000A188884201DA401C00E00020C0B2904237
:108BD00003D1002000F0F8F829E065784FF0000894
:108BE0006078884201DA401C00E0002060700020BC
:108BF00000F0EAF8BD421AD0A068B9F1000F40F8C1
:108C000035A00DD066B16188E068324605FB0100F1
:108C10004946FDF729FCA06800EBC500868003E00B
:108C200000EBC500A0F804800020BDE8F087042018
:108C3000FBE70920F9E700004420002010B50E4CA6
:108C400003E0401C00E00020207020786178814221
:108C500010D022786188E068A36802FB010003EB72
:108C6000C20153F83220898890472078A188884231
:108C7000E9DAE6E710BD00004420002030B5CB0063
:108C800008339DB293074FF0000401D0072030BD98
:108C9000044B9A602A44DA605C701C70588099809A
:108CA000002030BD44200020084B9B7823B12AB11E
:108CB00020B10068037C1BB1082070470720704773
:108CC000002303744174426118467047A83800209D
:108CD00070B509F007FA104800240B2104704470A5
:108CE0000E4D817015206C602C706C70FEF70AFBC5
:108CF00007211520FEF753FB1520FEF724FB08483B
:108D0000046007211120FEF74AFB0548001F006898
:108D1000A860002070BD0000A8380020542000206A
:108D2000081501402DE9F843DFF8709099F80230FA
:108D30005BB350B3052902D20720BDE8F88343692D
:108D40001BB3437C012B22D0002704460025884614
:108D50001646284600F036F868460AF0B7FEC0B15D
:108D6000012101700E4944600968C0E90218C0E998
:108D700004769DF8000089F80100002000F024F836
:108D80001520FEF7F6FA2846D7E70820D5E70F4664
:108D9000DBE70425002000F017F8F4E7A8380020EE
:108DA000041501400649897839B130B1416921B1D2
:108DB0000021017402210AF023B808207047000046
:108DC000A838002000F002B800F008B872B60248D7
:108DD0000168491C016070470C20002003490868A5
:108DE000401E086000D162B6704700000C200020D1
:108DF000F0B54FF08050D0F80411C1F30722294993
:108E0000422A0AD1284A136823F0010313600A6832
:108E100022F0010242F080720A60D0F80401C0F32F
:108E2000072045283AD12148407C052838D04FF00A
:108E30007F431F4800681E4A1840121D12681A40DE
:108E400090422BD11A4A083210681368C0B2C3F39B
:108E5000072C13681268C3F30747160E144A0C3226
:108E60001368DDB21368C3F3072413681268C3F3F1
:108E70000743120E60450BD0B84209D0B04207D06C
:108E8000A84205D0A04203D0984201D0904205D11B
:108E9000086820F0010040F0807008600020F0BDFC
:108EA000044BC6E77417004050160040CC20002049
:108EB0001C1500400000FFFF10B541EC100BFEF741
:108EC0006FFE51EC100B10BD10B50022FE210420E6
:108ED00000F0E0FD00F00EFE0022DF21032000F094
:108EE000D9FD002010BD000010B5054C012084F80C
:108EF000230000F0A9F808B1002010BD208910BDA2
:108F00007C350020F8B500253E4C8DF8005001203E
:108F100084F8230029465B2000F0A0FD00F094F8BF
:108F2000002867D104F12C0220891189927AC2F1BC
:108F3000640301FB03F600EBC00303EB0013B6EB85
:108F4000830F00DD084664324A43B2EB830F00D240
:108F500008462D4A411A514300EBC00202EB0010B3
:108F600091FBF0F00A2190FBF1F201FB12020028C4
:108F70001CDB052A28DB90FBF1F06178012903D086
:108F800010210144491C05E02021FAE7202100E0DE
:108F90001021014494F8230001281BD0102903DB81
:108FA000A1F1200010281BD210311AE012F1050F98
:108FB0000ADC90FBF1F06178012903D01021014413
:108FC000491EE7E72021FAE790FBF1F061780129DB
:108FD000DED1DBE71F2901DD203902E0203100E08E
:108FE0001039C9B2A1715B2000F038FD69465B20E1
:108FF00000F006FD002000F09FFA00F007FC284674
:10900000F8BD00007C350020A086010018B103499E
:109010000881002070474FF0FF307047A8350020CE
:1090200010B5054C002084F8230000F00DF808B1BD
:10903000002010BD208910BD7C35002001498871B9
:10904000704700007C3500202DE9F04F614C85B061
:1090500000258DF81050A4F12C082089AA4632264C
:109060004746A8F8080000F0D1FB042000F064FA9D
:1090700000215B2000F0F2FC0022F721482000F0E4
:1090800009FD0422FB21482000F004FDC022BF217D
:109090002B2000F0FFFC2022DF212B2000F0FAFC27
:1090A00097F82300012857D00022DF21382000F054
:1090B000F1FC2089DFF820B160B1A18A48439BFB15
:1090C000F0F087B2390A492000F0C8FCF9B24A2012
:1090D00000F0C4FCA146E17A7B2000F0BFFC607880
:1090E000217840EA0110C1B27D2000F0B7FCA178E0
:1090F0007E2000F0B3FCE1787F2000F0AFFC04A9F3
:10910000022000F07DFC012000F003FA208942F2E9
:109110001071B1FBF0F061782278E3780A440B44D7
:10912000A178491E13FB01214143C8B206F00CF897
:1091300004A9472000F064FC9DF8100000070DD042
:10914000022006F001F86D1CEDB2B542F0D3B54235
:1091500030D14FF0FF342EE02022A6E757468DF89D
:1091600000A06946682000F04BFC9DF800006946AD
:109170000402692000F044FC9DF80000044306D07E
:10918000B9F8140060439BFBF0F0A8F808008DF8D4
:10919000007069466E2000F033FC9DF8000088F8EE
:1091A0000200444669466F2000F02AFC9DF800004A
:1091B000E070CCE700240822F721482000F06AFC88
:1091C0000022FB21482000F065FC05B02046BDE8E8
:1091D000F08F0000A835002000CA9A3B014890F8A3
:1091E000270070477C35002038B500F0EDFB00F01B
:1091F000BDFC411C2DD000208DF8000069460220E6
:1092000000F0FEFB0422F321202000F043FC0022AA
:10921000BF21032000F03EFC0022DF21032000F0EC
:1092200039FC0022FB21032000F034FC0022FD2148
:10923000032000F02FFC00F067FC044600F064F807
:10924000044A00210448FFF72FFD08B1FFF7A6FCF0
:10925000204638BD793C0300E04103007CB5002581
:10926000274C8DF800508DF8045084F8275069463B
:10927000022000F0C5FB9DF80000C0062AD594F836
:10928000220001281CD025E0D4E90410E689091A3F
:10929000B14200D28EB21B4932460144062000F092
:1092A0000FFC606901A930446061472000F0A8FB11
:1092B000D4E90401814207D09DF80400000703D0DF
:1092C00000F0CEF9B0B105E0002000F04FFA656182
:1092D00084F8225094F82400022802D0002000F0E4
:1092E00045FA6946022000F08BFB6946012000F038
:1092F00087FB7CBD94F824000228C5D0EEE700006F
:109300007C350020D22B002038B500248DF8004099
:109310006946552000F074FB274910F0FF0F06D175
:109320009DF80000C00702D00120487000E04C709A
:10933000002000F001F940229F212E2000F0AAFB1E
:109340000021084600F07EFA4022BF21662000F08E
:10935000A1FB80227F215D2000F09CFB012000F01A
:1093600023F900214F2000F079FB00220F2131204A
:1093700000F090FB104C2C34208A010A722000F07F
:109380006DFB217C732000F069FBA17D4D2000F076
:1093900065FB2179742000F061FB6179752000F094
:1093A0005DFBA179762000F059FBE179772000F090
:1093B00055FB002038BD00007C3500202DE9F04130
:1093C000244C8046244EA06915460F4610B13068E3
:1093D000FFF7E8FC722F00D97227002084F82600DE
:1093E00044F8185F84F8088000F09CFA217A002085
:1093F00000F0D5F90021012000F0D1F90F21002063
:1094000000F0BCF9384600F0A3F9052000F094F80C
:1094100000F0F4F92068D0B1104A00210E48FFF79F
:1094200043FC08B1FFF7BAFB690CE8034FF4FA728A
:10943000801841F1000152000023FCF7D5FF0146DE
:1094400000223068FFF76EFC08B1FFF7A7FB002091
:10945000BDE8F0817C350020E0410300793C030049
:1094600001488069704700007C3500201FB500204E
:109470008DF800008DF804008DF808008DF80C00C0
:1094800001A9042000F0BCFA02A9382000F0B8FAC3
:1094900003A95E2000F0B4FA00F0B8F92022DF2121
:1094A000042000F0F7FA0122FE21382000F0F2FA41
:1094B00060221F215E2000F0EDFA4022BF215F20D4
:1094C00000F0E8FA0122FE215F2000F0E3FA032019
:1094D00005F03AFE6946602000F092FA9DF800001F
:1094E000952110FB01F04FF6FF7101EA40049DF851
:1094F0000C105E2000F0B2FA9DF80810382000F041
:10950000ADFA9DF80410042000F0A8FA04B020463B
:1095100010BD10B5012806D00022FE21052000F064
:10952000B9FA002010BD0122FE21052000F0B2FA98
:10953000022005F009FEF4E710B51A4C062819D2EE
:10954000DFE800F0030C2227290E002084F8240015
:109550000122FE21042000F09DFA0BE0012000E032
:10956000052084F824000022F321042000F092FA60
:10957000FFF7AAFC94F82400042811D05FF0000043
:1095800000F012F8002010BD022084F8240004220C
:10959000EAE70320E5E7042084F824000822E3E753
:1095A0000120EDE77C35002010B5012805D0082109
:1095B000392000F053FA002010BD2C21F8E70000FC
:1095C00038B500248DF800402022DF21042000F06F
:1095D00061FA0821212000F041FA0021222000F048
:1095E0003DFA0821402000F039FA0021412000F026
:1095F00035FA094D05E06946422000F001FA641C85
:10960000A4B2A889A042F6D80022DF21042000F0ED
:1096100041FA002038BD00007C35002038B5002418
:10962000074D8DF80040285DC00703D069462046ED
:1096300000F0E6F9641CE4B2FF2CF4D3002038BD3E
:10964000F6410300054A10B5125C920701D40120CF
:1096500010BD00F003FA002010BD0000F641030029
:1096600008B500208DF800006946022000F0C8F916
:109670009DF8000000F00800C00808BDF8B50026FD
:109680008DF800601A4C1BE0D4E90410E589091A32
:10969000A94200D28DB217492A460144062000F0A3
:1096A0000FFA6069694628446061472000F0A8F914
:1096B000D4E90401814207D09DF80000000703D0DF
:1096C000FFF7CEFF70B105E0002000F04FF86661B3
:1096D00084F8226094F82400022802D1012000F0CE
:1096E00045F8F8BD94F824000228CDD0F8BD00005C
:1096F0007C350020D22B002010B5144C40F6A81069
:109700002061012084F8220000F080F8002000F0A1
:109710002DF800F0EFF9207800F01AF80220FFF79A
:109720000BFF00215B2000F099F92022DF21104679
:1097300000F0B0F90422F321202000F0ABF900F092
:109740005DF8BDE81040FFF799BF00007C350020B0
:1097500010B501463B2000F081F9002010BD00004B
:10976000014981F8270070477C35002008B10022AC
:1097700000E01022EF21032000F08CB910B5C307E0
:109780004FF00F0202EB500002D00A46F02102E037
:1097900009070A0E0F2100F07DF9002010BD10B559
:1097A000C01DC0B200F05AF9002010BD70B51446BB
:1097B0000E460F2A1CD2D8B10F4D05F8200F00F02D
:1097C000B1F829780020FFF7EAFF00210120FFF718
:1097D000E6FF641EE1B20020FFF7D0FF3046FFF73E
:1097E000B7FF0520FFF7A8FE00F008F8002070BDC5
:1097F0004FF0FF3070BD00007C35002010B5FFF742
:1098000063FB0120FFF785FE002010BD38B5002066
:10981000FFF77FFE00208DF8000064240AE069460F
:10982000472000F0EDF89DF80000000705D0022069
:1098300005F08AFC641EE4B2F1D20020FFF77CFE42
:10984000002038BD10B5012807D090B12D281ED0BA
:109850003E2820D03F2821D025E00022DF215F20B4
:1098600000F018F980227F212D2000F013F98022CA
:109870000AE02022DF215F2000F00CF900227F2186
:109880002D2000F007F900227F213E2009E00A4642
:1098900080212D2005E00A468021F6E70A460021B6
:1098A0003F2000F0F7F8002010BD2DE9F0411446EC
:1098B0000D4606461F460022DF212020DDF81880D5
:1098C00000F0E8F81DB1012D06D1022200E00022CF
:1098D000FD211B2000F0DEF864B1012C13D1002221
:1098E000FE211B2000F0D6F83946172000F0B6F80C
:1098F000414605E00122FE211B2000F0CBF839464D
:10990000142000F0ABF816B1012E07D101E00122BE
:1099100000E00022FE211C2000F0BCF80020BDE881
:10992000F0810000024881795B2000F097B80000C8
:109930007C3500203EB500208DF800008DF8040035
:109940008DF80800FFF762FF01A9042000F058F825
:1099500002A95F2000F054F82022DF21042000F04B
:1099600099F80122FE215F2000F094F8022005F012
:10997000EBFB0222FD215F2000F08CF8022005F0B5
:10998000E3FB6946622000F03BF89DF8000041F2DD
:10999000D47110FB01F0040A9DF80410042000F0BB
:1099A0005DF820463EBD0000054810B5C06918B1FD
:1099B00004480068FFF7F6F9BDE81040FFF726BF3E
:1099C0007C350020E041030010B51A2006F031F884
:1099D00001211A2006F083F8152006F02AF800214C
:1099E000152006F07CF8022005F0AEFB01211520C1
:1099F00006F075F8642005F0A7FB002010BD0000FC
:109A00002DE9FE4F002589468046AA468DF8048040
:109A100001245A218DF8058001AF0E468DF808808B
:109A2000234602AA0C48CDF800A005F018FC0A480D
:109A30003146001D3A46234606F0EAFE40B29DF844
:109A4000042089F80020002803DA6D1CEDB2052DF2
:109A5000DCD3BDE8FE8F0000184103002DE9FC4176
:109A600000260C46054637468DF804505A218DF8DD
:109A70000540022301AA0648009705F0F0FB40B21A
:109A8000002803DA761CF6B2052EEDD3BDE8FC8182
:109A900018410300F8B5064600200D468DF8000079
:109AA000144669463046FFF7ABFF9DF8001030467C
:109AB000294021438DF80010FFF7D0FF0020F8BDAA
:109AC00038B50A4B14461870581CFCF7CDFC002022
:109AD000641C0090E3B2054A5A21054805F0BFFB1B
:109AE00010F0FF0001D04FF0FF3038BDF04E0020E5
:109AF0001841030008B500208DF8000069460220D7
:109B0000FFF77EFF08BD00002DE9F0410026344636
:109B10002022DF210420FFF7BDFF08212120FFF7CD
:109B20009DFF00212220FFF799FF08214020FFF729
:109B300095FF00214120FFF791FF0A4840F2CA75C6
:109B4000094F85814220395DFFF788FF641CA4B26C
:109B5000AC42F7D30022DF210420FFF79BFF304601
:109B6000BDE8F0817C3500200824002038B50024B1
:109B70008DF8004069460020FFF742FF9DF8000085
:109B8000242809D0641CE4B2022005F0DDFA052C7B
:109B9000F0D34FF0FF3038BD002038BD01490978BF
:109BA0000170704794220020DFED270A932170B5E1
:109BB00020EE200A4FF49662BDEEC00A10EE100AA5
:109BC0004843642190FBF1F020499042486000DA5C
:109BD00010462922A0F5966090FBF2F0082800DBE1
:109BE0000720C2B21A480A70436B0C2B0DD240F802
:109BF0002320036B1A440263426B521C4263826B44
:109C0000521C82630020C8601BE0836B0C24B3FBF2
:109C1000F4F504FB1533056B50F82360AD1B0563A9
:109C200040F82320036B1A440263836B5B1C83633D
:109C3000B2FBF4F0C2B20A70C86810B1824200D917
:109C400008700878C86070BD00007A449422002033
:109C5000E43E002001480068FFF7A4B83841030043
:109C600070B505462DED028B007800281DD102212C
:109C7000686806F0D1F908B1FEF790FF9FED0C8AF5
:109C8000DFED0C8A0C4E0024686830F9140000EEF9
:109C9000100A56F83400B8EEC00A20EE080A20EE8A
:109CA000280A8047641C022CEED3BDEC028B70BDE9
:109CB000666666400000803A403F00200549095C26
:109CC0004FF0A040D0F81005C84010F0010000D0BF
:109CD00001207047273F03007CB50446C0074FF0C2
:109CE00000050AD00D480122002300780095114696
:109CF000019505F00FFE00F043F8A0070DD5074EC3
:109D00000024761C0022305D2B46009511460195FB
:109D100005F000FE641C042CF4D37CBD263F030038
:109D200007490B5C4FF0A041D1F804250120984071
:109D300020EA0203C1F808351040C1F80C0570474D
:109D4000263F03000249085C002105F0A7BE000081
:109D5000263F03000249085C012105F09FBE000078
:109D6000263F03000549095C4FF0A040D0F80405E8
:109D7000C84010F0010000D001207047263F0300CA
:109D80000020FFF7DFBF0020FFF7E4BF10B5024659
:109D9000064B4FF0FF3000215C5C944201D1084635
:109DA00010BD491C0429F7D310BD0000273F030054
:109DB0002DE9F0470D468146FFF7E8FF04460428E9
:109DC00036D2DFF874801B481C4EA8F10C0725B36F
:109DD000012D0ED0022D2BD104EB440030444578E8
:109DE000002D25D0B968002922D02846BDE8F047CB
:109DF000084704EB4401755C0E44717849B10E4A82
:109E00004FF40041093A8068FEF78CFF08B987F8E3
:109E10000390B17808F80410E2E78068FEF7C2FF0B
:109E200004EB4401314418F804008D78A842D7D0DF
:109E3000BDE8F087C83F030074200020F4390020FB
:109E4000042801D2FFF73ABF0020704710B5344C08
:109E5000E178012912D021460E384978172841D2DD
:109E6000DFE800F0101B21282E3137405D5D4040B7
:109E7000404040403A4B4E5154575A00BDE81040C4
:109E800008F0A8BE41F00100607003F007FF43F640
:109E90009821082007F016F924E003F0FFFE60780F
:109EA00040F0020004E003F0F9FE607840F00400A6
:109EB000607017E003F0F2FE607840F00800F7E70A
:109EC00041F0100001E041F02000607003F0E6FE78
:109ED00008E041F04000EBE721F00100607008204D
:109EE00007F0C6F86078032819D103F02BFE07F0BD
:109EF00089FFBDE8104007F0A5BE21F00200D7E7BA
:109F000021F00400D4E721F00800D1E721F010008F
:109F1000CEE721F02000CBE721F04000C8E710BDDC
:109F2000D01F002070B50023042810D20D4D00EB87
:109F30004004012A02D101290CD00022094E00EB75
:109F40004000304461B1012906D0022906D0072320
:109F5000184670BD0E30C2B22A55F9E74270F7E7D5
:109F60008270F5E7F439002070B5064625480024D4
:109F7000C0E90161B0072ED500250122114628460F
:109F8000FFF7D0FF05F11E00C2B200212846FFF7FF
:109F9000C9FF05F11600C2B202212846FFF7C2FF31
:109FA0006D1C0446042D02D2002CE6D013E094B9B7
:109FB00040F21F5204211448FEF7B4FD04000AD1F8
:109FC000FEF79EFD040006D10F48104A0021001F35
:109FD000FEF76AFE0446F00712D00120FFF77CFE70
:109FE00074B909480A4A00210C38FEF75DFE0400E6
:109FF00006D10548074A01210838FEF755FE0446F8
:10A00000204670BD68200020D43F0300E1A102007B
:10A01000B1DD0200F98A02002DE9F05F6E4C0546C1
:10A0200000266078B34618B184F801B003F0B6FE9C
:10A030006A4F4FF47A694FF4C87A4FF00108182D2F
:10A0400069D2DFE805F00C1313384754696E727B50
:10A05000727BC58484848484B3B6B9BCC5C503F05F
:10A060009DFE3868FEF79EFE06465CE00020FFF786
:10A0700079FE00284FF0000008D0FFF763FE022DA4
:10A0800002D14FF4E16008E0484606E0FFF762FEC7
:10A09000022D01D1C82000E05046410CC0034FF40E
:10A0A000FA72801841F10001257052000023FCF77C
:10A0B0009BF901462AE00020FFF754FE00284FF0EC
:10A0C000000004D0FFF73EFE4FF44870E5E7FFF7CD
:10A0D00041FEDFE70020FFF745FE00284FF00000BB
:10A0E00002D0FFF72FFECFE7FFF734FED4E70020C2
:10A0F000FFF738FE00284FF0000002D0FFF722FEE5
:10A1000001E0FFF727FE257041F69A11002238681A
:10A11000FEF708FE064646E00020FFF701FE257028
:10A1200008E0002051E025703DE084F80180012026
:10A13000FFF7F6FD002240F6CD41E8E784F8018004
:10A140000120FFF7EDFD00224FF48041DFE7786842
:10A15000FEF728FE0646D5F1110000D02EB10220F0
:10A16000FFF7F0FD84F802B01DE0012816D980B297
:10A17000C8214843C117C90341EA5041C0034FF405
:10A18000FA72801841F1000152000023FCF72CF90B
:10A19000014600227868FEF7C5FD06460220FFF75B
:10A1A000D9FD84F802803046BDE8F09F03F0F6FD4B
:10A1B000B9E703F0F3FDB4E703F0F0FD04E003F0CA
:10A1C000EDFD0020FFF7C6FD0120FFF7C3FDAAE764
:10A1D000FFF7D9FDA7E7000068200020C83F030073
:10A1E00000780221FFF7E4BD006890FAA0F000BA01
:10A1F000704700002DE9F041914E0C462DED068B85
:10A2000088B00546F16B06297BDB0020DFF834823D
:10A21000B7EE009A2EE000BF08EB4012F8EE000AFD
:10A22000D2ED051A92ED061A92ED070A854A21EE43
:10A23000A02A00EB4003C03202EBC30282ED002AE9
:10A2400021EE202A60EE200A20EE400A82ED012A4B
:10A25000C2ED020A61EEA10AC2ED030A61EE010A33
:10A26000C2ED040A82ED059A774A02EB8002401C97
:10A2700082ED000A8842CFDB734A06271832A2F12A
:10A28000A80100973B460846019704F0D5FD6E4AA9
:10A290000621A832A2F1900004F000FD6A490623CD
:10A2A0006A4AA1F19000009704F030FE6749062346
:10A2B00002AAA1F19000009704F06CFDDDED050A03
:10A2C000F5EEC00AF1EE10FA1BD99DED060AB5EEC7
:10A2D000C00AF1EE10FA14D99DED021ADDED031A51
:10A2E000DDED048A81EE20AAC1EE809A21EE0A1AE1
:10A2F00001EEA91ADDED071A08EEA81A31EE611A6F
:10A3000000E07DE0DFED521A81EE818AB5EEC08A71
:10A31000F1EE10FA74D960EE880A60EE08AAB0EE89
:10A32000600AFDF74AFF85ED000AB0EE6A0AFDF704
:10A3300044FF85ED010AB0EE480AFDF73EFF85EDCA
:10A34000020A84ED00AAC4ED019AC4ED028ADFED91
:10A35000419A0027B0EE698AF0EE488A22E000BFF9
:10A36000B0EE690A002008EB471100BF01EB800244
:10A37000D2ED050A04EB800292ED001A05EB800293
:10A38000401C70EEC10A92ED001A032860EE810AAB
:10A3900000EEA00AEADBFDF710FF00EE008A78EE7F
:10A3A000808A7F1CF06B8742DADB00EE100A68EED1
:10A3B000A80AF8EEC01A80EEA11A78EE410AB8EEAB
:10A3C000C01A80EE810AFDF7F8FE234900204FF005
:10A3D0007E5300BF04EB800292ED000AB0EEC00A8B
:10A3E00010EE102A9A420BDC05EB800292ED000A77
:10A3F00030EE490AB0EEC00A10EE102A8A4205DD9E
:10A40000002008B0BDEC068BBDE8F081401C03289D
:10A41000E0DB1249002000BF04EB800205EB800363
:10A4200092ED000A01EB8002401C82ED0C0A93EDD4
:10A43000000A032882ED090AEEDB0120E1E70000B3
:10A44000F0220020784B0020C84C0020004E002055
:10A45000E378C042000000009A99193E444E002063
:10A460002DE9F043DFF8C49104462DED048B87B04D
:10A470000120C9F800000D460020DFF8B481F7EE96
:10A48000008AD9F8342028E000EB400308EB830170
:10A49000B0EE001AD1ED001AD1ED010A91ED020AD9
:10A4A000644921EE812A01EB001181ED002A20EEA2
:10A4B000812A20EE011A81ED012A81ED021A21EE96
:10A4C000A11AC1ED038A5C4900EEA01A01EB8001DC
:10A4D000401C00EE001A81ED001A9042D4DB0426E5
:10A4E0001927554A5349CDE9007633466432084668
:10A4F00004F0D8FC504A0421A432A2F1400004F038
:10A500000BFC4D4A0423E4324B494A48009704F0BF
:10A5100025FD49490423E43102AAA1F14000009637
:10A5200004F062FCC4ED008AC4ED018AC4ED028A25
:10A530009DED020A414985ED000A9DED030A0020C8
:10A5400085ED010A9DED040A85ED020A05EB800206
:10A5500004EB800392ED000A01EB8002401C82EDC7
:10A56000140A93ED000A032882ED110AEEDB00279E
:10A57000DFED339A4E46B0EE698AB0EE489A23E09A
:10A5800007EB4702B0EE690A002008EB820100BF2A
:10A5900001EB8002D2ED000A05EB800292ED001A79
:10A5A00004EB8002401C70EEC10A92ED001A0328F1
:10A5B00060EE810A00EEA00AEADBFDF7FEFD00EE88
:10A5C000009A38EE008A7F1C706B8742D8DB00EE61
:10A5D000100A68EE080AF8EEC01A80EEA11A79EEA9
:10A5E000410AB8EEC01A80EE810AFDF7E6FD07F0D9
:10A5F0003DF81449002000BF04EB800292ED000AF0
:10A6000030EE680AB0EEC00A10EE102A8A4205DD6C
:10A61000002007B0BDEC048BBDE8F083401C03288C
:10A62000EADB002030600120F3E70000F022002088
:10A63000B0470020DC4800206C4A0020444E002037
:10A6400000000000CDCCCC3D05494FF0FF3208287A
:10A6500041F8202002D3084480F8542070470000BD
:10A66000A8360020F0B54FF0FF3512B100230826C0
:10A6700001E008230F260C4C05E000BF54F82370BE
:10A680007F1C04D05B1CB342F8D32846F0BD2618CB
:10A690005DB286F83C5044F82310002AF5D1E11849
:10A6A00081F85400F1E70000A83600200249084470
:10A6B00090F93C0070470000A836002010EE101AF8
:10A6C0001348814201DD0020704710EE102A114925
:10A6D0008A4201D90120704710EE902A824201DDA2
:10A6E0000220704710EE902A8A4201D90320704759
:10A6F00011EE102A824201DD0420704711EE100A8B
:10A70000884201D9052070474FF0FF3070470000A4
:10A7100066660E4166660EC12DE9F04FAB4E93465C
:10A720002DED028B83B0884681464FF0000A9FEDE5
:10A73000A88AA84CF06A04F10C0504F11807D0B1FE
:10A740000020F06203F010FAA4F12000B16A06F0D4
:10A750007DFF00202246394602EB800383ED008A0C
:10A7600005EB800383ED008A01EB8003401C83ED41
:10A77000008A0328F0DB002004EB800108EB800254
:10A7800091ED000AD2ED000A30EE200A81ED000AB8
:10A7900005EB800192ED000AD1ED000A09EB800281
:10A7A00040EE000AC1ED000A07EB8001D2ED000A7D
:10A7B00091ED000A401C032830EE200A81ED000ACA
:10A7C000DADBB16AA620491CB1FBF0F200FB1210E3
:10A7D000B146B16200287CD16A469FED7F0A00BF76
:10A7E00004EB8003D3ED000A05EB800320EEA01AF2
:10A7F000C1EE000A93ED001A02EB8003401C03280F
:10A8000071EE600A80EE801A83ED001AE8DB9DECA1
:10A81000020A724A30EE200ADDED020A30EE200A0A
:10A8200010EE100A90427DDA6A480022B0F1200052
:10A8300000EB820304EB820693ED050AD6ED000AD5
:10A8400007EB8206521C30EE200A032A83ED050A2C
:10A8500093ED020AD6ED000A30EE200A83ED020ADB
:10A86000E6DB41600268891A40F24132491C91429C
:10A870007EDD002200EE101A00EB8203521CB8EEBF
:10A88000C00AD3ED050A032A80EE801A00EE101AE2
:10A89000B8EEC00A83ED051AD3ED020A80EE801AE5
:10A8A00083ED021AE6DB002100EB810292ED020A41
:10A8B0000BEB8102491C82ED000A0329F4DB4FF007
:10A8C000010A804690ED071AD0ED060A90ED050AC0
:10A8D00000E06CE0FFF7F2FE06004ED4D9F830003D
:10A8E00086424AD0F0B2FCF721FFD9F82810D9F8F7
:10A8F0003C00F0B3D9F84000081A3949884201D920
:10A9000006F08EFE374850F82610012935DA491C2A
:10A9100040F8261000F118014B46D8F800C0D9F8CD
:10A920003C0000E02DE001EB4012C346C2F800C03D
:10A93000D8F804C0C2F804C0002201EB401800BFE0
:10A940000BEB820C08EB82019CED050A521C81ED99
:10A95000050A9CED020A032A81ED020AF0DB401C85
:10A96000D8631C48996A2038491C06F06FFE01E044
:10A970000CE028E0D86B03F0F7F8C9F83060D9F89C
:10A9800028101448491C203806F060FE5FF00000D3
:10A9900004EB800181ED008A05EB800181ED008AE6
:10A9A00007EB8001401C81ED008A0328F0DBD9F819
:10A9B0003C00062801DB4FF0020A03B05046BDEC14
:10A9C000028BBDE8F08FC9F840109BE7F022002011
:10A9D00000000000BC460020000026430AD7233CAC
:10A9E0002CD00300604B00202DE9F0478C4B06462D
:10A9F0002DED028B84B04FF000099FED8A8A8A4CBE
:10AA0000586A04F10C0570B10020C3F8249000BF0F
:10AA100004EB800282ED008A05EB8002401C82ED8F
:10AA2000008A0328F4DB002204EB820006EB820795
:10AA300090ED000AD7ED000A30EE200A80ED000A02
:10AA400005EB820097ED000AD0ED000A521C032AA4
:10AA500040EE000AC0ED000AE6DBDA689846521CB8
:10AA6000DA60186A4FF0010AA8B390075ED1D1ED01
:10AA7000012AB0EE000A91ED032A62EE800A91ED00
:10AA8000003AD1ED021A20EE821A23EE000A60EE9F
:10AA9000A10A00EE611A40EE020A23EE030A02EE5A
:10AAA000A20A01EEE10A02EE420A00F0C7F807002E
:10AAB0003CD4D8F80C10D8F8340068B1D8F8380075
:10AAC000081A5A49884201D906F0D0FD56485C3030
:10AAD00050F8271041B129E0C8F8381003F0E0F829
:10AAE000072003F041F8F1E740F827A0D8F8341028
:10AAF0004F4F01EB41030020424607EB830300BFA9
:10AB000006EB800797ED000A03EB8007401C87EDFA
:10AB1000000A0328F4DB491CC8F83410192905DBA6
:10AB2000012004B0BDEC028BBDE8F087D8F80C0022
:10AB3000A622B0FBF2F302FB13004146F0BB9FEDEF
:10AB40003D0A00206A4600BF04EB8003D3ED000AF3
:10AB500005EB800320EEA01AC1EE000A93ED001A67
:10AB600002EB8003401C032871EE600A80EE801A1D
:10AB700083ED001AE8DB3048009A824202DD019B37
:10AB800083420ADC019B834202DD029B834204DC98
:10AB9000029B834225DD824223DD0B695B1C0B6136
:10ABA0004B46C1F8149082420CDD019A824209DDC5
:10ABB000029A824206DD8869401C00E02DE0C1E96E
:10ABC000060303E08B61C869401CC861086A80B154
:10ABD0004869042802DAC8690A2812DBC8F82090FC
:10ABE0000FE0C1F81090C1F818904869401C486106
:10ABF000E9E70869032804DB8869012801DBC8F854
:10AC000020A0002004EB800181ED008A05EB80018B
:10AC1000401C81ED008A0328F4DB002081E700005E
:10AC2000F0220020000000008446002050040100B3
:10AC3000B0470020000026436F12833A10EE101A2E
:10AC4000764810B5814201DD042010BD10EE102AB7
:10AC500073498A4201D9152010BD10EE902A824214
:10AC600001DD0D2010BD10EE902A8A4201D90C2082
:10AC700010BD11EE102A824201DD0A2010BD11EE36
:10AC8000100A884201D90F2010BD10EE104A654904
:10AC9000654A664B66488C4247DD10EE904A8C420E
:10ACA00015DD11EE104A8C4201DD022010BD11EEBF
:10ACB000101A814201D9082010BD11EE100A9042ED
:10ACC00079DA11EE100A984275D2052010BD10EE07
:10ACD000904A844215D911EE104A8C4201DD0020C1
:10ACE00010BD11EE101A814201D9062010BD11EEDF
:10ACF000100A90425FDA11EE100A98425BD20320EC
:10AD000010BD10EE904A944255DA10EE902A9A4205
:10AD100051D211EE102A8A4201DD012010BD11EE40
:10AD2000101A814276D9072010BD10EE104A8442D5
:10AD300048D910EE904A8C4215DD11EE104A8C4233
:10AD400001DD132010BD11EE101A814201D9192026
:10AD500010BD11EE100A90425CDA11EE100A984212
:10AD600058D2162010BD10EE904A844215D911EE2B
:10AD7000104A8C4201DD112010BD11EE101A8142E3
:10AD800001D9172010BD11EE100A904242DA11EEDF
:10AD9000100A98423ED2142010BD10EE904A944200
:10ADA00038DA10EE902A9A4234D211EE102A8A42F2
:10ADB00002DD122010BD2DE011EE101A814229D9BA
:10ADC0001820F7E710EE104A944223DA10EE102A0A
:10ADD0009A421FD210EE902A8A420BDD11EE102A01
:10ADE0008A4201DD0B20E5E711EE101A814211D9EC
:10ADF0001020DFE710EE902A82420BD911EE102AC4
:10AE00008A4201DD0920D5E711EE101A814201D9ED
:10AE10000E20CFE74FF0FF30CCE70000D7A3703F04
:10AE2000D7A370BFCDCCCC3E3333B33E3333B3BEA8
:10AE3000CDCCCCBE2DE9F05F16460F4683464FF0D1
:10AE4000010A002451E000BF04EB44000BEBC009F1
:10AE500009EB840106EBC00891ED000A08EB8405BC
:10AE6000002085ED000A0EE000EB400106EBC10179
:10AE700001EB8401D5ED000A91ED000A401C40EE83
:10AE8000400AC5ED000AA042EEDB95ED000AFDF791
:10AE900094F985ED000A601C24E000BF09EB8001F5
:10AEA00008EB800291ED000A002182ED000A10E01B
:10AEB00001EB410306EBC30303EB840C03EB8003BC
:10AEC000DCED000A93ED001A491C00EEC10A82ED88
:10AED000000AA142ECDBD5ED000A401C80EE201AEE
:10AEE00082ED001AB842D9DB641CBC42ACDB504690
:10AEF000BDE8F09F2DE9F05F16460F4683464FF000
:10AF0000010A00244BE000BF0BEB041909EB84009D
:10AF100006EB041890ED000A08EB8405002085ED8F
:10AF2000000A0CE006EB001101EB8401D5ED000AEC
:10AF300091ED000A401C40EE400AC5ED000AA04217
:10AF4000F0DB95ED000AFDF738F985ED000A601C8D
:10AF500022E000BF09EB800108EB800291ED000ABE
:10AF6000002182ED000A0EE006EB011303EB840CD6
:10AF700003EB8003DCED000A93ED001A491C00EEA0
:10AF8000C10A82ED000AA142EEDBD5ED000A401CA9
:10AF900080EE201A82ED001AB842DBDB641CBC4252
:10AFA000B2DB5046BDE8F09F70B50F4DA8680F4C5E
:10AFB000C4F800020E486969C07C88470E490D48F4
:10AFC00008600021C4F8101101202061D4F810217C
:10AFD000002AFBD0C4F81011A96841F00401C4F89C
:10AFE0000012606070BD000098200020001000403A
:10AFF000403A0020223D00200415004007F064BFC5
:10B000002DE9F05F26484168F1B3DFF898B00E688B
:10B010008146DBF8004087688078E11B21F07F459E
:10B02000ED1CB0B9DFF880804FF48030C8F84403DD
:10B03000C8F804031120FCF765F91120FCF783F927
:10B040004FF0010AC8F800A02F2004F01DFE89F877
:10B0500002A0B54200D23546124BE8193C3320F02D
:10B060007F401860DBF800105A46091B21F07F4131
:10B07000001B20F07F40C91C81420FD91068186066
:10B080002F2004F001FE00E004E0BDE8F05F112095
:10B09000FCF76FB9BDE8F05F07F024B8BDE8F09F9A
:10B0A0005420002004150140001001400020FEF74C
:10B0B000C7FE04460120FEF7C3FE05460220FEF748
:10B0C000BFFE6119C142F1D10E49032008600D494C
:10B0D000103108600B49203108600A49303108609E
:10B0E000084940310860074950310860054960311E
:10B0F000086004497031086003480121016000685C
:10B10000FEE700000009004000050040124990EDF4
:10B11000000AD1ED0C0A30EE600AD1ED090A20EEEA
:10B12000200A80ED000A90ED010AD1ED0D0A30EE03
:10B13000600AD1ED0A0A20EE200A80ED010A90EDA6
:10B14000020AD1ED0E0A30EE600AD1ED0B0A20EEB4
:10B15000200A80ED020A7047444E002090ED000A5C
:10B16000D1ED000A30EE601A80ED001A90ED010A70
:10B17000D1ED010AB0EEC11A11EE102A70EE600A8C
:10B18000C0ED010A90ED020AD1ED021A0D4930EE30
:10B19000610A8A4280ED020A13DAF0EEE00A10EE4C
:10B1A000902A8A420DDAB0EEC00A10EE102A8A42C6
:10B1B00007DA9FED050A80ED000A80ED010A80EDB7
:10B1C000020A704796438B3C0000000090ED000A95
:10B1D000D2ED000A30EE600AD1ED000A20EE200A1E
:10B1E00080ED000A90ED010AD2ED010A30EE600A0E
:10B1F000D1ED010A20EE200A80ED010A90ED020A4D
:10B20000D2ED020A30EE600AD1ED020A20EE200AE9
:10B2100080ED020A7047000070B50B4C94F90120D4
:10B22000521CD11702EBD16121F01F01511A4DB20E
:10B2300005EBC50104EB810302790146181D521D7F
:10B24000FBF712F9657070BD743F002070B5144CA7
:10B2500094F90120002A02DA4FF0FF3070BD94F912
:10B26000002094F901309A4202D16FF0010070BDC4
:10B2700094F90020521CD31702EBD36323F01F0371
:10B28000D21A56B206EBC60204EB82031D1D5A68A1
:10B290000A601A7A691DFBF7E7F82670287970BDF5
:10B2A000743F00200A4991F9010091F90010814290
:10B2B0000BD0002809DB884202DDA0EB01007047BB
:10B2C00003DAC1F12001084470474FF000007047D5
:10B2D000743F002002484FF0FF3101704170704709
:10B2E000743F0020054991F90000401CC21700EB93
:10B2F000D26222F01F02801A08707047743F00204B
:10B300007FB50C4610B1012004B070BD2079002635
:10B3100038B141F61D5501281BD0022826D00F2038
:10B32000F2E70220207102960396E06801906946D8
:10B3300001A806F0DBF850B102988188E18000880E
:10B340002081BDF80010029806F04EF9DCE70A20D3
:10B35000DAE70A4B6A460021A01D06F083F838B1EF
:10B36000064918398E61CE610A28CDD12846CBE72F
:10B3700002488188019806F037F9F5E72820002077
:10B380002DE9F0470025DFF890803EE0606800215D
:10B3900000EBC506012032789146FBF756F8D4E958
:10B3A000062300EA020701EA030C57EA0C072AD039
:10B3B000C7433A408B434846C4E9062304F062FD84
:10B3C00032788246914601200021FBF73EF8D4E90D
:10B3D000042300EA020401EA03074A46504600211A
:10B3E000FBF733F844404F403C430CD170780128C0
:10B3F00001D0012000E00020726880EA0A0012B14A
:10B40000C1B2484690476D1CEDB298F80000444622
:10B410008542BBD3BDE8F087782000200E4910B5E7
:10B420000A784C780023A24212D0521CD2B20A7081
:10B43000022A00D10B70084A0B780C3252F82320F4
:10B4400002608868104420F07F408860012010BDB1
:10B450000360002010BD0000542000202DE9FC41B5
:10B4600080461F4615460E4600240D4803F0DEFDBB
:10B4700038B11120BDE8FC8106EB043004F06CFB10
:10B48000641CAC42F8D1064803F0CDFDCDE900576D
:10B49000334600220221404600F04EF80020E9E742
:10B4A0004020002010B503780022072B06D2DFE8E9
:10B4B00003F005040610202930000A7010BD012396
:10B4C0000B7003898B818388CB81C06888600A7484
:10B4D00010BD02220A7002898A818288CA81C268EC
:10B4E0008A60807D062802D00020087410BD0120EB
:10B4F000FBE703220A70C2888A810289CA81C06878
:10B50000886010BD04230B70C0888881CA818A605E
:10B5100010BD0520087010BD70B5064D064600240C
:10B5200055F8241009B130468847641C042CF7D321
:10B5300070BD0000D43700202DE9F04387B00446E9
:10B54000DDE90E8980681D4616460F4600280BD09F
:10B5500018216846FAF7A1FF02A88DF8007080E86C
:10B560006003A1686846884707B0BDE8F08382B0F1
:10B57000CDE9000121F0004001909DED000B02B0EB
:10B5800051EC100B7047000070B500244FF4FA75B1
:10B5900024E000BFFDF752FB0A2003F089FD641C84
:10B5A000AC421BD1154A00211548FDF77DFB08B1BF
:10B5B000FDF7F4FA1248134A0021001DFDF774FB51
:10B5C00008B1FDF7EBFA0E480F4A00210830FDF7ED
:10B5D0006BFB08B1FDF7E2FA07F0C8F90120FEF7AE
:10B5E0002FFC002809D00020FEF72AFC002804D1F7
:10B5F0000220FEF725FC0028CCD070BD9533030057
:10B6000030400300CD330300B13303000378074A11
:10B61000012133B1012B07D0022B05D0032B04D11C
:10B6200002E04068002800D1117070478822002095
:10B630000C4808B5007888B1684605F097FE78B1E7
:10B6400006210170684605F09FFE0748017809B1A0
:10B650000121017305F0F0FE002008BD022008BDA5
:10B66000082008BD3020002098380020F0B587B0B1
:10B6700014216846FAF711FF294F387818B1684647
:10B68000FFF74AFF4AE0381D03F0D0FC98BB4FF0AB
:10B6900080504FF4C82102694069224800220161AC
:10B6A0004FF4C221C160204904F0F9F8002820D1EC
:10B6B0001F481C238C221D49006803F075FC05F00F
:10B6C00039FB040014D0022C12D000260125062CD0
:10B6D00012D005A805F04AFE88B105700C2C18D2CE
:10B6E000DFE804F0170F170F1716171617111311AD
:10B6F0000B2007B0F0BD11E03D707E60BFE7082071
:10B70000F7E7067105E0032100E00221017100E086
:10B71000057105A805F038FE05F08EFE0020E8E76B
:10B7200030200020CC350020943F0300E437002077
:10B73000703F030038B5040014D0694605F0D6FE0A
:10B74000A0B1BDF8000000EB8001094800EB8100CA
:10B75000C16849B1A17A39B1C168491EC1600020F0
:10B76000A07238BD052038BD062038BD0A2038BD7E
:10B77000703800201FB501A9684605F073FE04B0BB
:10B7800010BD0000F8B50D46040018D0BDB16946E3
:10B7900005F0ACFEA8B1BDF800000B4900EB80003D
:10B7A00001EB800001210C30666803F042FC2E6042
:10B7B00060680C3068600120A0720020F8BD052090
:10B7C000F8BD0A20F8BD00007038002018B103232E
:10B7D000002208F07DBA052070470223002208F0FD
:10B7E00077BA0000084910B50A69042A0AD0074A46
:10B7F000096942F8210004480121103003F019FCC6
:10B80000002010BD0C2010BD10200020D4370020D7
:10B8100010B500210B2004F07BFA10488068FDF77A
:10B82000C1FA00210C2004F04FF90021112004F08E
:10B830004BF90A481C3004F051FF0B2004F0C4F807
:10B84000092004F0C1F80A2004F0BEF80C2004F02E
:10B85000BBF8BDE81040112004F0B6B80041030069
:10B860000B2801D100F066B8704700000149097843
:10B87000017070478C22002008B508480A216A46EA
:10B8800000680090054801231C3004F0C1FF002827
:10B8900003D103499DF80000087008BD0041030072
:10B8A0008C2200201F4908B5A42048601E4A0021B0
:10B8B0001E48FDF7F9F908B1FDF770F90C2004F006
:10B8C000AEF800210C2004F0FFF8112004F0A7F8D6
:10B8D0000021112004F0F8F8142003F009FC0121E4
:10B8E000112004F0F1F80A2003F002FC04F00AFB36
:10B8F00020B904F0D1FA08B1FDF750F90B480C4A11
:10B90000083869464068009001208DF801000B203E
:10B9100004F050FA08B1FDF741F901210B2004F0C1
:10B92000F7F908BD8C22002079B802000841030015
:10B9300061B80200074810B54168074800228068D6
:10B94000FDF7F0F9002803D0BDE81040FDF726B957
:10B9500010BD00008C22002000410300406805F06B
:10B960001BBD000070B508B1012070BD1B4C002547
:10B97000207B08B1257301E000F0A4F820780828A6
:10B980002AD2DFE800F02904080C10291422BDE8AF
:10B99000704000F025B8BDE8704000F081B8BDE807
:10B9A000704000F063B8BDE8704000F03FB806207A
:10B9B00020706088094900EB8000283901EB800085
:10B9C0004068BDE8704005F095B9072020706560BB
:10B9D000BDE8704005F09CB90F2070BD983800207C
:10B9E0001149F0B48A1C00200346A1F128050C1867
:10B9F000A67A4EB1A37200EB800405EB8404E668DE
:10BA000016B9247C012C0AD0401C80B20228EED347
:10BA10000B704B804B60F0BC41F61D50704710809E
:10BA2000F0BC00F03DB80000983800200C48418878
:10BA300001EB8102A0F1280101EB8201CA6852B139
:10BA4000052101700748022181800168002301223D
:10BA5000054803F0FDBE042202704968F6E70000C5
:10BA60009838002038200020CC35002038B50A490D
:10BA7000084803240B684268898803EB81015388D6
:10BA80000470DB1C00201B0400909B0B034803F098
:10BA90000EFF38BD9838002038200020CC3500201B
:10BAA000074910B54888091D05F070FD18B1BDE8BB
:10BAB0001040FFF7DBBFBDE81040FFF7B7BF000045
:10BAC00098380020F0B51F481F4901250678022448
:10BAD0008B88A0F12802082E19D2DFE806F004189E
