:020000040002F8
:10600000E0560020C5630200CD630200CF630200AA
:10601000D1630200D3630200D563020000000000D8
:10602000000000000000000000000000D763020034
:10603000D963020000000000DB630200DD630200A0
:10604000DF630200B9670200896C020099680200F0
:10605000DF630200DF63020079650200DF63020094
:10606000DF630200216C0200356C0200DF63020076
:10607000DF630200DF630200DF630200DF63020010
:10608000DF63020015680200DF630200DF630200C5
:10609000A968020001690200DF630200DF630200F9
:1060A000DF630200DF630200496C0200756C0200CE
:1060B000DF630200DF630200000000000000000058
:1060C000DF630200DF630200DF630200DF630200C0
:1060D000DF630200DF630200DF63020000000000F4
:1060E00000000000000000000000000000000000B0
:1060F00000000000000000000000000000000000A0
:10610000000000000000000000000000000000008F
:10611000000000000000000000000000000000007F
:10612000000000000000000000000000000000006F
:10613000000000000000000000000000000000005F
:10614000000000000000000000000000000000004F
:10615000000000000000000000000000000000003F
:10616000000000000000000000000000000000002F
:10617000000000000000000000000000000000001F
:10618000000000000000000000000000000000000F
:1061900000000000000000000000000000000000FF
:1061A00000000000000000000000000000000000EF
:1061B00000000000000000000000000000000000DF
:1061C00000000000000000000000000000000000CF
:1061D00000000000000000000000000000000000BF
:1061E00000000000000000000000000000000000AF
:1061F000000000000000000000000000000000009F
:10620000DFF810D000F07AF9004800473D85020021
:10621000AFF30080E056002030B4044654E8000F8D
:106220000D4644E80053002BF8D1156030BC704790
:1062300030B4044654E8000F40EA010544E8005336
:10624000002BF7D1156030BC704730B4044654E8D9
:10625000000F00EA010544E80053002BF7D1156058
:1062600030BC704730B4044654E8000F80EA0105A2
:1062700044E80053002BF7D1156030BC704730B4B0
:10628000044654E8000F00EB010544E80053002BDE
:10629000F7D1156030BC704730B4044654E8000FA5
:1062A000A0EB010544E80053002BF7D1156030BC8A
:1062B000704770B404464FF0000054E8006F0D685A
:1062C000AE4207BF44E80023012044E800630E60AB
:1062D000002B1CBF0020F0E770BC704730B40446B0
:1062E00054E8000F88422CBF451A054644E8005385
:1062F000002BF5D1156030BC7047000030B450E879
:10630000012F93B2C48923448489A34228BF1B1B55
:106310000489A34202BFBFF32F8F002007E0C3EA26
:10632000020340E80134002CE9D14FF001000A607B
:1063300030BC704750E8012FC2EA024240E8012118
:106340000029F7D1704730B450E8022F1FFAA2F3AA
:10635000C488A34202BFBFF32F8F00200DE0C48981
:1063600023448489A34228BF1B1BC2EA034340E89D
:106370000234002CE8D14FF001000A6030BC7047B5
:1063800050E8022FC2EA224240E802210029F7D158
:106390007047034653E8022FD988B2EB324F4FF0D3
:1063A000000017BF92B241EA014142EA014104E014
:1063B0005A68B2EB324F08BF012043E80212002AAC
:1063C000E8D170470648804706480047FEE7FEE7E9
:1063D000FEE7FEE7FEE7FEE7FEE7FEE7FEE7FEE795
:1063E00005690200016202002DE9F05F0546002008
:1063F00092469B4688460646814640241BE0284636
:1064000041464746224600F068F853465A46C01AAD
:10641000914110D311461846224600F04FF82D1A2C
:1064200067EB01084F4622460120002100F046F8A4
:1064300017EB00094E41201EA4F10104DFDC4846A1
:1064400031462A464346BDE8F09F000000487047A9
:1064500094D3020040EA01039B0703D009E008C976
:10646000121F08C0042AFAD203E011F8013B00F819
:10647000013B521EF9D27047D2B201E000F8012B65
:10648000491EFBD270470022F6E710B513460A46B4
:1064900004461946FFF7F0FF204610BD421C10F8D5
:1064A000011B0029FBD1801A7047034611F8012B0C
:1064B00000F8012B002AF9D118467047202A04DB86
:1064C000203A00FA02F1002070479140C2F1200307
:1064D00020FA03F3194390407047202A04DB203A46
:1064E00021FA02F00021704721FA02F3D040C2F1F4
:1064F000200291400843194670470000064C074DA2
:1065000006E0E06840F0010394E807009847103483
:10651000AC42F6D3FFF778FEB4D40200D4D4020024
:1065200070B58C1810F8015B15F0070301D110F855
:10653000013B2A1106D110F8012B03E010F8016B82
:1065400001F8016B5B1EF9D12B0705D40023521E05
:106550000DD401F8013BFAE710F8013BCB1A921C6D
:1065600003E013F8015B01F8015B521EF9D5A1426B
:10657000D8D3002070BD00002DE9F04700268AB076
:10658000DFF85091B0464FF48075012437460696E7
:10659000284603F0D5F838B1D9F80403204203D0D7
:1065A000284603F0C3F826432D1D64007F1CADB2BE
:1065B000082FEDD34FF4BE74204603F0C1F848B164
:1065C000204603F0B3F846F0004606AA0121002059
:1065D00003F098F8404D16F0FF0F15D00127002466
:1065E00037420DD009EB8401D1F81005D1F8101510
:1065F000C0F3042055F82420C1F3014102B19047B3
:106600007F00641C082CEBD3002E5FDA4FF0FF30C4
:10661000CDF8108054E0281910F85C7F90F9000044
:1066200027F0C008401C3BD007A9404602F083F980
:1066300010B34FEA9719404601F092F855F82070D0
:106640001FB1B9F1030F03D006E0B9F1030F27D151
:1066500004A9404602F077F94FF0A04101EB880011
:10666000D0F8000706A9C0F3014A404602F063F9DA
:1066700018B1BAF1020F03D012E0BAF1030F0FD133
:10668000B9F1030F08D1BAF1020F1DD00221404623
:1066900003F020F8761CF6B217B149464046B847D9
:1066A000641C072CB7D3002E10D06A4601210020AD
:1066B00003F028F806990098884207D006900498BD
:1066C000002634460790A6E70321E0E70AB0BDE8BC
:1066D000F087000000600040D028002000F01F027A
:1066E000012191404009800000F1E020C0F88012B3
:1066F000704700F01F02012191404009800000F125
:10670000E020C0F88012704700F01F020121914084
:106710004009800000F1E020C0F88011704700F0CF
:106720001F02012191404009800000F1E020C0F8E3
:106730000011704700F01F020121914040098000C4
:1067400000F1E020C0F80011704700F01F020121A5
:1067500091404009800000F1E020C0F8001270472D
:1067600000F01F02012191404009800000F1E0206B
:10677000C0F8001270474907090E002806DA00F039
:106780000F0000F1E02080F8141D704700F1E020B8
:1067900080F8001470474907090E002806DA00F057
:1067A0000F0000F1E02080F8141D704700F1E02098
:1067B00080F800147047000070B5144CD4F8000144
:1067C000002628B1D4F80403C00701D0C4F8006142
:1067D000D4F80C010E4D40B1D4F80403000704D5E1
:1067E000C4F80C61286900B18047D4F81001002872
:1067F0000BD0D4F80403C00607D5C4F81061E868CC
:10680000002802D0BDE87040004770BD0010004075
:106810000422002007480021C0F84011C0F84411AC
:10682000C0F84811C0F84C11C0F80011C0F80411AC
:1068300005F0F8BF0010014000F02CBA70B50E460C
:10684000144900EB400001EBC0051446E86A183516
:1068500020B101280FD0022805D113E0284600F00E
:106860004DFAA04201D2002411E0224631462846CA
:1068700000F07CFA0BE0284600F040FAA042F4D287
:106880000446F2E73146284600F043FA0446204623
:1068900070BD0000543400200149024805F03EBD9F
:1068A000A8280020003000407CB5144C606A01909C
:1068B0002078002821D00120FFF726FF65680026F8
:1068C00066600120FFF736FFE169002915D0E8076F
:1068D00003D08DF8006068468847A80705D50120D9
:1068E0008DF80000E16968468847680705D50220F1
:1068F0008DF80000E169684688477CBD04220020CD
:1069000005F002BFF0B5B5480023021D0178101D47
:1069100001254FF0805406290BD11678360708D18F
:106920000678C6F30316032E06D0042E04D0052ED7
:1069300002D0062907D00EE0B4F82463A84FC6F3AE
:1069400004263E6002E01678360704D10678C6F3C6
:106950000316032E02D0062904D00FE0A24FA14E49
:106960007E670EE01678360708D10678C6F3031660
:10697000032E06D0042E04D0052E02D0062907D0FF
:106980000EE0D4F84462994FC6F342363E6002E00E
:106990001678360704D10678C6F30316032E02D004
:1069A000062906D011E0924E376827F080773760CD
:1069B0000EE01678360708D10678C6F30316032EC4
:1069C00006D0042E04D0052E02D006290AD011E0EC
:1069D0004FF08046C6F80C31C6F81031834E361F92
:1069E000336002E01678360704D10678C6F3031642
:1069F000032E02D0062905D00CE07C4F0326643715
:106A00003E600AE01678360704D10678C6F303160E
:106A1000032E02D006290DD014E0764F05263E60E5
:106A2000744E78363560734E083633603F263F1D0E
:106A30003E6002E01678360704D10678C6F30316E6
:106A4000052E02D0062957D062E06B4E36686B4F98
:106A50003E60694E361D36683F1D3E60664E083604
:106A600036683F1D3E60644E0C3636683F1D3E6002
:106A7000614E103636683F1D3E605F4E14363668F4
:106A80003F1D3E605C4E183636685C4F20373E60D6
:106A9000594E1C3636683F1D3E60574E20363668CC
:106AA0003F1D3E60544E243636683F1D3E60524EB8
:106AB000283636683F1D3E604F4E2C3636683F1DE7
:106AC0003E604D4E303636684C4F40373E604A4E41
:106AD000343636683F1D3E60474E383636683F1DB7
:106AE0003E60454E3C3636683F1D3E60424E403665
:106AF00036683F1D3E6002E01678360708D10678FA
:106B0000C6F30316032E06D0042E04D0052E02D0A1
:106B1000062907D019E0D4F85812394A01F04F017C
:106B2000116002E0117809070FD10078C0F303105B
:106B3000032803D0042801D0052806D13148016874
:106B4000C90702D06FF001010160D4F830010628B6
:106B500008D1D4F83401062804D12B48016841F447
:106B60008061016022487438016841F4700101605D
:106B7000BFF34F8FBFF36F8F4FF01021D1F800029A
:106B8000002803DBD1F80402002822DA1F4A15602E
:106B90001F480468002CFCD01524C1F80042056889
:106BA000002DFCD0C1F8044201680029FCD013601C
:106BB00001680029FCD0BFF34F8F0D48F038016801
:106BC000144A01F4E06111430160BFF34F8F00BF2D
:106BD000FDE7124910480860F0BD0000E00F00F02A
:106BE000403501400DF0ADBA00C007403C05004003
:106BF000FCED00E0105600400404001020C50040E9
:106C0000E40E0040000400403C17004004E5014051
:106C100000E401400400FA050090D0034C2200205B
:106C200004220249024801F081BB000084280020B0
:106C30000090004004220249024801F077BB0000A6
:106C40009028002000A000400748D0F840110029FB
:106C500009D00021C0F8401104484078032802D12F
:106C6000034901200861704700A001400422002070
:106C70000010004006220249024801F057BB000004
:106C80009C28002000B00140014800680047000037
:106C90002421002010B5124C02202061606111A057
:106CA000A06104F17800E0614FF4007020620020E0
:106CB000A06260620BA1A164E06204F51E71E16450
:106CC0001021A065C4E91410E06509A1E01DFFF7DB
:106CD000ECFB08A12046FFF7E8FB2020A07110BDC7
:106CE000543400205465726D696E616C00000000C0
:106CF0005254540053454747455200000269C16849
:106D00008A4203D88068401A104400E0501A401E9E
:106D100070472DE9F047C4681746894606464FF08C
:106D200000083069A04201D9051B02E0B168201AB1
:106D30000D1AB0686D1E001BA84200D80546BD4262
:106D400000D33D4670682A4620444946FFF782FB3F
:106D5000B0687F1B2C44A844A944A04200D1002461
:106D6000F460002FDDD14046BDE8F0872DE9F04109
:106D700004468846D4E90207C51BE16860681646E8
:106D80000844B54206D94146FFF764FBB819E060F4
:106D9000BDE8F0812A464146FFF75CFB761B08EB15
:106DA000050132466068FFF755FBE660F0E702E058
:106DB00008C8121F08C1002AFAD170477047002086
:106DC00001E001C1121F002AFBD17047006890FA50
:106DD000A0F000BA00BA7047800701D000207047C9
:106DE00001207047C3688B4206D811440069491ED0
:106DF000814201D8012070470020704702460648B2
:106E00000649401AC008012101EB004004A102F02C
:106E1000AFFE01F011FA00002CD50200F4D40200FC
:106E20006170705F6572726F725F68616E646C65CD
:106E3000725F626172653A203078253038782100BF
:106E40002DE9F047244C8146924660880E468142E7
:106E50003FD84FF6FF77002000F0F4F822786078F2
:106E6000A188884201DA401C00E00020C0B29042B4
:106E700003D1002000F0E8F829E065784FF0000821
:106E80006078884201DA401C00E000206070002039
:106E900000F0DAF8BD421AD0A068B9F1000F40F84E
:106EA00035A00DD066B16188E068324605FB01006F
:106EB0004946FFF7CFFAA06800EBC500868003E0E3
:106EC00000EBC500A0F804800020BDE8F087042096
:106ED000FBE70920F9E700007821002010B50E4CEF
:106EE00003E0401C00E0002020702078617881429F
:106EF00010D022786188E068A36802FB010003EBF0
:106F0000C20153F83220898890472078A1888842AE
:106F1000E9DAE6E710BD00007821002030B5CB00AB
:106F200008339DB293074FF0000401D0072030BD15
:106F3000044B9A602A44DA605C701C705880998017
:106F4000002030BD78210020084B9B7823B12AB166
:106F500020B10068037C1BB10820704707207047F0
:106F6000002303744174426118467047282A0020A8
:106F700070B504F013FF104800240B210470447016
:106F80000E4D817015206C602C706C70FFF7A6FBA5
:106F900007211520FFF7EFFB1520FFF7C0FB08487E
:106FA000046007211120FFF7E6FB0548001F006879
:106FB000A860002070BD0000282A00206421002065
:106FC000081501402DE9F843DFF8709099F8023078
:106FD0005BB350B3052902D20720BDE8F8834369AB
:106FE0001BB3437C012B22D0002704460025884692
:106FF0001646284600F026F8684605F001FFC0B1A5
:10700000012101700E4944600968C0E90218C0E915
:1070100004769DF8000089F80100002000F014F8C3
:107020001520FFF792FB2846D7E70820D5E70F4643
:10703000DBE70425002000F007F8F4E7282A002009
:107040000415014000F002B800F008B872B602481A
:107050000168491C016070472C2100200349086821
:10706000401E086000D162B6704700002C2100204D
:10707000F0B54FF08050D0F80411C1F30722294930
:10708000422A0AD1284A136823F0010313600A68D0
:1070900022F0010242F080720A60D0F80401C0F3CD
:1070A000072045283AD12148407C052838D04FF0A8
:1070B0007F431F4800681E4A1840121D12681A407C
:1070C00090422BD11A4A083210681368C0B2C3F339
:1070D000072C13681268C3F30747160E144A0C32C4
:1070E0001368DDB21368C3F3072413681268C3F38F
:1070F0000743120E60450BD0B84209D0B04207D00A
:10710000A84205D0A04203D0984201D0904205D1B8
:10711000086820F0010040F0807008600020F0BD99
:10712000044BC6E774170040501600403822002078
:107130001C1500400000FFFF2DE9F04106460868DD
:107140000C46411C4FF0A0474FF0010506D005FA50
:1071500000F1C7F80815206802F0A8FA6068411C21
:1071600002D0002102F088FA3168A069C1F8240534
:10717000607D227D31681043C1F86C05D4E90012AE
:107180003068C0F81425C0F80C15207D012815D1F1
:10719000A068411C02D0002102F06EFAE068411C98
:1071A00005D08540C7F80855E06802F07FFAD4E9B9
:1071B00002123068C0F80825C0F81015BDE8F0814B
:1071C0002DE9F041064608680C46411C4FF0A047E7
:1071D0004FF0010506D005FA00F1C7F80815206840
:1071E00002F06EFA6068411C02D0002102F04DFAF4
:1071F0003168A069C1F82405607D217D32680843AB
:10720000C2F86C05D4E900123068C0F80C15C0F85B
:107210001425207D012815D1A068411C02D0002131
:1072200002F033FAE068411C05D08540C7F80855E4
:10723000E06802F045FAD4E902123068C0F8082587
:10724000C0F81015BDE8F081FEB53C4C01460020A9
:10725000A1706179012902D1A17901296DD04FF086
:107260008050026E35490B310A70026E120A4A7064
:10727000026E120C8A70006E0125000EC870304834
:1072800060654FF4FA50A062002020700720607003
:1072900001F15900E0652B48A065A57101F036FEAB
:1072A00001F09EFB04F0B2F92449A06DCC31486096
:1072B000084601F0EBFB00283FD1204A03230832A7
:1072C000D11C081D04F08AF92178E06D405C01F0C2
:1072D000ABFD08B1FFF792FD01F0D8FD061E01D00D
:1072E000FFF78CFD6079D0B91749D1E90601A76A8B
:1072F000626DCDE90101144801A9083003F0CEF810
:1073000008B1FFF77BFD104801233A460021083001
:10731000009503F0ADF80C48083003F09BF80B48DB
:107320000B49094A401AC008022101EB004065716F
:107330005E3208A102F01CFC3046FEBDF01F0020AA
:10734000E97502006D730200F8D002002CD502002E
:10735000F4D402005B25735D696E697420737563F4
:107360006365737366756C6C790A00002DE9F041F2
:107370000078022873D15C4801F03EFC00286ED1F1
:1073800059495B4E5B4C4879341B0225E4080123C4
:10739000564A05EB0444362804D0242860D0204601
:1073A00055A177E08D7951494F48002636270B319A
:1073B00025304FF0070C472D02D0582D26D02AE05B
:1073C00092F802E0BEF1000F25D191F800E080F8BC
:1073D00005E091F801E080F806E091F802E080F81D
:1073E00007E0C978017247728572D179C17280F85D
:1073F00000C04670C37001F015FB01F02FFB3A4846
:10740000253001F0A5FD204642A143E092F802E0BC
:10741000BEF1010F02D0204646A13BE091F800E00A
:1074200080F805E091F801E080F806E091F802E0CC
:1074300080F807E0C978017247728572D179C1720C
:1074400080F800C04670C37001F0ECFA01F006FB52
:107450002548253001F07CFD20463BA11AE040E0A4
:10746000214D8879103D472802D058280DD00FE0D3
:10747000907868B92B70B1F807009061497A116271
:1074800004F04AFA204638A112E09078012805D08D
:1074900020463CA1BDE8F04102F066BB6B70B1F83C
:1074A0000700D061497A516204F0A2FA20463AA15D
:1074B00002F05AFB01F0B6FA2878002811D068785B
:1074C00000280ED020463CA102F04EFB01F01EFD2C
:1074D00001F086FA012001F063F9BDE8F04104F003
:1074E000F3BABDE8F081000024230020F01F002043
:1074F0002CD50200F4D402006661696C20746F2000
:10750000726563656976652068616E646C65206389
:107510006D640A0072656365697665206C656674E2
:107520002068616E646C654944207265717565738D
:10753000740A0000756E6B6E6F776E2068616E6402
:107540006C6549440A0000007265636569766520D0
:1075500072696768742068616E646C654944207262
:107560006571756573740A006C656674206A6F795D
:10757000737469636B20626F6E64207375636365F7
:1075800073730A0068616E646C652061636B2065CB
:1075900072726F720A0000007269676874206A6F05
:1075A00079737469636B20626F6E642073756363B3
:1075B0006573730A000000006C65667420616E6478
:1075C000207269676874206A6F79737469636B20CD
:1075D00061726520626F756E642073756363657395
:1075E0007366756C6C790A0010B5B0F5A07F16D182
:1075F0000B4C20786178401CB0FBF1F201FB1200CB
:10760000207001F083FC2178E06D405C01F00CFCFF
:1076100008B1FFF7F3FBBDE8104001F037BC10BD27
:10762000F01F00202DE9F0470546861C90460F46C6
:107630004FF001090020FFF705FD1B4C2068386062
:10764000D4E90001401AA16804F21C47081A0EE0B0
:107650000121384601F0F7F800F016FF01463846E0
:1076600001F0F1F8D4E90001401AA168081A401CA1
:107670008642EDD8B8F1000F03D0052065F38910DC
:1076800002E0062065F39F50A2682168114004EBD8
:107690008101C8602068304420600020FFF7D4FCDE
:1076A0004846BDE8F08700000C2D002070B50D465F
:1076B00004460A2902D10D21FFF7F8FFA0682268CD
:1076C000411CA1601554D4E90101814204D3204634
:1076D000BDE8704001F09FBC70BD0000034803C8C6
:1076E000814201D101207047002070470C2D0020FD
:1076F000006890FAA0F000BA7047000005494FF00A
:10770000FF32082841F8202002D3084480F8542092
:1077100070470000D0280020F0B54FF0FF3512B1BF
:107720000023082601E008230F260C4C05E000BFCB
:1077300054F823707F1C04D05B1CB342F8D3284656
:10774000F0BD26185DB286F83C5044F82310002A9C
:10775000F5D1E11881F85400F1E70000D0280020AD
:107760000249084490F93C0070470000D0280020EE
:107770002DE9FC412249234A0024891A0127C9081E
:107780000222214E02EB0145019410B101281AD0CA
:1077900031E0307800282ED00122042101A803F026
:1077A0003FFC70B9284619A1019A02F0E1F901984D
:1077B00038B1CDE9007401231A46042101A803F071
:1077C00061FC347017E07078A8B10222042101A88E
:1077D00003F026FC70B9284612A1019A02F0C8F9FC
:1077E000019838B1CDE9007401230222042101A8D7
:1077F00003F048FC747011488471BDE8FC810000FE
:107800002CD50200F4D402001423002063686563C1
:107810006B20424F4E445F4C5F4B4559203A2564E4
:107820000A000000636865636B20424F4E445F525C
:107830005F4B4559203A25640A000000F01F0020E4
:1078400070B50F4DA8680F4CC4F800020E48696966
:10785000C07C88470E490D4808600021C4F810110B
:1078600001202061D4F81021002AFBD0C4F81011A7
:10787000A96841F00401C4F80012606070BD000006
:10788000042200200010004030310020123400207B
:10789000041500402DE9F05F26484168F1B3DFF898
:1078A00098B00E688146DBF8004087688078E11B5D
:1078B00021F07F45ED1CB0B9DFF880804FF48030B7
:1078C000C8F84403C8F804031120FEF707FF11208D
:1078D000FEF725FF4FF0010AC8F800A02F2002F0A4
:1078E00055FB89F802A0B54200D23546124BE81983
:1078F0003C3320F07F401860DBF800105A46091B2B
:1079000021F07F41001B20F07F40C91C81420FD92C
:10791000106818602F2002F039FB00E004E0BDE899
:10792000F05F1120FEF711BFBDE8F05F04F036BA3A
:10793000BDE8F09F642100200415014000100140C3
:1079400070B50B4C94F90120521CD11702EBD16198
:1079500021F01F01511A4DB205EBC50104EB810363
:1079600002790146181D521DFEF774FD657070BD49
:107970007023002070B5144C94F90120002A02DA1B
:107980004FF0FF3070BD94F9002094F901309A4215
:1079900002D16FF0010070BD94F90020521CD31782
:1079A00002EBD36323F01F03D21A56B206EBC602D2
:1079B00004EB82031D1D5A680A601A7A691DFEF7DE
:1079C00049FD2670287970BD702300200A4991F97D
:1079D000010091F9001081420BD0002809DB884298
:1079E00002DDA0EB0100704703DAC1F12001084479
:1079F00070474FF0000070477023002002484FF09E
:107A0000FF3101704170704770230020054991F9E2
:107A10000000401CC21700EBD26222F01F02801A45
:107A200008707047702300207FB50C4610B101200C
:107A300004B070BD2079002638B141F61D550128EB
:107A40001BD0022826D00F20F2E7022020710296D8
:107A50000396E0680190694601A803F017FD50B154
:107A600002988188E18000882081BDF8001002988A
:107A700003F08AFDDCE70A20DAE70A4B6A460021B8
:107A8000A01D03F0BFFC38B1064918398E61CE61E4
:107A90000A28CDD12846CBE702488188019803F017
:107AA00073FDF5E74821002010B50021024800F0E1
:107AB000E5FE80F3100010BD283100200E4910B5FE
:107AC0000A784C780023A24212D0521CD2B20A701B
:107AD000022A00D10B70084A0B780C3252F823208E
:107AE00002608868104420F07F408860012010BD4B
:107AF0000360002010BD0000642100202DE9FC413E
:107B000080461F4615460E4600240D4800F098FE9C
:107B100038B11120BDE8FC8106EB043002F0B8F961
:107B2000641CAC42F8D1064800F081FECDE9005754
:107B3000334600220221404600F04EF80020E9E7DB
:107B40006021002010B503780022072B06D2DFE861
:107B500003F005040610202930000A7010BD01232F
:107B60000B7003898B818388CB81C06888600A741D
:107B700010BD02220A7002898A818288CA81C26885
:107B80008A60807D062802D00020087410BD012084
:107B9000FBE703220A70C2888A810289CA81C06811
:107BA000886010BD04230B70C0888881CA818A60F8
:107BB00010BD0520087010BD70B5064D06460024A6
:107BC00055F8241009B130468847641C042CF7D3BB
:107BD00070BD0000542900202DE9F04387B0044611
:107BE000DDE90E8980681D4616460F4600280BD039
:107BF00018216846FEF747FC02A88DF8007080E85F
:107C00006003A1686846884707B0BDE8F0830000BC
:107C10000378074A012133B1012B07D0022B05D08D
:107C2000032B04D102E04068002800D11170704796
:107C3000D42000200C4808B5007888B1684603F0CD
:107C400065FB78B106210170684603F06DFB0748BB
:107C5000017809B10121017303F0BEFB002008BDCA
:107C6000022008BD082008BD50210020182A00204D
:107C7000F0B587B014216846FEF705FC294F387827
:107C800018B16846FFF798FF4AE0381D00F0D8FDAC
:107C900098BB4FF080504FF4C821026940692248D8
:107CA000002201614FF4C221C160204901F048FB6C
:107CB000002820D11F481C238C221D49006800F099
:107CC00077FD03F0E5F8040014D0022C12D0002652
:107CD0000125062C12D005A803F018FB88B1057009
:107CE0000C2C18D2DFE804F0170F170F1716171611
:107CF000171113110B2007B0F0BD11E03D707E602D
:107D0000BFE70820F7E7067105E0032100E0022144
:107D1000017100E0057105A803F006FB03F05CFBB0
:107D20000020E8E7502100205022002084D20200E9
:107D30006429002000D2020038B5040014D069463E
:107D400003F0A4FBA0B1BDF8000000EB80010948DE
:107D500000EB8100C16849B1A17A39B1C168491EFF
:107D6000C1600020A07238BD052038BD062038BD96
:107D70000A2038BDF02900201FB501A9684603F08C
:107D800041FB04B010BD0000F8B50D46040018D04A
:107D9000BDB1694603F07AFBA8B1BDF800000B49FC
:107DA00000EB800001EB800001210C30666800F0E0
:107DB0004AFD2E6060680C3068600120A0720020CF
:107DC000F8BD0520F8BD0A20F8BD0000F02900200C
:107DD00018B10323002205F04FB805207047022395
:107DE000002205F049B80000084910B50A69042AC4
:107DF0000AD0074A096942F82100044801211030DD
:107E000000F021FD002010BD0C2010BD302100200D
:107E100054290020406803F08FBA000070B508B103
:107E2000012070BD1B4C0025207B08B1257301E0AB
:107E300000F0A4F8207808282AD2DFE800F029040E
:107E4000080C10291422BDE8704000F025B8BDE8E8
:107E5000704000F081B8BDE8704000F063B8BDE844
:107E6000704000F03FB8062020706088094900EBA0
:107E70008000283901EB80004068BDE8704002F0C6
:107E8000E7BF072020706560BDE8704002F0EEBFDC
:107E90000F2070BD182A00201149F0B48A1C002060
:107EA0000346A1F128050C18A67A4EB1A37200EB87
:107EB000800405EB8404E66816B9247C012C0AD002
:107EC000401C80B20228EED30B704B804B60F0BC9C
:107ED00041F61D5070471080F0BC00F03DB8000026
:107EE000182A00200C48418801EB8102A0F12801EA
:107EF00001EB8201CA6852B10521017007480221D5
:107F00008180016800230122054801F07DB9042227
:107F100002704968F6E70000182A00205821002066
:107F20005022002038B50A49084803240B684268EB
:107F3000898803EB810153880470DB1C00201B043B
:107F400000909B0B034801F045FA38BD182A002029
:107F50005821002050220020074910B54888091DEB
:107F600003F0E4FA18B1BDE81040FFF7DBBFBDE84D
:107F70001040FFF7B7BF0000182A0020F0B51F48D7
:107F80001F490125067802248B88A0F12802082EBB
:107F900019D2DFE806F00418181B222F2F170189C9
:107FA000491C01810021418080F80C1001EB810304
:107FB00012F8233043B100234418491C89B2A3723C
:107FC0000229F3D30570F0BD0123F5E7426852881A
:107FD000D21C1A448A800470F0BD46880D6806EBF6
:107FE000860602EB860256680E60556013818C800F
:107FF000062100E007210170F0BD0000182A0020D2
:10800000582100201CB50522042101A803F008F81E
:1080100020B90198072801D2C0B21CBD04F0B6FAFD
:1080200001900120034600900522042101A803F0DD
:1080300029F848B905480649401AC008022101EB51
:10804000004004A101F090FD0198E5E72CD5020065
:10805000F4D40200777269746520726620696478CE
:1080600020696E666F206F6B200000000148006C75
:1080700070470000F01F00200148006D70470000AD
:10808000F01F0020428800EB82020C328A4201D9A4
:10809000022070478188A1F57F42FF3A03D0008813
:1080A00008B10020704701207047884204D2006860
:1080B000401C01D0012070470020704701494160F9
:1080C0000020704778D202002DE9F0412D4F0025A5
:1080D00018B17D600120BDE8F0810879012258B116
:1080E000294E01280CD0274C4FF0020808340228F2
:1080F00021D0032842D128E00A7102F0B7FE3BE00C
:108100005FF0000000EB800116F82110022908D072
:10811000401C80B20228F5D33A707D6041F61D50B4
:10812000D9E700EB800006F8205006EB800040689D
:1081300002F08EFE20E00D71A4F8048000230122DD
:108140001248216801F060F816E00D71206802F015
:108150007FFE0D4923682831498801EB810206EB37
:108160008201D1F804C0C4F800C04B60A3880B8121
:10817000A4F8048006F822500028ACD07D600E20C0
:10818000A9E7000050210020F02900205022002003
:108190002DE9FC5F0E008346DDE90C47C6F10000C7
:1081A00098469246814600D40846012503E000BF68
:1081B00090FBFAF06D1C5045FADAA84500D9454607
:1081C00024B1002E01DB780700D5641EB80702D564
:1081D000B8F1000F0AD0F80708D13CB1A54205D28A
:1081E00020215846641EFFF761FAF6E7002E02DAF6
:1081F0004E462D2102E0780703D52B215846FFF784
:1082000055FA07F0030002280BD1B8F1000F08D18E
:108210003CB1A54205D230215846641EFFF746FA0C
:10822000F6E7CDE90047434652463146584604F04A
:10823000CFFCBDE8FC9F000001F04AFD01F080FB8F
:108240000028FBD10A4E64254FF47A47741C384647
:10825000A0476D1EFAD1BFF34F8F06480168064A4A
:1082600001F4E06111430160BFF34F8F00BFFDE7F0
:1082700070D102000CED00E00400FA0570B50D4667
:10828000044600684FF4887101F071FE4FF490715C
:10829000206801F06CFE4FF49271206801F067FED7
:1082A0004FF4A271206801F062FE20681149C0F805
:1082B00004132068690740F30730090E002806DA26
:1082C00000F00F0000F1E02080F8141D03E000F141
:1082D000E02080F800142068012140F3073000F00E
:1082E0001F0291404009800000F1E020C0F8001119
:1082F00070BD000010030200024600201268530700
:1083000013D502F00300012802D002280CD105E0A9
:10831000C2F383100B68801C184404E00223086831
:1083200003EB925210440860012070472DE9F041A0
:10833000174688460646002417E000BF4FF4A07099
:1083400000EB84054FF480307159A04059B1D6F844
:108350000413014207D02946304601F0ECFDD8E96C
:10836000002128469047641CE4B2BC42E6D3BDE835
:10837000F081000002480068002800D0012070470A
:1083800060210020800701D0002070470120704745
:108390002DE9F047394E002780463D46DFF8E09052
:1083A000D6F804A057E003D00446D0F81C8035E08E
:1083B00099F8002002EB4201521CD2B289F8002049
:1083C00009EBC10199F80230091D9A4201D189F8DF
:1083D000005048680A780446012A12D0022A02D0C6
:1083E000032A3BD108E004F0EDF900B10127257420
:1083F00034E00574C06900E070680028F9D170604D
:108400002CE0207C50BB88686060C868A060086968
:10841000E0604869A061F07800B165606268B168A9
:10842000184B501A20F07F40984202D2A1680844AD
:1084300006E0881AA16820F07F40814202D9081A1C
:10844000206000E0256065600120A5602074204662
:10845000E56104F099F9B8F10000A4D199F8001091
:1084600099F801008142A3D117B97168514502D032
:108470000120BDE8F0870020FBE700006421002018
:10848000282A0020FFFF7F002DE9FF410026234816
:1084900000F0D3F92148001F074600F0CEF9204C28
:1084A00060680090A56800E000986946284004EBE9
:1084B00080000C30FFF720FF0028F5D101AA0099B9
:1084C00001EA050304EB8303491CDB6842F8203012
:1084D000401C00910228F2D3019800F0030001280B
:1084E0000BD0022810D10198032101EB9050009984
:1084F000BDF80A6001EB900005E00198BDF80A6044
:10850000C0F3831008440090384600F093F908B196
:108510000098606004B03046BDE8F081243100204E
:108520000C2D002010B54FF40041002001F09AFB03
:10853000044601F0EBF9204610BD000088B004F0BD
:10854000A1F8FFF7EFFF08B1FEF758FC4448454992
:10855000401AC108022000EB0140054642A101F08B
:1085600003FB00BF01F0ECF90028FBD14148006893
:10857000C0F3004010B94049012008603F4A0A2179
:108580000820FEF7CBFC08B1FEF738FCFEF7F0FC44
:10859000024628463AA101F0EBFA00BF01F0D0F9FB
:1085A0000028FBD13E49C1F8000703F0C9FBFFF7E3
:1085B00025FA02F0FBFC03F0DBFF284639A101F0AD
:1085C000D3FA04F009F804F039F83C4803903C4829
:1085D00005903C480490FFF715FD8DF81C000246FD
:1085E0003C208DF81D00284637A101F0C1FA02A8F1
:1085F00003F042F903F06CFC03F0F6FD03F004FE17
:10860000344C00BF01F09CF90028FBD1FEF766FC5A
:1086100001F096F90028F9D16169A068884207D174
:10862000A169E068884203D1E169206988420AD0E3
:10863000FFF71CFD2169CDE90010D4E9022328468B
:1086400025A101F0ADFAA0686061E068A061206931
:10865000C4F81C0001F074F90028FBD1D6E7000033
:108660002CD50200F4D40200686F737420696E691F
:10867000740000001804004008000040642200203C
:108680000D0A6170705F74696D65725F696E6974FF
:10869000206572725F636F64653D2564200A000087
:1086A000540000507379735F636C6F636B735F7317
:1086B000776974636820763200000000F1B102002F
:1086C00091B2020099B2020072616E646964783AF4
:1086D00025640000D01F00206C4C3D25642C6C529A
:1086E0003D25642C4170202564205B25645D0000DD
:1086F0002DE9F047C5881E1DB6FBF5F78946B6FB88
:10870000F5F1044605FB176C407916686843DDF8FF
:1087100020A0F718001F874200D9C61A166001E092
:108720002468491E0029FBD1A5EB0C078846B742F7
:1087300016D818E004EB0C00001D09EB0803BAF191
:10874000000F3A4602D00146184600E01946FDF7F0
:1087500081FE2468F61B4FF0000CB844B54201D9E5
:10876000374600E02F46002EE4D1BDE8F087000038
:1087700030B5024651B101F093FA0021074C08E0F0
:1087800034F821301568AB4202D11160002030BDB1
:10879000491C8142F4D3052030BD000000000000D8
:1087A000024900B10120487070470000F02000200D
:1087B00010B531B1B2FBF3F403FB14241CB1092052
:1087C00010BD0E2010BD01600021416081608281DA
:1087D000C381084610BD70B50C460546FDF78EFDF9
:1087E000002802D021882868084470BD10B50A8886
:1087F00049888A4203D1FDF7C3FD012010BD002046
:1088000010BD70B50C460546FDF79DFD002802D051
:1088100061882868084470BD10B50A8849888A4272
:1088200003D1FDF787FD012010BD002010BD002100
:1088300000F00FB8002100F017B8012100F023B8B4
:10884000012100F016B808B56A46FDF718FD00983A
:1088500008BD08B56A46FDF7F8FC009808BD08B5E4
:108860006A46FDF70CFD08BD08B56A46FDF7EDFC4C
:1088700008BD08B56A46FDF7DBFC08BD08B56A46C9
:10888000FDF7CAFC08BD08B56A46FDF7D1FC0098A3
:1088900008BD08B56A46FDF7FFFC009808BD70B535
:1088A000044600252846FEF7CDFB2168626808686B
:1088B00090420ED9401E08600178238AE26801FBCD
:1088C0000325227A2168101AC0B20A79824200D2A6
:1088D00008710020FEF7B8FB284670BD70B505464C
:1088E0000C460020FEF7AEFBE868298A201AB0FB90
:1088F000F1F12A681068431C13600170BDE87040F4
:108900000020FEF7A1BB10B530B1017A42680368C0
:10891000891AC9B21A6006E00E2010BD03681A68F1
:10892000541C1C601170491EC9B2F7D200680021A6
:108930000171084610BDC20800F007030120895CE0
:1089400098400840704710B5C20800F00703885CE3
:1089500001249C402043885410BD000030B40379AA
:10896000034C44F8232030BC024A01F083BC0000D1
:10897000C42800200DC30200F0B505460478154850
:1089800089B0164640F82420124A0869121DA2F147
:10899000080742F82400487F385520226846FDF732
:1089A00059FD04942878385C48B10EB10A4A00E0B9
:1089B00000226946281D01F03BFF09B0F0BD0EB151
:1089C000064A00E00022694605F10C0001F004FEB1
:1089D000F3E700001C2100209DCA0200E9C8020044
:1089E00070B50C494FF4705008600B4C0025657051
:1089F000257002F0E5FD20210848FDF744FDE56201
:108A000014202563FDF780FE05490320C1F800020C
:108A1000002070BD08F501400422002034340020FD
:108A2000001000400B4810B5007880B10120FDF720
:108A30006BFE094800218162016241622021703091
:108A4000FDF721FD0120FDF775FE002010BD082077
:108A500010BD000004220020C4330020094810B5D6
:108A6000007860B10120FDF74FFE074800218162C8
:108A7000016241620120FDF75DFE002010BD08206B
:108A800010BD0000042200207032002070B50500E7
:108A90007ED04B4C207818B1FFF7A2FF002878D188
:108AA0006868E061182229464648FDF7D3FC002596
:108AB000656020214448FDF7E6FCE562256304F08B
:108AC00025F9002873D041494FF0E7300860091DAF
:108AD0004FF043300860091D3D480860091D3D48BE
:108AE000086002F06DFD37490020183101F59472DD
:108AF00000EB800303EB40130B4442F82030401C92
:108B00000828F5DB344A002002F5947100EB80035D
:108B100003EB4013134441F82030401C0828F5DBD8
:108B20002E49042008602D48083805602C4840F282
:108B30000221C0F800122C4A2A491160111D086058
:108B40002848001D091D086025481030091D0860CF
:108B5000091D264808602348F038091D086023488D
:108B6000001D091D0860091D21480860154E707C14
:108B700000F007010120FDF70EFEB07C00F00701B8
:108B80001420FDF708FE1420FDF7D4FD657002E007
:108B90000BE00BE00BE0012020700007D0F804018F
:108BA000C0F30720452804D008E00E2070BD072040
:108BB00070BD1048016841F480610160002070BD03
:108BC0000422002030310020343400201C150040E5
:108BD000E743C323A363E3139C32002010A50040A6
:108BE00000A000400011004060F5014040A100409D
:108BF000001000403C17004070B505461E48007844
:108C000080B385B31D4CA06A70B30120FDF77CFDD5
:108C1000606A54F820100A782A7054F820104978B5
:108C2000697054F820108978A97054F820100979D7
:108C3000297154F82010C978E97054F82010681D83
:108C4000491DFDF707FC606A401C6062082801D3DB
:108C500000206062A06A401EA0620120FDF76AFD4C
:108C6000002070BD01E002E003E00820F9E70E20DB
:108C7000F7E70520F5E7000004220020C4330020B8
:108C800070B5184E0446707808B1112070BD44B11B
:108C90004FF08050D0F80401C0F30720422802D0E2
:108CA00012E00E2070BD0F483430407C052814D0EF
:108CB0004FF07F452046FEF789F8284204D10A4844
:108CC000006810F0FF0F0AD020687063012003F0E5
:108CD000D9FFBDE87040FEF7CBB9044DEAE70720A5
:108CE00070BD000004220020241500400000FFFF9A
:108CF00070B5234D0446687808B1112070BD44B1A9
:108D00004FF08050D0F80401C0F30720422802D071
:108D100029E00E2070BD1A483430407C05282BD045
:108D20004FF07F462046FEF751F830421BD11549DF
:108D3000086810F47F4F21D0086810F47F0F1DD011
:108D40000868000E1AD0091D0868000E16D00868C1
:108D500010F47F0F12D0086810F47F4F0ED008680F
:108D600010F0FF0F0AD02068A863022003F08AFFEA
:108D7000BDE87040FEF77CB9034ED3E7072070BD15
:108D800004220020241500400000FFFF70B50C46AF
:108D90002249497809B1112070BD60B1082C3AD838
:108DA0004FF08051D1F804111C4DC1F30721343527
:108DB000422902D01CE00E2070BD697C05290FD02D
:108DC0004FF07F412CB1164A12680A4201D1027855
:108DD0000AB3134A121D12680A4209D1012105E0A3
:108DE0001049EFE7425CB2B1491CC9B2A142F9D3C4
:108DF00001460A4822463C30FDF72CFBC4F108012D
:108E0000FF202C74C840A874042003F03BFFBDE889
:108E10007040FEF72DB9072070BD0000042200202D
:108E20001C1500400000FFFF0649497809B11120D8
:108E30007047642801D90720704702493431C8744B
:108E400000207047042200200E4810B50078A0B121
:108E50000D4CA06A98B10120FDF756FCA06A401E97
:108E6000A062606A401C6062082801D30020606232
:108E70000120FDF75FFC002010BD082010BD4FF45D
:108E8000807010BD042200207032002070B51A4896
:108E9000417809B1112070BD184C4FF0FF31C4F872
:108EA00008130025C4F810511549C160816841F0CC
:108EB0000401C4F800121021C4F804130421417005
:108EC0000D48104A3430817C11600E49C07C28392D
:108ED0000860091F0C48086001209434FDF709FC64
:108EE0000120FDF727FC25676567E567012044F849
:108EF000900C002070BD00000422002000100040F3
:108F0000F9A9020030150040123400200E4A5078B2
:108F1000042805D05078052802D040F2011070478F
:108F20000A480021C0F800124B1EC0F80833D16077
:108F3000C0F8101101230361D0F81031002BFBD0D1
:108F400051700020704700000422002000100040F3
:108F50002DE9F041264F0546387840B155B12878C3
:108F600068B120280BD8234E317829B109E00820B8
:108F7000BDE8F0810E20FBE7F17C884201D9092091
:108F8000F6E71D4CA06A082801D30420F0E76878B2
:108F9000082801D30720EBE70120FDF7B5FB206A85
:108FA0002522294654F82000FDF754FA10486A7823
:108FB0002C30815C491C01F003018154206A54F873
:108FC0002020401C08281171206201D3002020625B
:108FD000A06A401CA0620120FDF7ACFB707828B9A4
:108FE000307C18B9787808B903F0F2F90020BFE7AF
:108FF0000422002030310020703200200FB408B568
:109000000399002904D004AA00926A4600F00FF8E0
:1090100001B05DF814FB10B582680446002A05D043
:10902000D4E90403216898470020A06010BD2DE911
:10903000FC4791460C00804676D014F8011B39B1EC
:1090400025290ED04046FEF731FB20780028F4D1C8
:1090500098F80C00002867D04046BDE8FC47FFF7B1
:10906000DABF0020012221782B291BD02D2902D024
:10907000302908D102E040F0010001E040F0020098
:10908000641C002AEFD100252A290ED02178A1F1F5
:1090900030020A2A11D205EB850201EB4205641C5D
:1090A000303DF1E740F00400EAE7D9F800100B1D6D
:1090B000C9F800300968641C0D44217800232E296A
:1090C0000BD114F8011FA1F130020A2A05D203EBDB
:1090D000830201EB4203303BF3E76C290DD0682992
:1090E0000BD0692921D00BDC252918D0582931D083
:1090F00063290ED0642915D117E014F8011FECE79D
:10910000702969D0732932D075291BD0782909D1EB
:1091100020E0D9F80000011DC9F800100178404690
:10912000FEF7C4FA641C90E76CE0D9F800100A1D41
:10913000C9F800200968CDE900500A224046FFF72F
:1091400027F8EFE7D9F800100A1DC9F800200968D0
:109150000A2206E0D9F800100A1DC9F800200968A3
:109160001022CDE90050404603F032FDDAE7D9F88D
:10917000001000270A1DC9F800200E68C00705D19D
:1091800012E04046761C7F1CFEF790FA31780029E9
:10919000F7D104E0202140466D1EFEF787FABD425C
:1091A000C0D9002DF6D1BDE74EB13046FDF776F9B6
:1091B000074604E0202140466D1EFEF777FABD42C7
:1091C00006D9002DF6D103E04046761CFEF76EFA74
:1091D00031780029F8D1A5E7D9F80000011DC9F8B8
:1091E0000010056830214046FEF760FA78214046BD
:1091F000FEF75CFA08200021CDE9000103461022A9
:109200002946B0E7BDE8FC872DE9F843884605000C
:109210002C482D499946A0EB01004FEAD0004FF0B1
:109220000101164601EB004424D0286800282CD008
:10923000002E34D0696840464FF010070A68511E6E
:1092400011EA080F11D1014672432846FDF7CAFD05
:1092500000282ED028684B463246046901B04146AA
:109260002846A446BDE8F04360472046174B18A2A5
:10927000009722E00E2000902046144B1EA220A151
:1092800000F085FC0E20BDE8F88308200090204601
:109290000E4B26A21AA100F07AFC0820F3E7092061
:1092A00000902046094B24A215A100F070FC092073
:1092B000E9E7064B214A2046009711A100F067FC20
:1092C0001020E0E724D50200F4D4020063D20200AB
:1092D000616464725F69735F706167655F616C6927
:1092E000676E656428705F66732C20706167655FC8
:1092F0006164647229000000705F66730000000002
:10930000257320636865636B206661696C65642002
:10931000696E202573282920776974682076616C2E
:10932000756520307825782E00000000705F667328
:109330002D3E705F617069006C656E0098D302000D
:1093400038B503001148124D4FF00E04A0EB050094
:109350004FEAD0004FF0010505EB004009D061B1A4
:1093600019600C6801B0A446BDE8304011461846AB
:109370006047084B08A2009402E0064B08A2009444
:1093800009A100F004FC0E2038BD000024D5020025
:10939000F4D4020018D20200705F6673000000006F
:1093A000705F617069000000257320636865636BFE
:1093B000206661696C656420696E20257328292008
:1093C000776974682076616C756520307825782E11
:1093D000000000002DE9F84F90468A463A493B4A82
:1093E0000500A1EB02014FEAD1014FF00102DDF8C7
:1093F00028901E464FF00E0002EB01441AD0B8F13F
:10940000000F1CD02868002822D00920002E29D067
:1094100069684968B6FBF1F201FB1261002926D0A8
:1094200000902B4B20462BA235A100F0B0FB092069
:10943000BDE8F88F00902046254B3CA203E0009049
:10944000234B20463BA22EA100F0A1FB0E20EFE70C
:109450000820009020461E4B38A229A100F097FB5F
:109460000820E5E700902046194B37A2DCE750467C
:10947000FDF7B2FC102798B14046FDF7ADFCA0B156
:10948000324651462846FDF7ADFC98B1CDF8009024
:10949000286833464246C46851462846A047C7E775
:1094A00020460B4B29A2009708E02046084B2DA22E
:1094B000009703E0064B204633A2009710A100F06E
:1094C00066FB1020B4E7000024D50200F4D40200AB
:1094D00050D2020021286C656E202520705F6673D3
:1094E0002D3E705F666C6173685F696E666F2D3EBE
:1094F00070726F6772616D5F756E6974290000002C
:10950000257320636865636B206661696C65642000
:10951000696E202573282920776974682076616C2C
:10952000756520307825782E00000000705F667326
:1095300000000000705F737263000000705F66736C
:109540002D3E705F617069006C656E0061646472CD
:109550005F69735F616C69676E6564333228646547
:1095600073742900616464725F69735F616C696719
:109570006E65643332282875696E7433325F7429DE
:10958000705F737263290000616464725F69735F66
:1095900077697468696E5F626F756E647328705F57
:1095A00066732C20646573742C206C656E29000032
:1095B00070B541EA4201DDE904564FF0A04441EAAA
:1095C000830141EA052104EB800041EA0641C0F82D
:1095D000001770BD70B541EA4201DDE904564FF055
:1095E000A04441EA830141EA052104EB800041EAFD
:1095F0000641C0F8001770BD70B541EA4201DDE9CF
:1096000004564FF0A04441EA830141EA052104EBEE
:10961000800041EA0641C0F8001770BD70B541EA0C
:109620004201DDE904564FF0A04441EA830141EADA
:10963000052104EB800041EA0641C0F8001770BD27
:109640001CB5002100910B4601220191FFF7B0FFEC
:109650001CBD1CB5002100910B4601220191FFF7B2
:10966000B9FF1CBD4FF0A042002302EB800043EA8B
:109670008101C0F8001770471CB500220B4600920C
:1096800011460192FFF794FF1CBD1CB500220B464A
:10969000009211460192FFF79DFF1CBD4FF0A042C2
:1096A00002EB80000321C0F8001770471CB50021B1
:1096B00000910B46012201911146FFF779FF1CBD75
:1096C0001CB5002100910B46012201911146FFF7C4
:1096D00081FF1CBD4FF0A04202EB8000D0F80027B4
:1096E00022F44032C0F80027D0F8002742EA0141B6
:1096F000C0F8001770474FF0A04201218140C2F826
:109700000C15704718B5084B6C4601441B68009354
:1097100006E000BF54F82030D3F81035401C08C2D2
:109720008142F7D818BD0000ECD10200034908B50A
:109730000844002101600068009008BD00600040FE
:1097400002494058012800D00020704700600040C6
:1097500030B5154A01460020D2F8104423460AE0ED
:10976000DB681D79854205D1401C0A28F6DB4FF0E5
:10977000FF3030BD1B68002BF2D1431CF9D0CB6801
:109780001871D2F8103443B1DB68CC681B682360D1
:10979000D2F81024D268116030BDC2F81014C96824
:1097A00000220A6030BD00000C2D00207047FDF73C
:1097B00043B8704708B5034A00924023024A00F0BC
:1097C00005F808BD2DC20200342B0020F0B595B07D
:1097D0001C4615460E4608461A9F00F033FB18211A
:1097E00009A8FCF750FE0E97CDE909540023082282
:1097F00003A9304600F03BFB05980690BDF8100029
:10980000ADF81C00BDF81200ADF81E0000208DF868
:1098100021000399082501F00300012802D0022845
:1098200016D02FE0C1F3C200C1F383178C0A8DF864
:109830002000BA002B460FA9304600F018FB09A8FB
:10984000009006AB3A460FA9204600F057FA19E0FF
:10985000C1F3C2008C0D8DF82000082C01D22746E0
:1098600000E008272B463A460FA9304600F0FFFAE1
:109870003D44E41B09AB06AA39460FA800F09AF94B
:10988000002CEAD1304600F0E3FA15B0F0BD704785
:10989000002003F047B80000084810B50178084AD6
:1098A000515C19B1001D01F04FF802E00C3000F0DE
:1098B0005DFFBDE81040002003F034B89021002087
:1098C0001821002008B5034A00924023024AFFF7FE
:1098D0007DFF08BD7DC20200742B00200A4A0129C9
:1098E00002EBC00007D0022907D0032907D00429C2
:1098F00007D000207047022070470420704700798D
:109900007047407970470000F4D4020010B5FFF7AB
:109910004EFF04210948FFF71BFF08480124C068D7
:109920004471FFF7B5FF054804211030FFF710FF21
:1099300002481030C068447110BD0000D4D4020049
:109940002DE9FF47FDF7CAFE18B1002004B0BDE8BD
:10995000F0877C4C0020C4F81804BFF34F8F606878
:109960000090A5684FF00008284004EB80000BE051
:10997000D4F8180470B921680098814201D8616058
:10998000E3E7284004EB80000C306946FEF7B4FCA6
:109990000028EDD1002001AA009901EA050304EB9B
:1099A0008303491CDB6842F82030401C00910228E8
:1099B000F2D3019800F00301022902D001294DD011
:1099C000A5E0810D50228946B2EB905F00D850216E
:1099D0000E4666F39F50019008315B4800F0E9F9AC
:1099E000070077D000F02EFA4346082201A9384636
:1099F00000F045FA009908F1080A2940681A800029
:109A0000001D864223D94F4D0C3530B1C2B204EB54
:109A10008101301A90460C3104E02946F2B200254B
:109A200090462846C6B25346384600F028FA0AEB5C
:109A300008032DB1324629464FEA070000F01FFA0D
:109A4000009909F1030001EB9000009039E004EB6C
:109A500081015346324638460C31EFE7C0F383119B
:109A6000062900D3062161F389100190C0F3831009
:109A7000801C8100344800F09CF9070047D000F0BA
:109A8000E1F94346082201A9384600F0F8F908F147
:109A9000080800260FE00098434600EA0501401C34
:109AA00004EB81010090042238460C3100F0E7F904
:109AB00008F10408761C0198C0F38310B042EAD87C
:109AC00047B1D4F81054D4F8180478B1384600F0EF
:109AD000BFF931E01BE0E8684079012804D12A6829
:109AE0002846394612689047E8680568002DF2D18B
:109AF000384600F0ADF90020FDF7A4FAD4F81804B8
:109B000008B9009860600020FDF79EFA14E0D4F8D0
:109B1000104405E02168204689688847E0680468A9
:109B2000002CF7D109480A49401AC008022101EB6C
:109B3000004008A100F018F8FDF7D0FD80F001000A
:109B400004E700000C2D002034D502002CD50200C3
:109B5000F4D402004261636B656E647320666C75B9
:109B6000736865640000000000231A4602F0BABC66
:109B700008B5012300926A4602F0B4FC08BD1CB58A
:109B8000CDE9002302236A4602F0ACFC1CBD3EB5C1
:109B9000069C8DE81C0003236A4602F0A3FC3EBD30
:109BA0007FB5DDE908458DE83C0004236A4602F0F4
:109BB00099FC7FBD2DE9F0470E4680461C46924633
:109BC000082940D894F80C900020207319461046BC
:109BD00001F0C2FA0025B54206D218F805201BA1F3
:109BE0002046FFF70BFA03E01AA12046FFF706FA1A
:109BF0006D1C082DEFD318A12046FFF7FFF90025B3
:109C0000B54212D218F805707E2F08D8FCF71EFC5A
:109C10000068C05D10F03E0F01D03A4600E02E22F1
:109C20000EA12046FFF7EAF903E00DA12046FFF759
:109C3000E5F96D1C082DE3D301222146504601F0C1
:109C40006DFA84F80C90BDE8F087000020253032D2
:109C500078000000202020007C0000002563000028
:109C6000200000000B4810B5FF2181600021016039
:109C70004160C0F81814C0F81414012180F82014B1
:109C8000054800F0E3F8002803D1044800F03AF951
:109C9000002010BD0C2D002034D5020004D302009A
:109CA00002480349401AC0087047000034D502003A
:109CB000F4D4020013B56846FEF75AFD08B100203F
:109CC0001CBD0248009950F831001CBDF4D40200BC
:109CD00070B509480125D0F8104480F8205407E0F9
:109CE000E06845712168204649688847E068046853
:109CF000002CF5D170BD00000C2D00202DE9FF4790
:109D000081460C9D00200C462F7B287398461646F2
:109D10002946184601F020FA072E42D2DFE806F065
:109D200004090F161F2A360049462846FFF766F930
:109D300037E0494628462268FFF760F931E0D4E968
:109D4000002349462846FFF759F92AE0A068009009
:109D5000D4E9002349462846FFF750F921E0D4E929
:109D60000201CDE90001D4E9002349462846FFF766
:109D700045F916E004F1080007C88DE80700D4E9AA
:109D8000002349462846FFF739F90AE004F10800A4
:109D90000FC88DE80F00D4E9002349462846FFF795
:109DA0002DF900222946404601F0B8F92F73BDE88D
:109DB000FF872DE9F041058A80462D1F4819C01CF8
:109DC000B0FBF5F0C6B24046FEF769FD041E19D09F
:109DD0000020207101206071E58000272546761E55
:109DE000C4F800800BE04046FEF759FD60B1617990
:109DF000491C6171286005467F1CC0F80080B7428D
:109E0000F1D32046BDE8F081204600F002F80020A2
:109E1000F8E72DE9F041457901466B1E002201E08B
:109E20000968521C9A42FBD30F680146002605E0E0
:109E300038460C68FEF752FD2146761CAE42F7D339
:109E4000BDE8F0810121001DFEF7FDBCFEF75BBD02
:109E500010B504460121001DFEF71BFD10F0FF0F99
:109E600004D12046BDE81040FFF7D3BF10BD1CB59C
:109E700001920122009201AAFEF73AFC1CBD1CB51A
:109E800001920022009201AAFEF732FC1CBD0000E4
:109E9000094902220A60BFF36F8FBFF34F8F0A1D7B
:109EA000106006480268002AFCD000200860BFF35A
:109EB0006F8FBFF34F8F704704E5014000E401400E
:109EC00070B50E4C01232360BFF36F8FBFF34F8F2C
:109ED00000230B4D08E000BF51F8236040F82360D9
:109EE0002E68002EFCD05B1C9342F5D3002020602E
:109EF000BFF36F8FBFF34F8F70BD000004E50140CB
:109F000000E40140826800219160826811618268EA
:109F100051618268D16082685160806801607047D9
:109F20004058002800D00120704708B50022425058
:109F30004058009008BD08B500224250405800909B
:109F400008BD4058002800D00120704708B5002205
:109F500042504058009008BDD0F80403084000D09B
:109F6000012070474058002800D00120704708B5F4
:109F7000002242504058009008BD0000002802D046
:109F80000149800108477047A1D10200002802D092
:109F90000149800108477047B1D202002DE9F04124
:109FA0008846054601F0A2F8234E002828461AD01C
:109FB000FDF7D6FB304490F854008009032802D006
:109FC00001280ED007E04FF0A040D0F81005E8407F
:109FD00010F0010F05D003212846BDE8F041FFF73E
:109FE00079BB0221F8E701F08DF8002822D028463D
:109FF000FDF7B6FB04464FF4807000EB84000F4F72
:10A0000081B207EB8400D0F8102542F00102C0F8BD
:10A0100010250846FFF78AFBB8F1000F0AD0284642
:10A02000FDF79EFB56F82000002803D00120A04039
:10A03000C7F80403BDE8F081D0280020006000408C
:10A040002DE9FC41DFF8BC80044608EB0400002742
:10A0500090F93C001346C0170E46401C01D008275B
:10A060004CE0B0781946C0F340022046FDF754FB9F
:10A070000546401C41D0B078410719D4C0070AD02A
:10A080004FF0A04000EB8401D1F8000720F002005F
:10A09000C1F8000707E000217378204600910A46C6
:10A0A0000191FFF7BBFA174920466331FEF74BFCDD
:10A0B000B078800718D51448317800EB8500D0F8C7
:10A0C0001025124B1A40C0F810254FF4F8524FF4E7
:10A0D000403302EA042203EA01410A43D0F8101592
:10A0E0000A43C0F8102509E008EB0500327810F8A3
:10A0F000541F41EA8211017000E004273846BDE890
:10A10000FC810000D028002000600040FFE0FCFF40
:10A1100070B5174D95F8670008B1082070BD002094
:10A12000411E2A18401CC0B282F83C102028F8D3E7
:10A1300000242046FDF7E2FA641CE4B20F2CF8D3A9
:10A1400000240C4945F8634FC02081F80004012623
:10A150004020891FC1F800014FF4BE70FFF7E6FAF6
:10A160000549F007C1F804032E71204670BD0000B8
:10A17000D028002006E000E000600040034890F88E
:10A180006700002800D0012070470000D028002080
:10A190000121B1EB507F01D10120704700207047B1
:10A1A0000121B1EB507F01D10120704700207047A1
:10A1B00070B50D4601F09EF804000FD00020FCF7AA
:10A1C00041FF207920B10020FCF73EFF112070BD37
:10A1D0000120256020710020FCF736FF002070BDB3
:10A1E00010B501F087F8002802D00021016001714C
:10A1F00010BD00002DE9F0478046174600790E4655
:10A200001B4AC0EBC001DDF820901D4602EB810423
:10A2100020B9B9F1FF0F01D8FF2F02D90920BDE8FD
:10A22000F0871EB13046FFF7BBFF78B11DB128465D
:10A23000FFF7B6FF50B1607D50B1012815D002285C
:10A2400006D0032804D003252846E8E71020E6E7D7
:10A25000C4E903652760C4F8049000250122214663
:10A26000D8F8000002F094F8EEE70825ECE70000CB
:10A27000A82800202DE9FF4F80460D46007993461F
:10A280005C49C0EBC00201EB8207D8F80040397D81
:10A2900083B019B1082007B0BDE8F08F297C0329ED
:10A2A00001D90720F7E7544951F820102046FFF75D
:10A2B0007FFF08B11120EEE7286800264FF0FF3934
:10A2C000FF280AD0E97CCDE9001600231A4619467A
:10A2D000FFF792F9D5F800A000E0CA466868FF28A9
:10A2E00008D0002300961A4619460196FFF784F914
:10A2F000D5F80490009601960022AB7C1146E868E0
:10A30000FFF77AF90023009601961A461946A868C5
:10A31000FFF772F9D5E90223C4F80825C4F81095AF
:10A32000C4F80CA5C4F81435C4F83465C4F838650D
:10A33000C4F84465C4F84865297C687C00B10120F4
:10A34000012904D0022905D0032908D105E040F0F5
:10A35000020004E040F0040001E040F00600C4F810
:10A360005405287DC4F85C05687DC4F8C0054FF429
:10A3700082712046FFF7D9FD4FF494712046FFF714
:10A38000D4FDD4F8000240F00400C4F800027E7549
:10A39000C7F808B00698B86140F20240C4F8040358
:10A3A000D8F80000A97D40F3073000284FEA41119A
:10A3B00006DA00F00F0000F1E02080F8141D03E041
:10A3C00000F1E02080F80014D8F80000012140F3EB
:10A3D000073000F01F0201FA02F24009800000F18C
:10A3E000E020C0F8002139750220C4F800050020E3
:10A3F00051E70000A8280020E8D102002DE9F04133
:10A4000006460D464FF4803400681746AC404BB109
:10A410004FF4A07101EB8501FFF78DFD3068C0F8A6
:10A42000044301E0C0F80843306800EB8500C0F841
:10A430004075BDE8F08100000268012111610079DA
:10A44000034A00EB400002EB8000017270470000FD
:10A4500084280020016801220A600079034A00EB89
:10A46000400002EB80000221017270478428002026
:10A47000F0B40468049E40F20115D4F800728D40D7
:10A48000AF43C4F800720468D4F800521D43C4F806
:10A4900000523346F0BCFFF7B1BF00002DE9F04198
:10A4A00004460E4600792B4900EB400001EB800783
:10A4B000387A10B10820BDE8F0813A607068002554
:10A4C0004FF4A078786006E008EB85012068FFF77C
:10A4D00032FD6D1CEDB26079A842F5D82068F178A4
:10A4E00040F3073000284FEA411106DA00F00F0070
:10A4F00000F1E02080F8141D03E000F1E02080F876
:10A5000000142068012140F3073000F01F0201FA17
:10A5100002F24009800000F1E020C0F8002120682C
:10A520007278D0F8043562F30103C0F8043520686E
:10A53000B278D0F8083562F30103C0F80835206816
:10A540003278D0F8103562F30303C0F81035397251
:10A550000020B0E7842800200079064900EB400085
:10A5600001EB8000007A022801D000207047012012
:10A57000704700008428002010B50346006840F3AF
:10A58000073101F01F02012090404909890001F1C3
:10A59000E021C1F8800119684FF0FF30D1F80022A6
:10A5A0000024C1F800421968C1F808031846FFF7F3
:10A5B00043FF1879034900EB400001EB800004726F
:10A5C00010BD0000842800200149024802F0D2B9E1
:10A5D00034280020002000402DE9F0410546007994
:10A5E00016460F4600EB40012C4A01EBC00102EB7E
:10A5F000810494F82A1011B10820BDE8F08128499F
:10A6000051F820102868FFF7D3FD08B11120F4E7B6
:10A6100039462846FCF790FD6660386920603000B6
:10A620004FF001062DD03F7F4FF48E712868FFF761
:10A630008DFC4FF4A2712868FFF788FC286819493F
:10A64000C0F8041328684FEA471140F30730002888
:10A6500006DA00F00F0000F1E02080F8141D03E09E
:10A6600000F1E02080F80014286840F3073000F083
:10A670001F0106FA01F14009800000F1E020C0F856
:10A68000001128680421C0F800150020A061E061D5
:10A6900084F8290044F8140FA675AEE7342800208A
:10A6A000E0D10200800002002DE9F0470546007964
:10A6B0000B4600EB400101EBC000234901EB800495
:10A6C000284600F043F810B11120BDE8F0874FF0A4
:10A6D0000008C4F82080A360626184F828804FF4E9
:10A6E0008E76474631462868FFF730FC28684FF0E1
:10A6F0000109C0F808902146286802F0D7F8606880
:10A7000000BBD5F800A00EE094F8280008B10F2790
:10A7100016E031465046FFF714FC0028F4D02146DD
:10A72000504602F0C3F8216A60698142F1D3314694
:10A730002868FFF706FC0028F9D02868C0F80C90BC
:10A74000C4F814803846C0E734280020007900EBB4
:10A75000400101EBC000044901EB80004069002882
:10A7600000D0012070470000342800202DE9F04778
:10A77000044600794FF0000900EB400101EBC000F6
:10A78000254901EB80072068C0F80095786880B102
:10A7900020682249C0F808132068012140F30730DF
:10A7A00000F01F0291404009800000F1E020C0F855
:10A7B00080112068D0F80C25D0F81485D0F80865F1
:10A7C000D0F810554FF0FF31C0F81415C0F80C1533
:10A7D0002068C0F80815C0F81015501C02D01046AB
:10A7E000FEF72EFFB8F1FF3F02D04046FEF728FFEC
:10A7F000681C02D02846FEF723FF701C02D03046AA
:10A80000FEF71EFF2068FFF7EBFC87F82A90C7F8D9
:10A810000490BDE8F0870000342800208402020084
:10A820000149024802F052B960280020002000408F
:10A830002DE9F0410546164600790F46154A00EB12
:10A84000C00102EB810494F8201011B10820BDE88A
:10A85000F081114951F820102868FFF7A9FC08B1D0
:10A860001120F4E739462846FCF7AAFC66603869EF
:10A8700020601EB1397F2846FDF700FD28680821B9
:10A88000C0F800150020A061E0616061012184F83A
:10A890002010DCE760280020E4D102002DE9F04719
:10A8A00004460E460079204900EBC00001EB80050C
:10A8B00017463046FFF76CFC30B1204600F036F802
:10A8C00020B11120BDE8F0871020FBE76F61AE607A
:10A8D0004FF49076002731462068FFF748FB4FF48D
:10A8E000AC7841462068FFF742FB2068AA68696996
:10A8F000C0F84425C0F848152068012181606868C7
:10A9000078B9B14649462068FFF72CFB0646414618
:10A910002068FFF727FB0643F4D000B10F27002083
:10A9200068613846CEE700006028002000790549BC
:10A9300000EBC00001EB80004069002800D001203E
:10A9400070470000602800202DE9F0470446007998
:10A95000274900EBC00001EB800720684FF0000999
:10A96000C0F80095786880B120682249C0F80813C3
:10A970002068012140F3073000F01F029140400998
:10A98000800000F1E020C0F880112068D0F80C258C
:10A99000D0F81485D0F80865D0F810554FF0FF3185
:10A9A000C0F80C15C0F814152068C0F80815C0F8D8
:10A9B0001015501C02D01046FEF74BFEB8F1FF3FB9
:10A9C00002D04046FEF745FE681C02D02846FEF73E
:10A9D00040FE701C02D03046FEF73BFE2068FFF7B9
:10A9E000FFFB87F82090C7F80490BDE8F0870000CF
:10A9F00060280020100302002DE9F05F5548002276
:10AA00000127006818B15448806A082803D3BDE8BC
:10AA1000F05FFCF715BFDFF83C9109F10809D9F8A0
:10AA200000004D49703101EB800609F104010C680A
:10AA3000494B35884E33AC42587805D1B478B4EBE5
:10AA4000500F01D1012200274008B07008689A46D3
:10AA500030804248424C017D19B19AF80110C90773
:10AA600010D0A1683F4B41F00801C3F800123C49E7
:10AA7000394D007849694FF0000B2C35B8B30128E7
:10AA800047D102E0FCF7DCFE4EE03748836AB3F1C1
:10AA9000000E2DD0436A50F823C09CF80180D9F8ED
:10AAA00000C0E04524D196F803C0BCF1010F0DD1E0
:10AAB00062B95B1C4362082B01D3C0F824B0AEF12D
:10AAC00001028262626842F0010262600122F27059
:10AAD000426A50F82200A06100788847A16908788E
:10AAE000287011F8052BA81CFBF7B4FC06E009E060
:10AAF00086F803B00020884785F800B09AF8010076
:10AB0000687006E0002088479AF80000287085F8F1
:10AB100001B005206070D9F800001449086013489E
:10AB2000283805601248E060002F10D0B178D9F8BD
:10AB30000000C0B201F080F9002808D0606840F041
:10AB400004006060BDE8F05F1420FBF709BEBDE8BB
:10AB5000F09F000000140040C4330020303100207A
:10AB60000422002000100040703200202C1500400C
:10AB700075AB020010B5094CA068094940F004000B
:10AB8000C1F8000207486169C07C88470749064848
:10AB900008600748E0600420607010BD04220020B7
:10ABA0000010004030310020123400200415004015
:10ABB000F9A9020070B5164CA068164AC2F8000246
:10ABC000A06A15490860154B091D988982380860EC
:10ABD0001348012140F80C1F0021C0F83411C0F8BF
:10ABE0003811104D4FF4E050286050142D1D28608E
:10ABF000C2F80C11187810B96169002088470B4918
:10AC0000094808600A48E0600320607070BD0000D9
:10AC1000042200200010004040A5004030310020F8
:10AC200000A0004004F5014012340020041500404B
:10AC300071AC020010B50C4C606840F0010060601F
:10AC4000FEF702F90948806A30B11420FBF788FD4D
:10AC5000BDE8104001F0BCBB00206070BDE81040B2
:10AC60001420FBF77DBD000004220020703200207C
:10AC70002DE9F047414A4FF4E05010604049D1F8C7
:10AC80000C31DFF8009100273F4CB9F80E004E144C
:10AC9000DFF8F8800125E3B33D4B1B68CBB325619A
:10ACA0001660D8F8041041F00101C8F80410D8F873
:10ACB0002010401A401CC8F82400FEF7C5F899F887
:10ACC000000088B109F2E220017869B140784108BA
:10ACD00030480068C0B201F0AFF828B1D8F80400DD
:10ACE00040F00400C8F804002B48806A50B199F87D
:10ACF0001000012806D01420FBF732FDBDE8F04714
:10AD000001F066BB88F80170BDE8F0471420FBF73E
:10AD100027BDD8F820C0BCF1010CC8F820C00BD268
:10AD200025611660401CC8F82400D8F8040040F0E3
:10AD30000200C8F80400E5E7D8F808000F4640F024
:10AD40000802C1F80022D8F81800D8F814100078CA
:10AD5000884710481149283801601148C8F80C008C
:10AD6000022088F8010025600448001F0660D4F81E
:10AD70004401002800D03D60BDE8F08708F501409F
:10AD8000001000403031002000A0004004220020CC
:10AD9000001400402C15004070320020F0330020D9
:10ADA000B5AB020048B1064A0168914205D140683E
:10ADB0000449401802D0012800D003207047000049
:10ADC000DEC0ADDE02FEE10E8A7D022A04D90289D0
:10ADD000CB881A44D21C02814289C988511AC91EE3
:10ADE000418170472DE9F0410D460221904600F562
:10ADF0008056298000F10804144F1BE0314620469C
:10AE0000FDF740F940B1B8F1000F02D0012288F8F7
:10AE10000020022816D004E0A0687969884200D991
:10AE20007861288861880844C01C2880608804EB09
:10AE300080040C3431462046FDF737F90028DDD177
:10AE4000BDE8F0814FF480602880F9E730210020D0
:10AE500008B50021009101460823024A0248FEF786
:10AE6000B9FA08BD10D202005022002008B5002017
:10AE7000009004480823044A01680448FEF7AAFA2F
:10AE800008BD00005821002008D2020050220020F6
:10AE90002DE9F05F0025DFF80891DFF808B12C46B6
:10AEA0004FF00308AA462F46D9F80C0000EB0736EE
:10AEB0003046FFF777FF78B3012847D0032862D1E7
:10AEC00000204FF4806200BF56F82010491C0ED0BD
:10AED00004EB84010BEB8102A8F101005660032210
:10AEE0001FFA80F80BF82120641CA4B24BE0401C30
:10AEF0009042E9D32C48016879B104EB8401022027
:10AF00000BF821000BEB81014E60088125482830A9
:10AF10004480641CA4B205E007E002210660818041
:10AF20004FF0010A45F001052DE004EB84010022F9
:10AF30000BF821200BEB810101F110024E6030462D
:10AF40000831FFF74FFF45F00205CDE7BAF1000FDA
:10AF50000CD0022004EB8401134A0BF821000BEB08
:10AF6000810112684A60641C0881A4B20E48002264
:10AF7000011D06603046FFF735FF0B488088022828
:10AF80000CD0082005437F1CBFB2032F8CD3B8F12F
:10AF9000020F00D20025E8B2BDE8F09F0420F1E7DF
:10AFA00050220020F02900205821002070B51148BF
:10AFB000FCF71AFF104E0246002030700F4810496F
:10AFC000401AC108022000EB01450EA12846FEF7F9
:10AFD000CFFDFCF74DFE0446284622460DA1FEF7A4
:10AFE000C7FD200001D0FBF709FF30780028FCD016
:10AFF00070BD0000117C0200D42000202CD502007E
:10B00000F4D402006664735F726567697374657275
:10B010003D2564006664735F696E69743D25640054
:10B02000F0B5064687B0002014460D46029007464C
:10B03000039019E0694604A8FCF7A6FE00281DD17C
:10B040000023019806E000BF50F8231046F82310B3
:10B050005B1CDBB2009949889942F5D8012704A806
:10B06000FCF76AFE002809D1A1B2A8B202AB04AA7B
:10B07000FCF782FE0028DDD017B1002007B0F0BD3C
:10B080000520FBE770B588B0002405460C9E0194AE
:10B090000294CDE9065388B20094134DADF8140024
:10B0A00091B203940494ADF816102C7003AB6A4669
:10B0B000FCF762FE002805A968460AD0FCF78FFE5F
:10B0C000002804D116B128780028FCD0002008B050
:10B0D00070BDFCF77DFE0400F4D0072C01D1FCF715
:10B0E000A9FD2046F3E70000D420002004490844CD
:10B0F00090F93C00082801DB0120704700207047D0
:10B10000D02800200449084490F93C00082801D2C6
:10B110000120704700207047D028002010B50C4651
:10B12000017A052908D0407A38B1084808A1026898
:10B130002046FDF763FF00E01AB106A12046FDF7A7
:10B140005DFF2046BDE81040FDF765BFE02100200F
:10B15000257300000D0A000038B5C3880D4604466B
:10B1600033B114A0009015A216A12846FDF746FFA2
:10B17000217A05291CD0607A48B1A088FEF7AEFB81
:10B18000164951F8202016A12846FDF737FFA08860
:10B190000021FEF78FFD03461049207A143951F83B
:10B1A000202001B02846BDE830400EA1FDF726BFA3
:10B1B00038BD00001B5B306D000000001B5B313BA5
:10B1C00033316D0025734C6F67732064726F70703C
:10B1D0006564202825642925730D0A00E0210020DC
:10B1E000257300003C25733E2025733A20000000A3
:10B1F000F0B589B015460E46044601F05FF8607858
:10B20000224900224DB1CB8883423BD0C8804B7885
:10B21000CF78C31ADBB29FB119E08B88834231D05B
:10B2200088800B788F78C31ADBB237B9012B04D032
:10B230001BB18F683B445B1E8B608A70087008E00E
:10B24000012B04D01BB1CF683B445B1ECB60CA709E
:10B2500048702778FCF710FF390607F07F0101D509
:10B26000401A00E00844009075B1FE20207032467C
:10B2700021460DF10500FBF7EDF88DF804606846F6
:10B28000FCF75EFB09B0F0BDFF20EFE7D01F002008
:10B29000022001F019BF000030B5134900230C78DB
:10B2A000E40703D0047844F00104047009788907A6
:10B2B00003D5017841F0020101700C4D002429688A
:10B2C00041B1531A3C2B02D3FF232C6002E0891AB0
:10B2D0003C31CBB2064943700A7882700A88120A60
:10B2E000C2700C6030BD000014210020E820002056
:10B2F000002100200349884201D103487047002003
:10B30000704700000020004024210020014605482D
:10B3100010B50068FDF75FFA04461C21FBF7B3F88F
:10B32000204610BD00D20200014602480068FDF729
:10B3300073BA000000D20200F0B5254D254E85B04D
:10B3400004460027686828B9214930680831FDF7AC
:10B3500058FA686001460078072817D2DFE800F045
:10B36000160408080E0E12002046FCF7ADFE02E09F
:10B37000204601F0F5FD040028D008E02046FCF747
:10B3800053FBF8E72046FCF749FDF4E70F241421AE
:10B390006846FBF778F8A4F5E8501D3800D1002482
:10B3A000019469466868FCF7CDFB6846FCF704FC2D
:10B3B00007496F60002408313068FDF717FA044828
:10B3C00001210C30FDF765FA0028BBD105B0F0BDB6
:10B3D0003021002000D2020010B501210448FDF701
:10B3E0003EFA002803D1BDE81040FFF7A5BF10BD0D
:10B3F0003C21002010B510461A46FBF72BF8002020
:10B4000010BD00002DE9F04707461E481C461546B2
:10B4100000780E4670B185B17CB1DFF86C804FF0DA
:10B420000009A08802282BD200EB800118F8210027
:10B4300010BB19E00220BDE8F0870520FBE720687B
:10B440001FB181883A8891420ED11EB1018832889D
:10B45000914209D180682860206868600A482830D5
:10B46000008928810020E6E7A088214600F05EF8E8
:10B470000028E4D1C4F80090A088401CA080D0E748
:10B480000A20D8E750210020F0290020F8B5054611
:10B490004068244F0C46002648B32349CA688242BC
:10B4A00025D80969814222D3FCF76CFFF8B12889BD
:10B4B000398988421BD1D5E900018A68904216D1AA
:10B4C0000020A7F1280200BF00EB800302EB8303FA
:10B4D0005B688B4205D203F580538B4201D92080F3
:10B4E00011E0401C80B20228EED30020F8BD268077
:10B4F00000960AE0009829688068884205D1009883
:10B500006860388928810120F8BD2088694600F0EC
:10B510000DF80028EED12088401C80B2208002283F
:10B52000E6D3E2E7182A00205022002070B50E462C
:10B5300000EB8001134800EB81004468306804F59B
:10B54000805518B1418800EB810411E0083410E007
:10B5500029462046FCF796FD20B1012805D0022897
:10B5600007D10DE00120346070BD608804EB8004D9
:10B570000C3429462046FCF798FD0028E8D170BD20
:10B58000002070BDF029002038B50C460021009144
:10B5900001460423074A0848FDF71CFF08B10E20A6
:10B5A00038BD064A04EB840102EB810101200874D6
:10B5B000002038BD04D2020050220020F0290020D3
:10B5C0000549002008624862886201F5AA71086294
:10B5D00048628862704700007032002070B51C46D7
:10B5E00015460E46FDF74CFB00280DD13046FDF701
:10B5F0007FFB002808D121462846FDF7C7FB041E23
:10B6000002D100F003F8204670BD00000248016836
:10B6100041F00101016070475016004010B50078FC
:10B62000294CF8B101281BD002283CD12748FDF74E
:10B63000E3FA002837D1FDF7F5F9244800214278D4
:10B64000012A22D0022A2FD021482249BDE81040E9
:10B65000401AC008022101EB00401FA1FEF784BA86
:10B66000FDF7FCF9FDF7BCF917489C30FDF70EFA21
:10B67000154A03230832D11C206EFFF7AFFFFDF7F8
:10B6800005FCBDE81040FFF7C1BFE1700178022959
:10B6900009D9E36A23B1491E0022C9B2801D984727
:10B6A000606C401C606410BD217101780229FAD9D8
:10B6B000E36A23B1491E0122C9B2801D9847A06CDC
:10B6C000401CA06410BD0000F01F002024230020B7
:10B6D0002CD50200F4D402006572726F7220626F82
:10B6E0006E6420320000000030B58DB000208DF86F
:10B6F00009000090019001258DF80B5005208DF870
:10B70000080069208DF80D00194800F05FFF184C03
:10B710006846503C0421636B226D98479DF80000F9
:10B720008DF80E009DF801108DF80F109DF8021095
:10B730008DF810109DF803108DF81110E178012993
:10B7400003D140F004008DF80E002079012805D1C6
:10B750009DF80E0040F008008DF80E00E570257190
:10B7600002A8FDF7F5FB206C401C20640DB030BD35
:10B7700040200020084900208863C863086488646A
:10B78000486406480649401AC008022101EB0040FF
:10B7900004A1FEF7E9B90000F01F00202CD502003B
:10B7A000F4D4020072665F64656275675F696E69F2
:10B7B00074000000F8B5174C002001222070607062
:10B7C00004216846FFF72CFC012518B9009808B140
:10B7D000257060600B2204216846FFF721FC0E4EA5
:10B7E00010B9009800B1B061022204216846FFF749
:10B7F00017FC18B9009808B16570A0600C220421EC
:10B800006846FFF70DFC002803D10098002800D0FF
:10B81000F061F8BD14230020F01F00201CB54FF08C
:10B820008050016ECAB20D490A70036EC3F307233C
:10B830004B70046EC4F307448C70006E000EC87029
:10B84000CDE9004006480749401AC008022101EB33
:10B85000004005A1FEF7A4F91CBD0000FB1F00205D
:10B860002CD50200F4D4020072662025783A25789F
:10B870003A25783A2578000070B5194D0446007DC8
:10B88000E871FFF777FFFFF7C9FFFFF793FF6068E5
:10B89000E862A0686863E068286305F14C0000F086
:10B8A00095FE114811490F4C401AC108022000EBC7
:10B8B00001406378227805460DA1FEF760F92078F3
:10B8C00030B1607820B10120FCF76AFF00F0FCF88D
:10B8D0002846BDE870400A4A0AA1FEF749B90000AF
:10B8E000F01F0020142300202CD50200F4D4020005
:10B8F000626F6E64202564203A25642000000000F9
:10B900003DD102005B25735D2073756363657373BE
:10B9100066756C6C790A000033B52448244983B0FD
:10B92000401AC108022000EB01400025044621A175
:10B93000FEF71AF924480178012933D10125019530
:10B9400045602B462A46042101A80095FFF79AFB83
:10B9500038B1009020464FF4CE731C4A1CA1FEF76C
:10B9600016F901230B22042103A80095FFF78AFB97
:10B9700038B1009020464FF4D073144A14A1FEF75A
:10B9800006F901230622042104A80095FFF77AFB9B
:10B99000050007D020464FF4D2730C4A0CA1009545
:10B9A000FEF7F5F805B0284630BD00002CD50200A2
:10B9B000F4D4020072665F736176655F626F6E64D5
:10B9C0005F6C6566740000001423002018D102002B
:10B9D0005B25735F25645D706572736973745F774F
:10B9E00072697465206661696C3A25640A0000001A
:10B9F00033B52448244983B0401AC108022000EB23
:10BA000001400025044621A1FEF7AEF82448417804
:10BA1000012933D10125019585602B46022204219D
:10BA200001A80095FFF72EFB38B10090204640F2A8
:10BA3000B7131C4A1CA1FEF7AAF801230C2204210B
:10BA400003A80095FFF71EFB38B10090204640F296
:10BA5000BB13144A14A1FEF79AF80123072204210C
:10BA600004A80095FFF70EFB050007D0204640F222
:10BA7000BF130C4A0CA10095FEF789F805B02846C3
:10BA800030BD00002CD50200F4D4020072665F7352
:10BA90006176655F626F6E645F72696768740000EB
:10BAA000142300202AD102005B25735F25645D709A
:10BAB0006572736973745F77726974652066616912
:10BAC0006C3A25640A000000FEB5374C3548002664
:10BAD00060654FF46170A062267007206070E079A5
